{
  "address": "0x419DEAef09A573B869169FA65c283d2Bc385a461",
  "abi": [
    {
      "inputs": [],
      "stateMutability": "nonpayable",
      "type": "constructor"
    },
    {
      "anonymous": false,
      "inputs": [
        {
          "indexed": false,
          "internalType": "uint256",
          "name": "amount",
          "type": "uint256"
        }
      ],
      "name": "ClaimedEmissions",
      "type": "event"
    },
    {
      "anonymous": false,
      "inputs": [
        {
          "indexed": true,
          "internalType": "address",
          "name": "user",
          "type": "address"
        },
        {
          "indexed": false,
          "internalType": "uint256",
          "name": "amount",
          "type": "uint256"
        },
        {
          "indexed": true,
          "internalType": "address",
          "name": "to",
          "type": "address"
        }
      ],
      "name": "Deposit",
      "type": "event"
    },
    {
      "anonymous": false,
      "inputs": [
        {
          "indexed": true,
          "internalType": "address",
          "name": "user",
          "type": "address"
        },
        {
          "indexed": false,
          "internalType": "uint256",
          "name": "amount",
          "type": "uint256"
        }
      ],
      "name": "Harvest",
      "type": "event"
    },
    {
      "anonymous": false,
      "inputs": [
        {
          "indexed": false,
          "internalType": "uint8",
          "name": "version",
          "type": "uint8"
        }
      ],
      "name": "Initialized",
      "type": "event"
    },
    {
      "anonymous": false,
      "inputs": [
        {
          "indexed": false,
          "internalType": "uint256",
          "name": "rewardPerSecond",
          "type": "uint256"
        }
      ],
      "name": "LogRewardPerSecond",
      "type": "event"
    },
    {
      "anonymous": false,
      "inputs": [
        {
          "indexed": false,
          "internalType": "uint256",
          "name": "lastRewardTime",
          "type": "uint256"
        },
        {
          "indexed": false,
          "internalType": "uint256",
          "name": "underlyingSupply",
          "type": "uint256"
        },
        {
          "indexed": false,
          "internalType": "uint256",
          "name": "accRewardPerShare",
          "type": "uint256"
        }
      ],
      "name": "LogUpdatePool",
      "type": "event"
    },
    {
      "anonymous": false,
      "inputs": [
        {
          "indexed": true,
          "internalType": "address",
          "name": "previousOwner",
          "type": "address"
        },
        {
          "indexed": true,
          "internalType": "address",
          "name": "newOwner",
          "type": "address"
        }
      ],
      "name": "OwnershipTransferred",
      "type": "event"
    },
    {
      "anonymous": false,
      "inputs": [
        {
          "indexed": true,
          "internalType": "address",
          "name": "user",
          "type": "address"
        },
        {
          "indexed": false,
          "internalType": "uint256",
          "name": "amount",
          "type": "uint256"
        },
        {
          "indexed": true,
          "internalType": "address",
          "name": "to",
          "type": "address"
        }
      ],
      "name": "Withdraw",
      "type": "event"
    },
    {
      "inputs": [],
      "name": "__NAME__",
      "outputs": [
        {
          "internalType": "string",
          "name": "",
          "type": "string"
        }
      ],
      "stateMutability": "view",
      "type": "function"
    },
    {
      "inputs": [],
      "name": "accRewardPerShare",
      "outputs": [
        {
          "internalType": "uint256",
          "name": "",
          "type": "uint256"
        }
      ],
      "stateMutability": "view",
      "type": "function"
    },
    {
      "inputs": [],
      "name": "caviarManager",
      "outputs": [
        {
          "internalType": "address",
          "name": "",
          "type": "address"
        }
      ],
      "stateMutability": "view",
      "type": "function"
    },
    {
      "inputs": [],
      "name": "claimEmissions",
      "outputs": [
        {
          "internalType": "uint256",
          "name": "amount",
          "type": "uint256"
        }
      ],
      "stateMutability": "nonpayable",
      "type": "function"
    },
    {
      "inputs": [
        {
          "internalType": "uint256",
          "name": "amount",
          "type": "uint256"
        },
        {
          "internalType": "address",
          "name": "to",
          "type": "address"
        }
      ],
      "name": "deposit",
      "outputs": [],
      "stateMutability": "nonpayable",
      "type": "function"
    },
    {
      "inputs": [],
      "name": "distributionPeriod",
      "outputs": [
        {
          "internalType": "uint256",
          "name": "",
          "type": "uint256"
        }
      ],
      "stateMutability": "view",
      "type": "function"
    },
    {
      "inputs": [],
      "name": "gaugeForLP",
      "outputs": [
        {
          "internalType": "address",
          "name": "",
          "type": "address"
        }
      ],
      "stateMutability": "view",
      "type": "function"
    },
    {
      "inputs": [
        {
          "internalType": "address",
          "name": "to",
          "type": "address"
        }
      ],
      "name": "harvest",
      "outputs": [],
      "stateMutability": "nonpayable",
      "type": "function"
    },
    {
      "inputs": [
        {
          "internalType": "string",
          "name": "_name",
          "type": "string"
        },
        {
          "internalType": "contract IERC20",
          "name": "_rewardToken",
          "type": "address"
        },
        {
          "internalType": "contract IERC20",
          "name": "_underlying",
          "type": "address"
        },
        {
          "internalType": "uint256",
          "name": "_distributionPeriod",
          "type": "uint256"
        },
        {
          "internalType": "address",
          "name": "_caviarManager",
          "type": "address"
        },
        {
          "internalType": "address",
          "name": "_pearl",
          "type": "address"
        },
        {
          "internalType": "address",
          "name": "_gaugeForLP",
          "type": "address"
        }
      ],
      "name": "initialize",
      "outputs": [],
      "stateMutability": "nonpayable",
      "type": "function"
    },
    {
      "inputs": [],
      "name": "lastDistributedTime",
      "outputs": [
        {
          "internalType": "uint256",
          "name": "",
          "type": "uint256"
        }
      ],
      "stateMutability": "view",
      "type": "function"
    },
    {
      "inputs": [],
      "name": "lastRewardTime",
      "outputs": [
        {
          "internalType": "uint256",
          "name": "",
          "type": "uint256"
        }
      ],
      "stateMutability": "view",
      "type": "function"
    },
    {
      "inputs": [],
      "name": "owner",
      "outputs": [
        {
          "internalType": "address",
          "name": "",
          "type": "address"
        }
      ],
      "stateMutability": "view",
      "type": "function"
    },
    {
      "inputs": [],
      "name": "pearl",
      "outputs": [
        {
          "internalType": "contract IERC20",
          "name": "",
          "type": "address"
        }
      ],
      "stateMutability": "view",
      "type": "function"
    },
    {
      "inputs": [
        {
          "internalType": "address",
          "name": "_user",
          "type": "address"
        }
      ],
      "name": "pendingReward",
      "outputs": [
        {
          "internalType": "uint256",
          "name": "pending",
          "type": "uint256"
        }
      ],
      "stateMutability": "view",
      "type": "function"
    },
    {
      "inputs": [],
      "name": "reinit",
      "outputs": [],
      "stateMutability": "nonpayable",
      "type": "function"
    },
    {
      "inputs": [],
      "name": "renounceOwnership",
      "outputs": [],
      "stateMutability": "nonpayable",
      "type": "function"
    },
    {
      "inputs": [],
      "name": "rewardPerSecond",
      "outputs": [
        {
          "internalType": "uint256",
          "name": "",
          "type": "uint256"
        }
      ],
      "stateMutability": "view",
      "type": "function"
    },
    {
      "inputs": [],
      "name": "rewardToken",
      "outputs": [
        {
          "internalType": "contract IERC20",
          "name": "",
          "type": "address"
        }
      ],
      "stateMutability": "view",
      "type": "function"
    },
    {
      "inputs": [
        {
          "internalType": "uint256",
          "name": "_amount",
          "type": "uint256"
        }
      ],
      "name": "seedRewards",
      "outputs": [],
      "stateMutability": "nonpayable",
      "type": "function"
    },
    {
      "inputs": [
        {
          "internalType": "address",
          "name": "_caviarManager",
          "type": "address"
        }
      ],
      "name": "setCaviarManager",
      "outputs": [],
      "stateMutability": "nonpayable",
      "type": "function"
    },
    {
      "inputs": [
        {
          "internalType": "uint256",
          "name": "_distributionPeriod",
          "type": "uint256"
        }
      ],
      "name": "setDistributionPeriod",
      "outputs": [],
      "stateMutability": "nonpayable",
      "type": "function"
    },
    {
      "inputs": [
        {
          "internalType": "address",
          "name": "_gaugeForLP",
          "type": "address"
        }
      ],
      "name": "setGaugeForLP",
      "outputs": [],
      "stateMutability": "nonpayable",
      "type": "function"
    },
    {
      "inputs": [
        {
          "internalType": "string",
          "name": "_name",
          "type": "string"
        }
      ],
      "name": "setName",
      "outputs": [],
      "stateMutability": "nonpayable",
      "type": "function"
    },
    {
      "inputs": [
        {
          "internalType": "address",
          "name": "_pearl",
          "type": "address"
        }
      ],
      "name": "setPearl",
      "outputs": [],
      "stateMutability": "nonpayable",
      "type": "function"
    },
    {
      "inputs": [
        {
          "internalType": "uint256",
          "name": "_rewardPerSecond",
          "type": "uint256"
        }
      ],
      "name": "setRewardPerSecond",
      "outputs": [],
      "stateMutability": "nonpayable",
      "type": "function"
    },
    {
      "inputs": [
        {
          "internalType": "address",
          "name": "_rewardToken",
          "type": "address"
        }
      ],
      "name": "setRewardToken",
      "outputs": [],
      "stateMutability": "nonpayable",
      "type": "function"
    },
    {
      "inputs": [
        {
          "internalType": "address",
          "name": "_underlying",
          "type": "address"
        }
      ],
      "name": "setUnderlyingToken",
      "outputs": [],
      "stateMutability": "nonpayable",
      "type": "function"
    },
    {
      "inputs": [],
      "name": "smartWalletChecker",
      "outputs": [
        {
          "internalType": "address",
          "name": "",
          "type": "address"
        }
      ],
      "stateMutability": "view",
      "type": "function"
    },
    {
      "inputs": [
        {
          "internalType": "address",
          "name": "newOwner",
          "type": "address"
        }
      ],
      "name": "transferOwnership",
      "outputs": [],
      "stateMutability": "nonpayable",
      "type": "function"
    },
    {
      "inputs": [],
      "name": "underlying",
      "outputs": [
        {
          "internalType": "contract IERC20",
          "name": "",
          "type": "address"
        }
      ],
      "stateMutability": "view",
      "type": "function"
    },
    {
      "inputs": [],
      "name": "underlyingTotalSupply",
      "outputs": [
        {
          "internalType": "uint256",
          "name": "",
          "type": "uint256"
        }
      ],
      "stateMutability": "view",
      "type": "function"
    },
    {
      "inputs": [
        {
          "internalType": "address",
          "name": "",
          "type": "address"
        }
      ],
      "name": "userInfo",
      "outputs": [
        {
          "internalType": "uint256",
          "name": "amount",
          "type": "uint256"
        },
        {
          "internalType": "int256",
          "name": "rewardDebt",
          "type": "int256"
        }
      ],
      "stateMutability": "view",
      "type": "function"
    },
    {
      "inputs": [
        {
          "internalType": "uint256",
          "name": "amount",
          "type": "uint256"
        },
        {
          "internalType": "address",
          "name": "to",
          "type": "address"
        }
      ],
      "name": "withdraw",
      "outputs": [],
      "stateMutability": "nonpayable",
      "type": "function"
    },
    {
      "inputs": [
        {
          "internalType": "uint256",
          "name": "amount",
          "type": "uint256"
        },
        {
          "internalType": "address",
          "name": "to",
          "type": "address"
        }
      ],
      "name": "withdrawAndHarvest",
      "outputs": [],
      "stateMutability": "nonpayable",
      "type": "function"
    }
  ],
  "transactionHash": "0xf763a66700d8f05a12e34c1c0ee91df0b969e48efa6cb1b2fd4eb5a9adf7cfd2",
  "args": [],
  "numDeployments": 6,
  "solcInputHash": "6c2a9fe06fb97f87329a85320378bcfa",
  "bytecode": "0x608060405234801561001057600080fd5b5061001961001e565b6100dd565b600054610100900460ff161561008a5760405162461bcd60e51b815260206004820152602760248201527f496e697469616c697a61626c653a20636f6e747261637420697320696e697469604482015266616c697a696e6760c81b606482015260840160405180910390fd5b60005460ff908116146100db576000805460ff191660ff9081179091556040519081527f7f26b83ff96e1f2b6a682f133852f6798a09c465da95921460cefb38474024989060200160405180910390a15b565b61248080620000ed6000396000f3fe608060405234801561001057600080fd5b50600436106102255760003560e01c80638aee81271161012a578063bec29caf116100bd578063dc19c4d81161008c578063f2fde38b11610071578063f2fde38b14610470578063f40f0f5214610483578063f7c618c11461049657600080fd5b8063dc19c4d814610448578063f1819bb51461045b57600080fd5b8063bec29caf14610407578063c1f3d9631461041a578063c47f00271461042d578063c482ceaf1461044057600080fd5b8063939d6237116100f9578063939d6237146103da5780639b501723146103e3578063a591a6f4146103ec578063b8a088ab146103f457600080fd5b80638aee8127146103a45780638da5cb5b146103b75780638f10369a146103c85780639231cf74146103d157600080fd5b80635f2855a2116101bd5780636e553f651161018c578063715018a611610171578063715018a6146103765780637710c6d81461037e5780637df148541461039157600080fd5b80636e553f65146103505780636f307dc31461036357600080fd5b80635f2855a21461030457806366da58151461031757806369af495b1461032a57806369fc48911461033d57600080fd5b80631959a002116101f95780631959a002146102955780632b4a6c51146102d1578063475c326a146102e45780634def1c82146102fb57600080fd5b8062f714ce1461022a5780630e5c011e1461023f57806310cc22c3146102525780631259088a14610282575b600080fd5b61023d610238366004611fac565b6104a9565b005b61023d61024d366004611fdc565b61060a565b60a154610265906001600160a01b031681565b6040516001600160a01b0390911681526020015b60405180910390f35b61023d61029036600461209c565b6106d8565b6102bc6102a3366004611fdc565b609c602052600090815260409020805460019091015482565b60408051928352602083019190915201610279565b61023d6102df366004611fdc565b6108a3565b6102ed60a45481565b604051908152602001610279565b6102ed609f5481565b61023d610312366004612142565b610919565b61023d610325366004612142565b610940565b61023d610338366004611fdc565b610984565b60a254610265906001600160a01b031681565b61023d61035e366004611fac565b6109fa565b609a54610265906001600160a01b031681565b61023d610bdc565b61023d61038c366004612142565b610bf0565b60a054610265906001600160a01b031681565b61023d6103b2366004611fdc565b610bfd565b6033546001600160a01b0316610265565b6102ed609d5481565b6102ed60985481565b6102ed60975481565b6102ed609e5481565b6102ed610c73565b61023d610402366004611fdc565b610e70565b61023d610415366004611fdc565b610ee6565b61023d610428366004611fac565b610f5c565b61023d61043b36600461215b565b6111bc565b61023d6111d0565b609b54610265906001600160a01b031681565b6104636113ca565b60405161027991906121b4565b61023d61047e366004611fdc565b611458565b6102ed610491366004611fdc565b6114e5565b609954610265906001600160a01b031681565b6104b16115bb565b6104b9611614565b336000908152609c60205260409081902060a15491517f2e1a7d4d0000000000000000000000000000000000000000000000000000000081526004810185905290916001600160a01b031690632e1a7d4d90602401600060405180830381600087803b15801561052857600080fd5b505af115801561053c573d6000803e3d6000fd5b50505050610576670de0b6b3a7640000610561609754866116f090919063ffffffff16565b61056b91906121fd565b600183015490611705565b6001820155805461058790846117ab565b815560a4805484919060009061059e90849061221f565b9091555050609a546105ba906001600160a01b031683856117b7565b6040518381526001600160a01b0383169033907f56c54ba9bd38d8fd62012e42c7ee564519b09763c426d331b3661b537ead19b2906020015b60405180910390a3506106066001606555565b5050565b6106126115bb565b61061a611614565b336000908152609c602052604081206097548154919291670de0b6b3a76400009161064591906116f0565b61064f91906121fd565b9050600061067261066d84600101548461170590919063ffffffff16565b61186c565b60018401839055609954909150610693906001600160a01b031685836117b7565b60405181815233907fc9695243a805adb74c91f28311176c65b417e842d5699893cef56d18bfa48cba9060200160405180910390a25050506106d56001606555565b50565b600054610100900460ff16158080156106f85750600054600160ff909116105b806107125750303b158015610712575060005460ff166001145b6107895760405162461bcd60e51b815260206004820152602e60248201527f496e697469616c697a61626c653a20636f6e747261637420697320616c72656160448201527f647920696e697469616c697a656400000000000000000000000000000000000060648201526084015b60405180910390fd5b600080547fffffffffffffffffffffffffffffffffffffffffffffffffffffffffffffff0016600117905580156107ca576000805461ff0019166101001790555b6107d26118c2565b6107da611935565b60a36107e689826122ba565b506099805473ffffffffffffffffffffffffffffffffffffffff199081166001600160a01b038a811691909117909255609e879055609a805482168984161790554260985560a280548216878416179055609b8054821686841617905560a180549091169184169190911790558015610899576000805461ff0019169055604051600181527f7f26b83ff96e1f2b6a682f133852f6798a09c465da95921460cefb38474024989060200160405180910390a15b5050505050505050565b6108ab6119a8565b6001600160a01b0381166108ea5760405162461bcd60e51b8152600401610780906020808252600490820152637a65726f60e01b604082015260600190565b609a805473ffffffffffffffffffffffffffffffffffffffff19166001600160a01b0392909216919091179055565b609954610931906001600160a01b0316333084611a02565b80156106d5576106d581611a59565b6109486119a8565b609d8190556040518181527fde89cb17ac7f58f94792b3e91e086ed85403819c24ceea882491f960ccb1a278906020015b60405180910390a150565b61098c6119a8565b6001600160a01b0381166109cb5760405162461bcd60e51b8152600401610780906020808252600490820152637a65726f60e01b604082015260600190565b609b805473ffffffffffffffffffffffffffffffffffffffff19166001600160a01b0392909216919091179055565b610a026115bb565b610a0a611614565b6001600160a01b0381166000908152609c602052604090208054610a2e9084611b0b565b8155609754610a6190670de0b6b3a764000090610a4c9086906116f0565b610a5691906121fd565b600183015490611b17565b6001820155609a54610a7e906001600160a01b0316333086611a02565b8260a46000828254610a90919061237a565b9091555050609a5460a1546040517f095ea7b30000000000000000000000000000000000000000000000000000000081526001600160a01b0391821660048201526024810186905291169063095ea7b3906044016020604051808303816000875af1158015610b03573d6000803e3d6000fd5b505050506040513d601f19601f82011682018060405250810190610b27919061238d565b5060a1546040517fb6b55f25000000000000000000000000000000000000000000000000000000008152600481018590526001600160a01b039091169063b6b55f2590602401600060405180830381600087803b158015610b8757600080fd5b505af1158015610b9b573d6000803e3d6000fd5b50506040518581526001600160a01b03851692503391507fe31c7b8d08ee7db0afa68782e1028ef92305caeea8626633ad44d413e30f6b2f906020016105f3565b610be46119a8565b610bee6000611bbe565b565b610bf86119a8565b609e55565b610c056119a8565b6001600160a01b038116610c445760405162461bcd60e51b8152600401610780906020808252600490820152637a65726f60e01b604082015260600190565b6099805473ffffffffffffffffffffffffffffffffffffffff19166001600160a01b0392909216919091179055565b60a2546000906001600160a01b03163314610cd05760405162461bcd60e51b815260206004820152600b60248201527f41757468206661696c65640000000000000000000000000000000000000000006044820152606401610780565b609b546040516370a0823160e01b81523060048201526000916001600160a01b0316906370a0823190602401602060405180830381865afa158015610d19573d6000803e3d6000fd5b505050506040513d601f19601f82011682018060405250810190610d3d91906123af565b905060a160009054906101000a90046001600160a01b03166001600160a01b0316633d18b9126040518163ffffffff1660e01b8152600401600060405180830381600087803b158015610d8f57600080fd5b505af1158015610da3573d6000803e3d6000fd5b5050609b546040516370a0823160e01b81523060048201528493506001600160a01b0390911691506370a0823190602401602060405180830381865afa158015610df1573d6000803e3d6000fd5b505050506040513d601f19601f82011682018060405250810190610e1591906123af565b610e1f919061221f565b609b54909250610e39906001600160a01b031633846117b7565b6040518281527f6ddf4f715c011632797e1b041a057f50b807fa783260c1f18fc84f6529f833ec9060200160405180910390a15090565b610e786119a8565b6001600160a01b038116610eb75760405162461bcd60e51b8152600401610780906020808252600490820152637a65726f60e01b604082015260600190565b60a2805473ffffffffffffffffffffffffffffffffffffffff19166001600160a01b0392909216919091179055565b610eee6119a8565b6001600160a01b038116610f2d5760405162461bcd60e51b8152600401610780906020808252600490820152637a65726f60e01b604082015260600190565b60a1805473ffffffffffffffffffffffffffffffffffffffff19166001600160a01b0392909216919091179055565b610f646115bb565b610f6c611614565b336000908152609c602052604090208054831115610ff25760405162461bcd60e51b815260206004820152602d60248201527f576974686472617720616d6f756e74206578636565647320746865206465706f60448201527f736974656420616d6f756e742e000000000000000000000000000000000000006064820152608401610780565b6097548154600091670de0b6b3a76400009161100d916116f0565b61101791906121fd565b9050600061103561066d84600101548461170590919063ffffffff16565b60a1546040517f2e1a7d4d000000000000000000000000000000000000000000000000000000008152600481018890529192506001600160a01b031690632e1a7d4d90602401600060405180830381600087803b15801561109557600080fd5b505af11580156110a9573d6000803e3d6000fd5b505050506110df670de0b6b3a76400006110ce609754886116f090919063ffffffff16565b6110d891906121fd565b8390611705565b600184015582546110f090866117ab565b835560a4805486919060009061110790849061221f565b9091555050609954611123906001600160a01b031685836117b7565b609a5461113a906001600160a01b031685876117b7565b6040518581526001600160a01b0385169033907f56c54ba9bd38d8fd62012e42c7ee564519b09763c426d331b3661b537ead19b29060200160405180910390a360405181815233907fc9695243a805adb74c91f28311176c65b417e842d5699893cef56d18bfa48cba9060200160405180910390a25050506106066001606555565b6111c46119a8565b60a361060682826122ba565b6111d86119a8565b609a546040516370a0823160e01b81523060048201526000916001600160a01b0316906370a0823190602401602060405180830381865afa158015611221573d6000803e3d6000fd5b505050506040513d601f19601f8201168201806040525081019061124591906123af565b9050801561135857609a5460a1546040517f095ea7b30000000000000000000000000000000000000000000000000000000081526001600160a01b0391821660048201526024810184905291169063095ea7b3906044016020604051808303816000875af11580156112bb573d6000803e3d6000fd5b505050506040513d601f19601f820116820180604052508101906112df919061238d565b5060a1546040517fb6b55f25000000000000000000000000000000000000000000000000000000008152600481018390526001600160a01b039091169063b6b55f2590602401600060405180830381600087803b15801561133f57600080fd5b505af1158015611353573d6000803e3d6000fd5b505050505b60a1546040516370a0823160e01b81523060048201526001600160a01b03909116906370a0823190602401602060405180830381865afa1580156113a0573d6000803e3d6000fd5b505050506040513d601f19601f820116820180604052508101906113c491906123af565b60a45550565b60a380546113d790612232565b80601f016020809104026020016040519081016040528092919081815260200182805461140390612232565b80156114505780601f1061142557610100808354040283529160200191611450565b820191906000526020600020905b81548152906001019060200180831161143357829003601f168201915b505050505081565b6114606119a8565b6001600160a01b0381166114dc5760405162461bcd60e51b815260206004820152602660248201527f4f776e61626c653a206e6577206f776e657220697320746865207a65726f206160448201527f64647265737300000000000000000000000000000000000000000000000000006064820152608401610780565b6106d581611bbe565b6001600160a01b0381166000908152609c60205260408120609754609f54839042116115115742611515565b609f545b905060985481111561157f5760985461152f9082906117ab565b90506000611548609d54836116f090919063ffffffff16565b905061157b61157460a45461156e670de0b6b3a7640000856116f090919063ffffffff16565b90611c1d565b8490611b0b565b9250505b600183015483546115b29161066d91670de0b6b3a7640000906115a290876116f0565b6115ac91906121fd565b90611705565b95945050505050565b60026065540361160d5760405162461bcd60e51b815260206004820152601f60248201527f5265656e7472616e637947756172643a207265656e7472616e742063616c6c006044820152606401610780565b6002606555565b609854421115610bee5760a454156116a4576000609f544211611637574261163b565b609f545b90506098548111156116a2576098546116559082906117ab565b9050600061166e609d54836116f090919063ffffffff16565b905061169d61169460a45461156e670de0b6b3a7640000856116f090919063ffffffff16565b60975490611b0b565b609755505b505b42609881905560a45460975460408051938452602084019290925282820152517f1f2d1a9fde053af46b5db3dc92a8aa8696e56a677998fdd1311b45be341f78539181900360600190a1565b60006116fc82846123c8565b90505b92915050565b60008061171283856123df565b9050600083121580156117255750838113155b8061173a575060008312801561173a57508381135b6116fc5760405162461bcd60e51b8152602060048201526024808201527f5369676e6564536166654d6174683a207375627472616374696f6e206f76657260448201527f666c6f77000000000000000000000000000000000000000000000000000000006064820152608401610780565b60006116fc828461221f565b6040516001600160a01b0383166024820152604481018290526118609084907fa9059cbb00000000000000000000000000000000000000000000000000000000906064015b60408051601f198184030181529190526020810180517bffffffffffffffffffffffffffffffffffffffffffffffffffffffff167fffffffff0000000000000000000000000000000000000000000000000000000090931692909217909152611c29565b505050565b6001606555565b6000808212156118be5760405162461bcd60e51b815260206004820152600b60248201527f496e7465676572203c20300000000000000000000000000000000000000000006044820152606401610780565b5090565b600054610100900460ff1661192d5760405162461bcd60e51b815260206004820152602b60248201527f496e697469616c697a61626c653a20636f6e7472616374206973206e6f74206960448201526a6e697469616c697a696e6760a81b6064820152608401610780565b610bee611d11565b600054610100900460ff166119a05760405162461bcd60e51b815260206004820152602b60248201527f496e697469616c697a61626c653a20636f6e7472616374206973206e6f74206960448201526a6e697469616c697a696e6760a81b6064820152608401610780565b610bee611d85565b6033546001600160a01b03163314610bee5760405162461bcd60e51b815260206004820181905260248201527f4f776e61626c653a2063616c6c6572206973206e6f7420746865206f776e65726044820152606401610780565b6040516001600160a01b0380851660248301528316604482015260648101829052611a539085907f23b872dd00000000000000000000000000000000000000000000000000000000906084016117fc565b50505050565b611a61611614565b6000609f54118015611a745750609f5442105b15611aae57609f54600090611a8990426117ab565b9050611aaa611aa382609d546116f090919063ffffffff16565b8390611b0b565b9150505b609e54611abc908290611c1d565b609d55609e54611acd904290611b0b565b609f55611ad8611614565b7fde89cb17ac7f58f94792b3e91e086ed85403819c24ceea882491f960ccb1a278609d5460405161097991815260200190565b60006116fc828461237a565b600080611b248385612406565b905060008312158015611b375750838112155b80611b4c5750600083128015611b4c57508381125b6116fc5760405162461bcd60e51b815260206004820152602160248201527f5369676e6564536166654d6174683a206164646974696f6e206f766572666c6f60448201527f77000000000000000000000000000000000000000000000000000000000000006064820152608401610780565b603380546001600160a01b0383811673ffffffffffffffffffffffffffffffffffffffff19831681179093556040519116919082907f8be0079c531659141344cd1fd0a4f28419497f9722a3daafe3b4186f6b6457e090600090a35050565b60006116fc82846121fd565b6000611c7e826040518060400160405280602081526020017f5361666545524332303a206c6f772d6c6576656c2063616c6c206661696c6564815250856001600160a01b0316611df09092919063ffffffff16565b9050805160001480611c9f575080806020019051810190611c9f919061238d565b6118605760405162461bcd60e51b815260206004820152602a60248201527f5361666545524332303a204552433230206f7065726174696f6e20646964206e60448201527f6f742073756363656564000000000000000000000000000000000000000000006064820152608401610780565b600054610100900460ff16611d7c5760405162461bcd60e51b815260206004820152602b60248201527f496e697469616c697a61626c653a20636f6e7472616374206973206e6f74206960448201526a6e697469616c697a696e6760a81b6064820152608401610780565b610bee33611bbe565b600054610100900460ff166118655760405162461bcd60e51b815260206004820152602b60248201527f496e697469616c697a61626c653a20636f6e7472616374206973206e6f74206960448201526a6e697469616c697a696e6760a81b6064820152608401610780565b6060611dff8484600085611e07565b949350505050565b606082471015611e7f5760405162461bcd60e51b815260206004820152602660248201527f416464726573733a20696e73756666696369656e742062616c616e636520666f60448201527f722063616c6c00000000000000000000000000000000000000000000000000006064820152608401610780565b600080866001600160a01b03168587604051611e9b919061242e565b60006040518083038185875af1925050503d8060008114611ed8576040519150601f19603f3d011682016040523d82523d6000602084013e611edd565b606091505b5091509150611eee87838387611ef9565b979650505050505050565b60608315611f68578251600003611f61576001600160a01b0385163b611f615760405162461bcd60e51b815260206004820152601d60248201527f416464726573733a2063616c6c20746f206e6f6e2d636f6e74726163740000006044820152606401610780565b5081611dff565b611dff8383815115611f7d5781518083602001fd5b8060405162461bcd60e51b815260040161078091906121b4565b6001600160a01b03811681146106d557600080fd5b60008060408385031215611fbf57600080fd5b823591506020830135611fd181611f97565b809150509250929050565b600060208284031215611fee57600080fd5b81356116fc81611f97565b634e487b7160e01b600052604160045260246000fd5b600082601f83011261202057600080fd5b813567ffffffffffffffff8082111561203b5761203b611ff9565b604051601f8301601f19908116603f0116810190828211818310171561206357612063611ff9565b8160405283815286602085880101111561207c57600080fd5b836020870160208301376000602085830101528094505050505092915050565b600080600080600080600060e0888a0312156120b757600080fd5b873567ffffffffffffffff8111156120ce57600080fd5b6120da8a828b0161200f565b97505060208801356120eb81611f97565b955060408801356120fb81611f97565b945060608801359350608088013561211281611f97565b925060a088013561212281611f97565b915060c088013561213281611f97565b8091505092959891949750929550565b60006020828403121561215457600080fd5b5035919050565b60006020828403121561216d57600080fd5b813567ffffffffffffffff81111561218457600080fd5b611dff8482850161200f565b60005b838110156121ab578181015183820152602001612193565b50506000910152565b60208152600082518060208401526121d3816040850160208701612190565b601f01601f19169190910160400192915050565b634e487b7160e01b600052601160045260246000fd5b60008261221a57634e487b7160e01b600052601260045260246000fd5b500490565b818103818111156116ff576116ff6121e7565b600181811c9082168061224657607f821691505b60208210810361226657634e487b7160e01b600052602260045260246000fd5b50919050565b601f82111561186057600081815260208120601f850160051c810160208610156122935750805b601f850160051c820191505b818110156122b25782815560010161229f565b505050505050565b815167ffffffffffffffff8111156122d4576122d4611ff9565b6122e8816122e28454612232565b8461226c565b602080601f83116001811461231d57600084156123055750858301515b600019600386901b1c1916600185901b1785556122b2565b600085815260208120601f198616915b8281101561234c5788860151825594840194600190910190840161232d565b508582101561236a5787850151600019600388901b60f8161c191681555b5050505050600190811b01905550565b808201808211156116ff576116ff6121e7565b60006020828403121561239f57600080fd5b815180151581146116fc57600080fd5b6000602082840312156123c157600080fd5b5051919050565b80820281158282048414176116ff576116ff6121e7565b81810360008312801583831316838312821617156123ff576123ff6121e7565b5092915050565b8082018281126000831280158216821582161715612426576124266121e7565b505092915050565b60008251612440818460208701612190565b919091019291505056fea2646970667358221220eca74c1c903b4de87f6495fa3c6b62cc8833a0ed111782a9176169eb966f60e364736f6c63430008130033",
  "devdoc": {
    "events": {
      "Initialized(uint8)": {
        "details": "Triggered when the contract has been initialized or reinitialized."
      }
    },
    "kind": "dev",
    "methods": {
      "owner()": {
        "details": "Returns the address of the current owner."
      },
      "renounceOwnership()": {
        "details": "Leaves the contract without owner. It will not be possible to call `onlyOwner` functions. Can only be called by the current owner. NOTE: Renouncing ownership will leave the contract without an owner, thereby disabling any functionality that is only available to the owner."
      },
      "setRewardPerSecond(uint256)": {
        "params": {
          "_rewardPerSecond": "The amount of Reward to be distributed per second."
        }
      },
      "transferOwnership(address)": {
        "details": "Transfers ownership of the contract to a new account (`newOwner`). Can only be called by the current owner."
      }
    },
    "version": 1
  },
  "userdoc": {
    "kind": "user",
    "methods": {
      "pearl()": {
        "notice": "Address of the Pearl token which is reveived when claiming emissions."
      },
      "rewardToken()": {
        "notice": "Address of rewardToken contract."
      },
      "setRewardPerSecond(uint256)": {
        "notice": "Sets the reward per second to be distributed. Can only be called by the owner."
      },
      "underlying()": {
        "notice": "Address of the LP token for each MCV2 pool."
      },
      "userInfo(address)": {
        "notice": "Info of each user that stakes LP tokens."
      }
    },
    "version": 1
  },
  "storageLayout": {
    "storage": [
      {
        "astId": 138,
        "contract": "contracts/CaviarLPChef.sol:CaviarLPChef",
        "label": "_initialized",
        "offset": 0,
        "slot": "0",
        "type": "t_uint8"
      },
      {
        "astId": 141,
        "contract": "contracts/CaviarLPChef.sol:CaviarLPChef",
        "label": "_initializing",
        "offset": 1,
        "slot": "0",
        "type": "t_bool"
      },
      {
        "astId": 1882,
        "contract": "contracts/CaviarLPChef.sol:CaviarLPChef",
        "label": "__gap",
        "offset": 0,
        "slot": "1",
        "type": "t_array(t_uint256)50_storage"
      },
      {
        "astId": 10,
        "contract": "contracts/CaviarLPChef.sol:CaviarLPChef",
        "label": "_owner",
        "offset": 0,
        "slot": "51",
        "type": "t_address"
      },
      {
        "astId": 130,
        "contract": "contracts/CaviarLPChef.sol:CaviarLPChef",
        "label": "__gap",
        "offset": 0,
        "slot": "52",
        "type": "t_array(t_uint256)49_storage"
      },
      {
        "astId": 314,
        "contract": "contracts/CaviarLPChef.sol:CaviarLPChef",
        "label": "_status",
        "offset": 0,
        "slot": "101",
        "type": "t_uint256"
      },
      {
        "astId": 383,
        "contract": "contracts/CaviarLPChef.sol:CaviarLPChef",
        "label": "__gap",
        "offset": 0,
        "slot": "102",
        "type": "t_array(t_uint256)49_storage"
      },
      {
        "astId": 9467,
        "contract": "contracts/CaviarLPChef.sol:CaviarLPChef",
        "label": "accRewardPerShare",
        "offset": 0,
        "slot": "151",
        "type": "t_uint256"
      },
      {
        "astId": 9469,
        "contract": "contracts/CaviarLPChef.sol:CaviarLPChef",
        "label": "lastRewardTime",
        "offset": 0,
        "slot": "152",
        "type": "t_uint256"
      },
      {
        "astId": 9473,
        "contract": "contracts/CaviarLPChef.sol:CaviarLPChef",
        "label": "rewardToken",
        "offset": 0,
        "slot": "153",
        "type": "t_contract(IERC20)3028"
      },
      {
        "astId": 9477,
        "contract": "contracts/CaviarLPChef.sol:CaviarLPChef",
        "label": "underlying",
        "offset": 0,
        "slot": "154",
        "type": "t_contract(IERC20)3028"
      },
      {
        "astId": 9481,
        "contract": "contracts/CaviarLPChef.sol:CaviarLPChef",
        "label": "pearl",
        "offset": 0,
        "slot": "155",
        "type": "t_contract(IERC20)3028"
      },
      {
        "astId": 9487,
        "contract": "contracts/CaviarLPChef.sol:CaviarLPChef",
        "label": "userInfo",
        "offset": 0,
        "slot": "156",
        "type": "t_mapping(t_address,t_struct(UserInfo)9462_storage)"
      },
      {
        "astId": 9489,
        "contract": "contracts/CaviarLPChef.sol:CaviarLPChef",
        "label": "rewardPerSecond",
        "offset": 0,
        "slot": "157",
        "type": "t_uint256"
      },
      {
        "astId": 9491,
        "contract": "contracts/CaviarLPChef.sol:CaviarLPChef",
        "label": "distributionPeriod",
        "offset": 0,
        "slot": "158",
        "type": "t_uint256"
      },
      {
        "astId": 9493,
        "contract": "contracts/CaviarLPChef.sol:CaviarLPChef",
        "label": "lastDistributedTime",
        "offset": 0,
        "slot": "159",
        "type": "t_uint256"
      },
      {
        "astId": 9495,
        "contract": "contracts/CaviarLPChef.sol:CaviarLPChef",
        "label": "smartWalletChecker",
        "offset": 0,
        "slot": "160",
        "type": "t_address"
      },
      {
        "astId": 9497,
        "contract": "contracts/CaviarLPChef.sol:CaviarLPChef",
        "label": "gaugeForLP",
        "offset": 0,
        "slot": "161",
        "type": "t_address"
      },
      {
        "astId": 9499,
        "contract": "contracts/CaviarLPChef.sol:CaviarLPChef",
        "label": "caviarManager",
        "offset": 0,
        "slot": "162",
        "type": "t_address"
      },
      {
        "astId": 9539,
        "contract": "contracts/CaviarLPChef.sol:CaviarLPChef",
        "label": "__NAME__",
        "offset": 0,
        "slot": "163",
        "type": "t_string_storage"
      },
      {
        "astId": 9541,
        "contract": "contracts/CaviarLPChef.sol:CaviarLPChef",
        "label": "underlyingTotalSupply",
        "offset": 0,
        "slot": "164",
        "type": "t_uint256"
      }
    ],
    "types": {
      "t_address": {
        "encoding": "inplace",
        "label": "address",
        "numberOfBytes": "20"
      },
      "t_array(t_uint256)49_storage": {
        "base": "t_uint256",
        "encoding": "inplace",
        "label": "uint256[49]",
        "numberOfBytes": "1568"
      },
      "t_array(t_uint256)50_storage": {
        "base": "t_uint256",
        "encoding": "inplace",
        "label": "uint256[50]",
        "numberOfBytes": "1600"
      },
      "t_bool": {
        "encoding": "inplace",
        "label": "bool",
        "numberOfBytes": "1"
      },
      "t_contract(IERC20)3028": {
        "encoding": "inplace",
        "label": "contract IERC20",
        "numberOfBytes": "20"
      },
      "t_int256": {
        "encoding": "inplace",
        "label": "int256",
        "numberOfBytes": "32"
      },
      "t_mapping(t_address,t_struct(UserInfo)9462_storage)": {
        "encoding": "mapping",
        "key": "t_address",
        "label": "mapping(address => struct CaviarLPChef.UserInfo)",
        "numberOfBytes": "32",
        "value": "t_struct(UserInfo)9462_storage"
      },
      "t_string_storage": {
        "encoding": "bytes",
        "label": "string",
        "numberOfBytes": "32"
      },
      "t_struct(UserInfo)9462_storage": {
        "encoding": "inplace",
        "label": "struct CaviarLPChef.UserInfo",
        "members": [
          {
            "astId": 9459,
            "contract": "contracts/CaviarLPChef.sol:CaviarLPChef",
            "label": "amount",
            "offset": 0,
            "slot": "0",
            "type": "t_uint256"
          },
          {
            "astId": 9461,
            "contract": "contracts/CaviarLPChef.sol:CaviarLPChef",
            "label": "rewardDebt",
            "offset": 0,
            "slot": "1",
            "type": "t_int256"
          }
        ],
        "numberOfBytes": "64"
      },
      "t_uint256": {
        "encoding": "inplace",
        "label": "uint256",
        "numberOfBytes": "32"
      },
      "t_uint8": {
        "encoding": "inplace",
        "label": "uint8",
        "numberOfBytes": "1"
      }
    }
  }
}