{
  "address": "0xa0F834fd21cC5d8E39b13A96432514D345301048",
  "abi": [
    {
      "inputs": [],
      "stateMutability": "nonpayable",
      "type": "constructor"
    },
    {
      "anonymous": false,
      "inputs": [
        {
          "indexed": true,
          "internalType": "address",
          "name": "sender",
          "type": "address"
        },
        {
          "indexed": false,
          "internalType": "uint256",
          "name": "amount",
          "type": "uint256"
        }
      ],
      "name": "Deposit",
      "type": "event"
    },
    {
      "anonymous": false,
      "inputs": [
        {
          "indexed": true,
          "internalType": "address",
          "name": "sender",
          "type": "address"
        },
        {
          "indexed": false,
          "internalType": "uint256",
          "name": "tokenId",
          "type": "uint256"
        },
        {
          "indexed": false,
          "internalType": "uint256",
          "name": "amount",
          "type": "uint256"
        }
      ],
      "name": "DepositNFT",
      "type": "event"
    },
    {
      "anonymous": false,
      "inputs": [],
      "name": "DisableVePearlDeposit",
      "type": "event"
    },
    {
      "anonymous": false,
      "inputs": [
        {
          "indexed": false,
          "internalType": "uint256",
          "name": "amount",
          "type": "uint256"
        }
      ],
      "name": "EmissionsClaimed",
      "type": "event"
    },
    {
      "anonymous": false,
      "inputs": [],
      "name": "EnableVePearlDeposit",
      "type": "event"
    },
    {
      "anonymous": false,
      "inputs": [
        {
          "indexed": false,
          "internalType": "uint256",
          "name": "amount",
          "type": "uint256"
        }
      ],
      "name": "IncreaseAmount",
      "type": "event"
    },
    {
      "anonymous": false,
      "inputs": [
        {
          "indexed": false,
          "internalType": "uint256",
          "name": "unlockTime",
          "type": "uint256"
        }
      ],
      "name": "InitialLock",
      "type": "event"
    },
    {
      "anonymous": false,
      "inputs": [
        {
          "indexed": false,
          "internalType": "uint8",
          "name": "version",
          "type": "uint8"
        }
      ],
      "name": "Initialized",
      "type": "event"
    },
    {
      "anonymous": false,
      "inputs": [
        {
          "indexed": true,
          "internalType": "address",
          "name": "keeper",
          "type": "address"
        }
      ],
      "name": "KeeperAdded",
      "type": "event"
    },
    {
      "anonymous": false,
      "inputs": [
        {
          "indexed": true,
          "internalType": "address",
          "name": "keeper",
          "type": "address"
        }
      ],
      "name": "KeeperRemoved",
      "type": "event"
    },
    {
      "anonymous": false,
      "inputs": [
        {
          "indexed": true,
          "internalType": "address",
          "name": "previousOwner",
          "type": "address"
        },
        {
          "indexed": true,
          "internalType": "address",
          "name": "newOwner",
          "type": "address"
        }
      ],
      "name": "OwnershipTransferred",
      "type": "event"
    },
    {
      "anonymous": false,
      "inputs": [
        {
          "indexed": false,
          "internalType": "uint256",
          "name": "amount",
          "type": "uint256"
        }
      ],
      "name": "Rebase",
      "type": "event"
    },
    {
      "anonymous": false,
      "inputs": [
        {
          "indexed": true,
          "internalType": "address",
          "name": "sender",
          "type": "address"
        },
        {
          "indexed": false,
          "internalType": "uint256",
          "name": "amount",
          "type": "uint256"
        },
        {
          "indexed": false,
          "internalType": "uint256",
          "name": "redeemed",
          "type": "uint256"
        }
      ],
      "name": "Redeem",
      "type": "event"
    },
    {
      "anonymous": false,
      "inputs": [
        {
          "indexed": false,
          "internalType": "uint256",
          "name": "timestamp",
          "type": "uint256"
        }
      ],
      "name": "SetBeginTimestamp",
      "type": "event"
    },
    {
      "anonymous": false,
      "inputs": [
        {
          "indexed": false,
          "internalType": "address",
          "name": "pearl",
          "type": "address"
        }
      ],
      "name": "SetPearl",
      "type": "event"
    },
    {
      "anonymous": false,
      "inputs": [
        {
          "indexed": false,
          "internalType": "address",
          "name": "pair",
          "type": "address"
        }
      ],
      "name": "SetPearlPair",
      "type": "event"
    },
    {
      "anonymous": false,
      "inputs": [
        {
          "indexed": false,
          "internalType": "bool",
          "name": "set",
          "type": "bool"
        },
        {
          "indexed": false,
          "internalType": "uint256",
          "name": "fee",
          "type": "uint256"
        }
      ],
      "name": "SetPromotionPeriod",
      "type": "event"
    },
    {
      "inputs": [],
      "name": "MAXTIME",
      "outputs": [
        {
          "internalType": "uint256",
          "name": "",
          "type": "uint256"
        }
      ],
      "stateMutability": "view",
      "type": "function"
    },
    {
      "inputs": [],
      "name": "MAX_VE_DEPOSIT_FEE",
      "outputs": [
        {
          "internalType": "uint256",
          "name": "",
          "type": "uint256"
        }
      ],
      "stateMutability": "view",
      "type": "function"
    },
    {
      "inputs": [],
      "name": "MIN_VE_DEPOSIT_FEE",
      "outputs": [
        {
          "internalType": "uint256",
          "name": "",
          "type": "uint256"
        }
      ],
      "stateMutability": "view",
      "type": "function"
    },
    {
      "inputs": [],
      "name": "MULTIPLIER",
      "outputs": [
        {
          "internalType": "uint256",
          "name": "",
          "type": "uint256"
        }
      ],
      "stateMutability": "view",
      "type": "function"
    },
    {
      "inputs": [],
      "name": "PROMO_VE_DEPOSIT_FEE",
      "outputs": [
        {
          "internalType": "uint256",
          "name": "",
          "type": "uint256"
        }
      ],
      "stateMutability": "view",
      "type": "function"
    },
    {
      "inputs": [],
      "name": "REDEEM_FEE",
      "outputs": [
        {
          "internalType": "uint256",
          "name": "",
          "type": "uint256"
        }
      ],
      "stateMutability": "view",
      "type": "function"
    },
    {
      "inputs": [],
      "name": "WEEK",
      "outputs": [
        {
          "internalType": "uint256",
          "name": "",
          "type": "uint256"
        }
      ],
      "stateMutability": "view",
      "type": "function"
    },
    {
      "inputs": [],
      "name": "__NAME__",
      "outputs": [
        {
          "internalType": "string",
          "name": "",
          "type": "string"
        }
      ],
      "stateMutability": "view",
      "type": "function"
    },
    {
      "inputs": [
        {
          "internalType": "address",
          "name": "_keeper",
          "type": "address"
        }
      ],
      "name": "addKeeper",
      "outputs": [],
      "stateMutability": "nonpayable",
      "type": "function"
    },
    {
      "inputs": [],
      "name": "beginTimestamp",
      "outputs": [
        {
          "internalType": "uint256",
          "name": "",
          "type": "uint256"
        }
      ],
      "stateMutability": "view",
      "type": "function"
    },
    {
      "inputs": [],
      "name": "caviar",
      "outputs": [
        {
          "internalType": "address",
          "name": "",
          "type": "address"
        }
      ],
      "stateMutability": "view",
      "type": "function"
    },
    {
      "inputs": [],
      "name": "caviarSupplyAtCurrentEpoch",
      "outputs": [
        {
          "internalType": "uint256",
          "name": "",
          "type": "uint256"
        }
      ],
      "stateMutability": "view",
      "type": "function"
    },
    {
      "inputs": [],
      "name": "claimLPRewards",
      "outputs": [
        {
          "internalType": "uint256",
          "name": "",
          "type": "uint256"
        }
      ],
      "stateMutability": "nonpayable",
      "type": "function"
    },
    {
      "inputs": [
        {
          "internalType": "uint256",
          "name": "_amount",
          "type": "uint256"
        }
      ],
      "name": "deposit",
      "outputs": [],
      "stateMutability": "nonpayable",
      "type": "function"
    },
    {
      "inputs": [],
      "name": "depositAll",
      "outputs": [],
      "stateMutability": "nonpayable",
      "type": "function"
    },
    {
      "inputs": [
        {
          "internalType": "uint256",
          "name": "_tokenId",
          "type": "uint256"
        }
      ],
      "name": "depositNFT",
      "outputs": [],
      "stateMutability": "nonpayable",
      "type": "function"
    },
    {
      "inputs": [],
      "name": "disableRedeem",
      "outputs": [],
      "stateMutability": "nonpayable",
      "type": "function"
    },
    {
      "inputs": [],
      "name": "disableVePearlDeposit",
      "outputs": [],
      "stateMutability": "nonpayable",
      "type": "function"
    },
    {
      "inputs": [],
      "name": "enableRedeem",
      "outputs": [],
      "stateMutability": "nonpayable",
      "type": "function"
    },
    {
      "inputs": [],
      "name": "enableVePearlDeposit",
      "outputs": [],
      "stateMutability": "nonpayable",
      "type": "function"
    },
    {
      "inputs": [],
      "name": "feeManager",
      "outputs": [
        {
          "internalType": "address",
          "name": "",
          "type": "address"
        }
      ],
      "stateMutability": "view",
      "type": "function"
    },
    {
      "inputs": [],
      "name": "getCurrentDepositFee",
      "outputs": [
        {
          "internalType": "uint256",
          "name": "",
          "type": "uint256"
        }
      ],
      "stateMutability": "view",
      "type": "function"
    },
    {
      "inputs": [],
      "name": "getCurrentEpoch",
      "outputs": [
        {
          "internalType": "uint256",
          "name": "_epoch",
          "type": "uint256"
        }
      ],
      "stateMutability": "view",
      "type": "function"
    },
    {
      "inputs": [
        {
          "internalType": "string",
          "name": "_name",
          "type": "string"
        },
        {
          "internalType": "address",
          "name": "_strategy",
          "type": "address"
        },
        {
          "internalType": "address",
          "name": "_caviar",
          "type": "address"
        },
        {
          "internalType": "address",
          "name": "_pearl",
          "type": "address"
        },
        {
          "internalType": "address",
          "name": "_vePearl",
          "type": "address"
        },
        {
          "internalType": "address",
          "name": "_pearlPair",
          "type": "address"
        },
        {
          "internalType": "address",
          "name": "_feeManager",
          "type": "address"
        },
        {
          "internalType": "uint256",
          "name": "_lockingYear",
          "type": "uint256"
        }
      ],
      "name": "initialize",
      "outputs": [],
      "stateMutability": "nonpayable",
      "type": "function"
    },
    {
      "inputs": [
        {
          "internalType": "address",
          "name": "",
          "type": "address"
        }
      ],
      "name": "isKeeper",
      "outputs": [
        {
          "internalType": "bool",
          "name": "",
          "type": "bool"
        }
      ],
      "stateMutability": "view",
      "type": "function"
    },
    {
      "inputs": [],
      "name": "isPromotionPeriod",
      "outputs": [
        {
          "internalType": "bool",
          "name": "",
          "type": "bool"
        }
      ],
      "stateMutability": "view",
      "type": "function"
    },
    {
      "inputs": [
        {
          "internalType": "uint256",
          "name": "",
          "type": "uint256"
        }
      ],
      "name": "mintedFromNftAt",
      "outputs": [
        {
          "internalType": "uint256",
          "name": "",
          "type": "uint256"
        }
      ],
      "stateMutability": "view",
      "type": "function"
    },
    {
      "inputs": [],
      "name": "owner",
      "outputs": [
        {
          "internalType": "address",
          "name": "",
          "type": "address"
        }
      ],
      "stateMutability": "view",
      "type": "function"
    },
    {
      "inputs": [],
      "name": "pearl",
      "outputs": [
        {
          "internalType": "address",
          "name": "",
          "type": "address"
        }
      ],
      "stateMutability": "view",
      "type": "function"
    },
    {
      "inputs": [],
      "name": "pearlPair",
      "outputs": [
        {
          "internalType": "address",
          "name": "",
          "type": "address"
        }
      ],
      "stateMutability": "view",
      "type": "function"
    },
    {
      "inputs": [],
      "name": "rebase",
      "outputs": [
        {
          "internalType": "uint256",
          "name": "",
          "type": "uint256"
        }
      ],
      "stateMutability": "nonpayable",
      "type": "function"
    },
    {
      "inputs": [
        {
          "internalType": "uint256",
          "name": "_amount",
          "type": "uint256"
        }
      ],
      "name": "redeem",
      "outputs": [],
      "stateMutability": "nonpayable",
      "type": "function"
    },
    {
      "inputs": [],
      "name": "redeemEnabled",
      "outputs": [
        {
          "internalType": "bool",
          "name": "",
          "type": "bool"
        }
      ],
      "stateMutability": "view",
      "type": "function"
    },
    {
      "inputs": [
        {
          "internalType": "address",
          "name": "_keeper",
          "type": "address"
        }
      ],
      "name": "removeKeeper",
      "outputs": [],
      "stateMutability": "nonpayable",
      "type": "function"
    },
    {
      "inputs": [],
      "name": "renounceOwnership",
      "outputs": [],
      "stateMutability": "nonpayable",
      "type": "function"
    },
    {
      "inputs": [
        {
          "internalType": "uint256",
          "name": "_timestamp",
          "type": "uint256"
        }
      ],
      "name": "setBeginTimestamp",
      "outputs": [],
      "stateMutability": "nonpayable",
      "type": "function"
    },
    {
      "inputs": [
        {
          "internalType": "address",
          "name": "_pearl",
          "type": "address"
        }
      ],
      "name": "setPearl",
      "outputs": [],
      "stateMutability": "nonpayable",
      "type": "function"
    },
    {
      "inputs": [
        {
          "internalType": "address",
          "name": "_pair",
          "type": "address"
        }
      ],
      "name": "setPearlPair",
      "outputs": [],
      "stateMutability": "nonpayable",
      "type": "function"
    },
    {
      "inputs": [
        {
          "internalType": "bool",
          "name": "_isPromotionPeriod",
          "type": "bool"
        },
        {
          "internalType": "uint256",
          "name": "_depositFee",
          "type": "uint256"
        }
      ],
      "name": "setPromotionPeriod",
      "outputs": [],
      "stateMutability": "nonpayable",
      "type": "function"
    },
    {
      "inputs": [
        {
          "internalType": "address",
          "name": "_vePearl",
          "type": "address"
        }
      ],
      "name": "setVEPearl",
      "outputs": [],
      "stateMutability": "nonpayable",
      "type": "function"
    },
    {
      "inputs": [],
      "name": "smartWalletWhitelist",
      "outputs": [
        {
          "internalType": "address",
          "name": "",
          "type": "address"
        }
      ],
      "stateMutability": "view",
      "type": "function"
    },
    {
      "inputs": [],
      "name": "strategy",
      "outputs": [
        {
          "internalType": "address",
          "name": "",
          "type": "address"
        }
      ],
      "stateMutability": "view",
      "type": "function"
    },
    {
      "inputs": [
        {
          "internalType": "address",
          "name": "newOwner",
          "type": "address"
        }
      ],
      "name": "transferOwnership",
      "outputs": [],
      "stateMutability": "nonpayable",
      "type": "function"
    },
    {
      "inputs": [],
      "name": "veDepositEnabled",
      "outputs": [
        {
          "internalType": "bool",
          "name": "",
          "type": "bool"
        }
      ],
      "stateMutability": "view",
      "type": "function"
    },
    {
      "inputs": [],
      "name": "vePearl",
      "outputs": [
        {
          "internalType": "address",
          "name": "",
          "type": "address"
        }
      ],
      "stateMutability": "view",
      "type": "function"
    },
    {
      "inputs": [],
      "name": "vePearlLastBalance",
      "outputs": [
        {
          "internalType": "uint256",
          "name": "",
          "type": "uint256"
        }
      ],
      "stateMutability": "view",
      "type": "function"
    }
  ],
  "transactionHash": "0x3ec34062b8af25aca226d135c55cee1760f06019577fec14a7141b502bdb8bb0",
  "args": [],
  "numDeployments": 3,
  "solcInputHash": "6c2a9fe06fb97f87329a85320378bcfa",
  "bytecode": "0x60806040523480156200001157600080fd5b506200001c62000022565b620000e3565b600054610100900460ff16156200008f5760405162461bcd60e51b815260206004820152602760248201527f496e697469616c697a61626c653a20636f6e747261637420697320696e697469604482015266616c697a696e6760c81b606482015260840160405180910390fd5b60005460ff90811614620000e1576000805460ff191660ff9081179091556040519081527f7f26b83ff96e1f2b6a682f133852f6798a09c465da95921460cefb38474024989060200160405180910390a15b565b6131b380620000f36000396000f3fe608060405234801561001057600080fd5b506004361061030a5760003560e01c806389991eff1161019c578063db006a75116100ee578063ee00ef3a11610097578063f4359ce511610071578063f4359ce5146105e3578063f46c37e8146105ec578063ff781641146105f557600080fd5b8063ee00ef3a146105b2578063f1819bb5146105bb578063f2fde38b146105d057600080fd5b8063df381efd116100c8578063df381efd14610579578063e841b6261461058c578063e91a7ca61461059f57600080fd5b8063db006a751461054b578063dc19c4d81461055e578063de5f62681461057157600080fd5b8063b20150df11610150578063b97dd9e21161012a578063b97dd9e214610523578063d0fb02031461052b578063d2f825361461053e57600080fd5b8063b20150df146104ff578063b59ca79914610508578063b6b55f251461051057600080fd5b806399a10fa21161018157806399a10fa2146104c4578063a8c62e76146104e4578063af14052c146104f757600080fd5b806389991eff146104a05780638da5cb5b146104b357600080fd5b80633cad2a0a1161026057806369af495b11610209578063715018a6116101e3578063715018a61461047c57806380ef238d14610484578063819674e31461048c57600080fd5b806369af495b146104335780636ba42aaa146104465780637001cbe11461046957600080fd5b8063569482d71161023a578063569482d71461040457806367244d3714610417578063672a0fb81461042a57600080fd5b80633cad2a0a146103e05780634032b72b146103e857806352f0699c146103fb57600080fd5b806314ae9f2e116102c2578063268155bd1161029c578063268155bd146103bb578063345b5980146103ce5780633845fbf3146103d757600080fd5b806314ae9f2e146103595780631eab5bec1461036c578063217c1d681461039057600080fd5b8063061873e8116102f3578063061873e814610333578063081744511461033d578063138731011461034657600080fd5b8063059f8b161461030f57806305c09c8c1461032b575b600080fd5b61031860a45481565b6040519081526020015b60405180910390f35b6103186105fd565b61033b6106cd565b005b610318609c5481565b61033b610354366004612c6b565b610750565b61033b610367366004612cbc565b61083c565b60a25461038090600160a01b900460ff1681565b6040519015158152602001610322565b609f546103a3906001600160a01b031681565b6040516001600160a01b039091168152602001610322565b61033b6103c9366004612cbc565b6108ca565b610318609b5481565b61031860a75481565b610318610973565b61033b6103f6366004612cbc565b610c79565b61031860a35481565b60a2546103a3906001600160a01b031681565b60a0546103a3906001600160a01b031681565b61031860a65481565b61033b610441366004612cbc565b610d06565b610380610454366004612cbc565b60a96020526000908152604090205460ff1681565b61033b610477366004612cbc565b610da8565b61033b610e4a565b61033b610e5e565b60a25461038090600160a81b900460ff1681565b61033b6104ae366004612cd9565b610f3f565b6033546001600160a01b03166103a3565b6103186104d2366004612cd9565b60a86020526000908152604090205481565b609e546103a3906001600160a01b031681565b610318610f7c565b61031860ab5481565b61033b61128c565b61033b61051e366004612cd9565b611307565b610318611325565b609d546103a3906001600160a01b031681565b60aa546103809060ff1681565b61033b610559366004612cd9565b611342565b6098546103a3906001600160a01b031681565b61033b611516565b61033b610587366004612d39565b6115ba565b60a1546103a3906001600160a01b031681565b61033b6105ad366004612cd9565b6117fd565b61031860995481565b6105c3611b2a565b6040516103229190612e60565b61033b6105de366004612cbc565b611bb8565b610318609a5481565b61031860a55481565b61033b611c45565b60a254600090600160a81b900460ff1615610619575060a35490565b60a1546001600160a01b03166106305750609b5490565b60008061063b611d24565b90925090506000811561066a5761066782610661609b548661202b90919063ffffffff16565b90612040565b90505b61067261204c565b909350915081156106a857600061069883610661609b548761202b90919063ffffffff16565b9050818111156106a6578091505b505b609b548110156106b75750609b545b609c548111156106c65750609c545b9392505050565b6033546001600160a01b03163314806106f05750609e546001600160a01b031633145b6107415760405162461bcd60e51b815260206004820152600b60248201527f41757468206661696c656400000000000000000000000000000000000000000060448201526064015b60405180910390fd5b60aa805460ff19166001179055565b6107586121ea565b60a25460ff600160a81b9091041615158215146107b75760405162461bcd60e51b815260206004820152600b60248201527f416c7265616479207365740000000000000000000000000000000000000000006044820152606401610738565b60a280547fffffffffffffffffffff00ffffffffffffffffffffffffffffffffffffffffff16600160a81b841515908102919091179091556001036107fc5760a38190555b604080518315158152602081018390527f575fcb4f41780c0536203c1ad9067aa9b04352d2ff1e5e1ee818a5aa9dade1ce91015b60405180910390a15050565b6108446121ea565b6001600160a01b03811661085757600080fd5b6001600160a01b038116600090815260a9602052604090205460ff16151560011461088157600080fd5b6001600160a01b038116600081815260a96020526040808220805460ff19169055517fa7a775c2c8141f7985c111748ec31c11e5e44b83528e105c8d1d4e8e6b81cf809190a250565b6108d26121ea565b6001600160a01b0381166109115760405162461bcd60e51b815260206004820152600660248201526506164647220360d41b6044820152606401610738565b60a1805473ffffffffffffffffffffffffffffffffffffffff19166001600160a01b0383169081179091556040519081527f8229372d912c6ec024c1ece7fb23066cc7f8d4e4ea4e1d5c6a2f5dd4f5bc97c6906020015b60405180910390a150565b33600090815260a9602052604081205460ff161515600114806109a057506033546001600160a01b031633145b6109ec5760405162461bcd60e51b815260206004820152600a60248201527f6e6f74206b6565706572000000000000000000000000000000000000000000006044820152606401610738565b609d54604080517f66c91c4300000000000000000000000000000000000000000000000000000000815290516000926001600160a01b0316916366c91c439160048083019260209291908290030181865afa158015610a4f573d6000803e3d6000fd5b505050506040513d601f19601f82011682018060405250810190610a739190612e93565b6001600160a01b031663a591a6f46040518163ffffffff1660e01b81526004016020604051808303816000875af1158015610ab2573d6000803e3d6000fd5b505050506040513d601f19601f82011682018060405250810190610ad69190612eb0565b90508015610c7457610ae781612244565b609f54609d546040516340c10f1960e01b81526001600160a01b039182166004820152602481018490529116906340c10f1990604401600060405180830381600087803b158015610b3757600080fd5b505af1158015610b4b573d6000803e3d6000fd5b5050609d546040517f76ae6030000000000000000000000000000000000000000000000000000000008152600481018590526001600160a01b0390911692506376ae60309150602401600060405180830381600087803b158015610bae57600080fd5b505af1158015610bc2573d6000803e3d6000fd5b50505050609f60009054906101000a90046001600160a01b03166001600160a01b03166318160ddd6040518163ffffffff1660e01b8152600401602060405180830381865afa158015610c19573d6000803e3d6000fd5b505050506040513d601f19601f82011682018060405250810190610c3d9190612eb0565b60a7556040518181527fb2551dbcbbc5e10b061417241206244b6b437957d6dd69d9e46aed114047b0959060200160405180910390a15b905090565b610c816121ea565b6001600160a01b038116610c9457600080fd5b6001600160a01b038116600090815260a9602052604090205460ff1615610cba57600080fd5b6001600160a01b038116600081815260a96020526040808220805460ff19166001179055517f1584773458d98c71b34a270ee1100b3a42889bf91e3b7a858563b684c24d838e9190a250565b610d0e6121ea565b6001600160a01b038116610d4d5760405162461bcd60e51b815260206004820152600660248201526506164647220360d41b6044820152606401610738565b6098805473ffffffffffffffffffffffffffffffffffffffff19166001600160a01b0383169081179091556040519081527fc6cb03f4249a54f07e64b24cac915b50cddcba8604ab7f158325661fe2d57e4690602001610968565b610db06121ea565b6001600160a01b038116610def5760405162461bcd60e51b815260206004820152600660248201526506164647220360d41b6044820152606401610738565b60a0805473ffffffffffffffffffffffffffffffffffffffff19166001600160a01b0383169081179091556040519081527fc6cb03f4249a54f07e64b24cac915b50cddcba8604ab7f158325661fe2d57e4690602001610968565b610e526121ea565b610e5c60006123bc565b565b610e666121ea565b60a254600160a01b900460ff1615610ee65760405162461bcd60e51b815260206004820152602260248201527f5665506561726c204465706f69737420697320616c726561647920656e61626c60448201527f65640000000000000000000000000000000000000000000000000000000000006064820152608401610738565b60a280547fffffffffffffffffffffff00ffffffffffffffffffffffffffffffffffffffff16600160a01b1790556040517f0ec124fd9588c6e50e2550ac6d2659419c953c731ea3ae8328b4e2f5e20619d190600090a1565b610f476121ea565b60a68190556040518181527fa5cb0fda77df2583a75497c8198d3c202b8f59de6b409606b22bc98e24a87fbc90602001610968565b33600090815260a9602052604081205460ff16151560011480610fa957506033546001600160a01b031633145b610ff55760405162461bcd60e51b815260206004820152600a60248201527f6e6f74206b6565706572000000000000000000000000000000000000000000006044820152606401610738565b60ab54609e54604080517fb4cd143a00000000000000000000000000000000000000000000000000000000815290516001600160a01b039092169163b4cd143a9160048082019260009290919082900301818387803b15801561105757600080fd5b505af115801561106b573d6000803e3d6000fd5b50505050609e60009054906101000a90046001600160a01b03166001600160a01b031663eca5f1586040518163ffffffff1660e01b8152600401602060405180830381865afa1580156110c2573d6000803e3d6000fd5b505050506040513d601f19601f820116820180604052508101906110e69190612eb0565b60ab8190556000906110f8908361241b565b609f54609d546040516340c10f1960e01b81526001600160a01b0391821660048201526024810184905292935016906340c10f1990604401600060405180830381600087803b15801561114a57600080fd5b505af115801561115e573d6000803e3d6000fd5b5050609d546040517f0fa94442000000000000000000000000000000000000000000000000000000008152600481018590526001600160a01b039091169250630fa944429150602401600060405180830381600087803b1580156111c157600080fd5b505af11580156111d5573d6000803e3d6000fd5b50505050609f60009054906101000a90046001600160a01b03166001600160a01b03166318160ddd6040518163ffffffff1660e01b8152600401602060405180830381865afa15801561122c573d6000803e3d6000fd5b505050506040513d601f19601f820116820180604052508101906112509190612eb0565b60a7556040518181527fafae32ce2847c13a56ab802c034c27d3c19f1d61be48c424c5df134145cd44d09060200160405180910390a191505090565b6033546001600160a01b03163314806112af5750609e546001600160a01b031633145b6112fb5760405162461bcd60e51b815260206004820152600b60248201527f41757468206661696c65640000000000000000000000000000000000000000006044820152606401610738565b60aa805460ff19169055565b61130f612427565b61131881612480565b6113226001606555565b50565b6000609a5460a654426113389190612edf565b610c749190612ef2565b61134a612427565b60aa5460ff1661139c5760405162461bcd60e51b815260206004820152600f60248201527f52656465656d2064697361626c656400000000000000000000000000000000006044820152606401610738565b60006113be60a45461066160a55460a4546113b79190612edf565b859061202b565b609e546040517f66123fe5000000000000000000000000000000000000000000000000000000008152600481018390523360248201529192506001600160a01b0316906366123fe590604401600060405180830381600087803b15801561142457600080fd5b505af1158015611438573d6000803e3d6000fd5b505050508060ab600082825461144e9190612edf565b9091555050609f546040517f9dc29fac000000000000000000000000000000000000000000000000000000008152336004820152602481018490526001600160a01b0390911690639dc29fac90604401600060405180830381600087803b1580156114b857600080fd5b505af11580156114cc573d6000803e3d6000fd5b505060408051858152602081018590523393507fe5b754fb1abb7f01b499791d0b820ae3b6af3424ac1c59768edb53f4ec31a92992500160405180910390a2506113226001606555565b61151e612427565b6098546040517f70a082310000000000000000000000000000000000000000000000000000000081523360048201526000916001600160a01b0316906370a0823190602401602060405180830381865afa158015611580573d6000803e3d6000fd5b505050506040513d601f19601f820116820180604052508101906115a49190612eb0565b90506115af81612480565b50610e5c6001606555565b600054610100900460ff16158080156115da5750600054600160ff909116105b806115f45750303b1580156115f4575060005460ff166001145b6116665760405162461bcd60e51b815260206004820152602e60248201527f496e697469616c697a61626c653a20636f6e747261637420697320616c72656160448201527f647920696e697469616c697a65640000000000000000000000000000000000006064820152608401610738565b6000805460ff191660011790558015611689576000805461ff0019166101001790555b611691612594565b611699612607565b60976116a58a82612f9c565b50609d805473ffffffffffffffffffffffffffffffffffffffff199081166001600160a01b0386811691909117909255609e805482168b8416179055609f805482168a841617905560a08054821688841617905560a180549091169186169190911790556117158261016c61305c565b611722906201518061305c565b60995562093a80609a55609880546001600160a01b03881673ffffffffffffffffffffffffffffffffffffffff1990911617905560a280547fffffffffffffffffffff0000ffffffffffffffffffffffffffffffffffffffff16600160a01b179055607d609b556102bc609c556103e860a455602360a55560aa805460ff19166001179055600060ab5580156117f2576000805461ff0019169055604051600181527f7f26b83ff96e1f2b6a682f133852f6798a09c465da95921460cefb38474024989060200160405180910390a15b505050505050505050565b611805612427565b60a254600160a01b900460ff1661185e5760405162461bcd60e51b815260206004820152601a60248201527f4e4654204465706f736974206973206e6f7420656e61626c65640000000000006044820152606401610738565b60a254600090600160a81b900460ff161561187c575060a354611887565b6118846105fd565b90505b60a0546040517fb45a3c0e000000000000000000000000000000000000000000000000000000008152600481018490526000916001600160a01b03169063b45a3c0e906024016040805180830381865afa1580156118e9573d6000803e3d6000fd5b505050506040513d601f19601f8201168201806040525081019061190d9190613073565b509050600061191b8261267a565b9050600061193660a4546106618660a4546113b79190612edf565b60a054609e546040517f23b872dd0000000000000000000000000000000000000000000000000000000081523360048201526001600160a01b0391821660248201526044810189905292935016906323b872dd90606401600060405180830381600087803b1580156119a757600080fd5b505af11580156119bb573d6000803e3d6000fd5b5050609e546040517f24a47aeb000000000000000000000000000000000000000000000000000000008152600481018990526001600160a01b0390911692506324a47aeb9150602401600060405180830381600087803b158015611a1e57600080fd5b505af1158015611a32573d6000803e3d6000fd5b505050508160ab6000828254611a4891906130a7565b9091555081905060a86000611a5b611325565b81526020019081526020016000206000828254611a7891906130a7565b9091555050609f546040516340c10f1960e01b8152336004820152602481018390526001600160a01b03909116906340c10f1990604401600060405180830381600087803b158015611ac957600080fd5b505af1158015611add573d6000803e3d6000fd5b505060408051888152602081018590523393507f2c6e00d05c9537687e3346c6bb423b06c873979206b8d425ddbb4f9b436e058292500160405180910390a2505050506113226001606555565b60978054611b3790612f14565b80601f0160208091040260200160405190810160405280929190818152602001828054611b6390612f14565b8015611bb05780601f10611b8557610100808354040283529160200191611bb0565b820191906000526020600020905b815481529060010190602001808311611b9357829003601f168201915b505050505081565b611bc06121ea565b6001600160a01b038116611c3c5760405162461bcd60e51b815260206004820152602660248201527f4f776e61626c653a206e6577206f776e657220697320746865207a65726f206160448201527f64647265737300000000000000000000000000000000000000000000000000006064820152608401610738565b611322816123bc565b611c4d6121ea565b60a254600160a01b900460ff161515600114611cd15760405162461bcd60e51b815260206004820152602360248201527f5665506561726c204465706f69737420697320616c726561647920646973616260448201527f6c656400000000000000000000000000000000000000000000000000000000006064820152608401610738565b60a280547fffffffffffffffffffffff00ffffffffffffffffffffffffffffffffffffffff1690556040517fade2d598b8835dbb08a4168080043317e655d128eab9a2e7b7d8a21924665c8c90600090a1565b600080600060a160009054906101000a90046001600160a01b03166001600160a01b0316638a7b8cf26040518163ffffffff1660e01b8152600401606060405180830381865afa158015611d7c573d6000803e3d6000fd5b505050506040513d601f19601f82011682018060405250810190611da091906130ba565b905060008060a160009054906101000a90046001600160a01b03166001600160a01b0316631df8c7176040518163ffffffff1660e01b8152600401606060405180830381865afa158015611df8573d6000803e3d6000fd5b505050506040513d601f19601f82011682018060405250810190611e1c9190613116565b50845191935091504203611f335760a154604080517febeb31db00000000000000000000000000000000000000000000000000000000815290516000926001600160a01b03169163ebeb31db9160048083019260209291908290030181865afa158015611e8d573d6000803e3d6000fd5b505050506040513d601f19601f82011682018060405250810190611eb19190612eb0565b60a1549091506001600160a01b031663252c09d7611ed0600284612edf565b6040518263ffffffff1660e01b8152600401611eee91815260200190565b606060405180830381865afa158015611f0b573d6000803e3d6000fd5b505050506040513d601f19601f82011682018060405250810190611f2f91906130ba565b9350505b8251600090611f429042612edf565b9050600081856020015185611f579190612edf565b611f619190612ef2565b9050600082866040015185611f769190612edf565b611f809190612ef2565b905060a160009054906101000a90046001600160a01b03166001600160a01b0316630dfe16816040518163ffffffff1660e01b8152600401602060405180830381865afa158015611fd5573d6000803e3d6000fd5b505050506040513d601f19601f82011682018060405250810190611ff99190612e93565b609f546001600160a01b0391821691160361201a5790965094508585612021565b9650945084865b5050505050509091565b6000612037828461305c565b90505b92915050565b60006120378284612ef2565b600080600060a160009054906101000a90046001600160a01b03166001600160a01b031663443cb4bc6040518163ffffffff1660e01b8152600401602060405180830381865afa1580156120a4573d6000803e3d6000fd5b505050506040513d601f19601f820116820180604052508101906120c89190612eb0565b9050600060a160009054906101000a90046001600160a01b03166001600160a01b0316635a76f25e6040518163ffffffff1660e01b8152600401602060405180830381865afa15801561211f573d6000803e3d6000fd5b505050506040513d601f19601f820116820180604052508101906121439190612eb0565b905060a160009054906101000a90046001600160a01b03166001600160a01b0316630dfe16816040518163ffffffff1660e01b8152600401602060405180830381865afa158015612198573d6000803e3d6000fd5b505050506040513d601f19601f820116820180604052508101906121bc9190612e93565b609f546001600160a01b039182169116036121dd57909250905081816121e4565b9250905080825b50509091565b6033546001600160a01b03163314610e5c5760405162461bcd60e51b815260206004820181905260248201527f4f776e61626c653a2063616c6c6572206973206e6f7420746865206f776e65726044820152606401610738565b609e54609854612261916001600160a01b039182169116836126a1565b609e54604080517feca5f15800000000000000000000000000000000000000000000000000000000815290516000926001600160a01b03169163eca5f1589160048083019260209291908290030181865afa1580156122c4573d6000803e3d6000fd5b505050506040513d601f19601f820116820180604052508101906122e89190612eb0565b9050801561238457609e546040517f15456eba000000000000000000000000000000000000000000000000000000008152600481018490526001600160a01b03909116906315456eba90602401600060405180830381600087803b15801561234f57600080fd5b505af1158015612363573d6000803e3d6000fd5b505050508160ab600082825461237991906130a7565b9091555061238c9050565b61238c61274f565b6040518281527fb1bcb34d261331804be4d3be145a234b1672463e7ac788c3d401059fcfb0510890602001610830565b603380546001600160a01b0383811673ffffffffffffffffffffffffffffffffffffffff19831681179093556040519116919082907f8be0079c531659141344cd1fd0a4f28419497f9722a3daafe3b4186f6b6457e090600090a35050565b60006120378284612edf565b6002606554036124795760405162461bcd60e51b815260206004820152601f60248201527f5265656e7472616e637947756172643a207265656e7472616e742063616c6c006044820152606401610738565b6002606555565b806000036124d05760405162461bcd60e51b815260206004820152600360248201527f213e3000000000000000000000000000000000000000000000000000000000006044820152606401610738565b6098546124e8906001600160a01b0316333084612898565b6124f181612244565b609f546040516340c10f1960e01b8152336004820152602481018390526001600160a01b03909116906340c10f1990604401600060405180830381600087803b15801561253d57600080fd5b505af1158015612551573d6000803e3d6000fd5b50506040518381523392507fe1fffcc4923d04b559f4d29a8bfc6cda04eb5b0d3c460751c2402c5c5cc9109c915060200160405180910390a250565b6001606555565b600054610100900460ff166125ff5760405162461bcd60e51b815260206004820152602b60248201527f496e697469616c697a61626c653a20636f6e7472616374206973206e6f74206960448201526a6e697469616c697a696e6760a81b6064820152608401610738565b610e5c6128ef565b600054610100900460ff166126725760405162461bcd60e51b815260206004820152602b60248201527f496e697469616c697a61626c653a20636f6e7472616374206973206e6f74206960448201526a6e697469616c697a696e6760a81b6064820152608401610738565b610e5c612963565b6000600f82900b8181121561203a576f7fffffffffffffffffffffffffffffff1692915050565b6040516001600160a01b03831660248201526044810182905261274a9084907fa9059cbb00000000000000000000000000000000000000000000000000000000906064015b60408051601f198184030181529190526020810180517bffffffffffffffffffffffffffffffffffffffffffffffffffffffff167fffffffff00000000000000000000000000000000000000000000000000000000909316929092179091526129ce565b505050565b609854609e546040517f70a082310000000000000000000000000000000000000000000000000000000081526001600160a01b03918216600482015260009291909116906370a0823190602401602060405180830381865afa1580156127b9573d6000803e3d6000fd5b505050506040513d601f19601f820116820180604052508101906127dd9190612eb0565b609e546099546040517fb52c05fe0000000000000000000000000000000000000000000000000000000081526004810184905260248101919091529192506001600160a01b03169063b52c05fe90604401600060405180830381600087803b15801561284857600080fd5b505af115801561285c573d6000803e3d6000fd5b50505060ab829055506099546040519081527f23e239e8dfd669d9b934a258bd513c902ad65f61898e62a73efca959ba8a330490602001610968565b6040516001600160a01b03808516602483015283166044820152606481018290526128e99085907f23b872dd00000000000000000000000000000000000000000000000000000000906084016126e6565b50505050565b600054610100900460ff1661295a5760405162461bcd60e51b815260206004820152602b60248201527f496e697469616c697a61626c653a20636f6e7472616374206973206e6f74206960448201526a6e697469616c697a696e6760a81b6064820152608401610738565b610e5c336123bc565b600054610100900460ff1661258d5760405162461bcd60e51b815260206004820152602b60248201527f496e697469616c697a61626c653a20636f6e7472616374206973206e6f74206960448201526a6e697469616c697a696e6760a81b6064820152608401610738565b6000612a23826040518060400160405280602081526020017f5361666545524332303a206c6f772d6c6576656c2063616c6c206661696c6564815250856001600160a01b0316612ab69092919063ffffffff16565b9050805160001480612a44575080806020019051810190612a449190613144565b61274a5760405162461bcd60e51b815260206004820152602a60248201527f5361666545524332303a204552433230206f7065726174696f6e20646964206e60448201527f6f742073756363656564000000000000000000000000000000000000000000006064820152608401610738565b6060612ac58484600085612acd565b949350505050565b606082471015612b455760405162461bcd60e51b815260206004820152602660248201527f416464726573733a20696e73756666696369656e742062616c616e636520666f60448201527f722063616c6c00000000000000000000000000000000000000000000000000006064820152608401610738565b600080866001600160a01b03168587604051612b619190613161565b60006040518083038185875af1925050503d8060008114612b9e576040519150601f19603f3d011682016040523d82523d6000602084013e612ba3565b606091505b5091509150612bb487838387612bbf565b979650505050505050565b60608315612c2e578251600003612c27576001600160a01b0385163b612c275760405162461bcd60e51b815260206004820152601d60248201527f416464726573733a2063616c6c20746f206e6f6e2d636f6e74726163740000006044820152606401610738565b5081612ac5565b612ac58383815115612c435781518083602001fd5b8060405162461bcd60e51b81526004016107389190612e60565b801515811461132257600080fd5b60008060408385031215612c7e57600080fd5b8235612c8981612c5d565b946020939093013593505050565b6001600160a01b038116811461132257600080fd5b8035612cb781612c97565b919050565b600060208284031215612cce57600080fd5b81356106c681612c97565b600060208284031215612ceb57600080fd5b5035919050565b634e487b7160e01b600052604160045260246000fd5b604051601f8201601f1916810167ffffffffffffffff81118282101715612d3157612d31612cf2565b604052919050565b600080600080600080600080610100898b031215612d5657600080fd5b883567ffffffffffffffff80821115612d6e57600080fd5b818b0191508b601f830112612d8257600080fd5b8135602082821115612d9657612d96612cf2565b612da881601f19601f85011601612d08565b92508183528d81838601011115612dbe57600080fd5b81818501828501376000818385010152829b50612ddc818e01612cac565b9a5050505050612dee60408a01612cac565b9550612dfc60608a01612cac565b9450612e0a60808a01612cac565b9350612e1860a08a01612cac565b9250612e2660c08a01612cac565b915060e089013590509295985092959890939650565b60005b83811015612e57578181015183820152602001612e3f565b50506000910152565b6020815260008251806020840152612e7f816040850160208701612e3c565b601f01601f19169190910160400192915050565b600060208284031215612ea557600080fd5b81516106c681612c97565b600060208284031215612ec257600080fd5b5051919050565b634e487b7160e01b600052601160045260246000fd5b8181038181111561203a5761203a612ec9565b600082612f0f57634e487b7160e01b600052601260045260246000fd5b500490565b600181811c90821680612f2857607f821691505b602082108103612f4857634e487b7160e01b600052602260045260246000fd5b50919050565b601f82111561274a57600081815260208120601f850160051c81016020861015612f755750805b601f850160051c820191505b81811015612f9457828155600101612f81565b505050505050565b815167ffffffffffffffff811115612fb657612fb6612cf2565b612fca81612fc48454612f14565b84612f4e565b602080601f831160018114612fff5760008415612fe75750858301515b600019600386901b1c1916600185901b178555612f94565b600085815260208120601f198616915b8281101561302e5788860151825594840194600190910190840161300f565b508582101561304c5787850151600019600388901b60f8161c191681555b5050505050600190811b01905550565b808202811582820484141761203a5761203a612ec9565b6000806040838503121561308657600080fd5b825180600f0b811461309757600080fd5b6020939093015192949293505050565b8082018082111561203a5761203a612ec9565b6000606082840312156130cc57600080fd5b6040516060810181811067ffffffffffffffff821117156130ef576130ef612cf2565b80604052508251815260208301516020820152604083015160408201528091505092915050565b60008060006060848603121561312b57600080fd5b8351925060208401519150604084015190509250925092565b60006020828403121561315657600080fd5b81516106c681612c5d565b60008251613173818460208701612e3c565b919091019291505056fea26469706673582212206a68f885a1956fbe1a319e7e3d7a54522bc921c57b1d54361a9211064db7ff9c64736f6c63430008130033",
  "devdoc": {
    "events": {
      "Initialized(uint8)": {
        "details": "Triggered when the contract has been initialized or reinitialized."
      }
    },
    "kind": "dev",
    "methods": {
      "owner()": {
        "details": "Returns the address of the current owner."
      },
      "renounceOwnership()": {
        "details": "Leaves the contract without owner. It will not be possible to call `onlyOwner` functions. Can only be called by the current owner. NOTE: Renouncing ownership will leave the contract without an owner, thereby disabling any functionality that is only available to the owner."
      },
      "transferOwnership(address)": {
        "details": "Transfers ownership of the contract to a new account (`newOwner`). Can only be called by the current owner."
      }
    },
    "version": 1
  },
  "userdoc": {
    "kind": "user",
    "methods": {},
    "version": 1
  },
  "storageLayout": {
    "storage": [
      {
        "astId": 138,
        "contract": "contracts/CaviarManager.sol:CaviarManager",
        "label": "_initialized",
        "offset": 0,
        "slot": "0",
        "type": "t_uint8"
      },
      {
        "astId": 141,
        "contract": "contracts/CaviarManager.sol:CaviarManager",
        "label": "_initializing",
        "offset": 1,
        "slot": "0",
        "type": "t_bool"
      },
      {
        "astId": 1882,
        "contract": "contracts/CaviarManager.sol:CaviarManager",
        "label": "__gap",
        "offset": 0,
        "slot": "1",
        "type": "t_array(t_uint256)50_storage"
      },
      {
        "astId": 10,
        "contract": "contracts/CaviarManager.sol:CaviarManager",
        "label": "_owner",
        "offset": 0,
        "slot": "51",
        "type": "t_address"
      },
      {
        "astId": 130,
        "contract": "contracts/CaviarManager.sol:CaviarManager",
        "label": "__gap",
        "offset": 0,
        "slot": "52",
        "type": "t_array(t_uint256)49_storage"
      },
      {
        "astId": 314,
        "contract": "contracts/CaviarManager.sol:CaviarManager",
        "label": "_status",
        "offset": 0,
        "slot": "101",
        "type": "t_uint256"
      },
      {
        "astId": 383,
        "contract": "contracts/CaviarManager.sol:CaviarManager",
        "label": "__gap",
        "offset": 0,
        "slot": "102",
        "type": "t_array(t_uint256)49_storage"
      },
      {
        "astId": 10483,
        "contract": "contracts/CaviarManager.sol:CaviarManager",
        "label": "__NAME__",
        "offset": 0,
        "slot": "151",
        "type": "t_string_storage"
      },
      {
        "astId": 10485,
        "contract": "contracts/CaviarManager.sol:CaviarManager",
        "label": "pearl",
        "offset": 0,
        "slot": "152",
        "type": "t_address"
      },
      {
        "astId": 10487,
        "contract": "contracts/CaviarManager.sol:CaviarManager",
        "label": "MAXTIME",
        "offset": 0,
        "slot": "153",
        "type": "t_uint256"
      },
      {
        "astId": 10489,
        "contract": "contracts/CaviarManager.sol:CaviarManager",
        "label": "WEEK",
        "offset": 0,
        "slot": "154",
        "type": "t_uint256"
      },
      {
        "astId": 10491,
        "contract": "contracts/CaviarManager.sol:CaviarManager",
        "label": "MIN_VE_DEPOSIT_FEE",
        "offset": 0,
        "slot": "155",
        "type": "t_uint256"
      },
      {
        "astId": 10493,
        "contract": "contracts/CaviarManager.sol:CaviarManager",
        "label": "MAX_VE_DEPOSIT_FEE",
        "offset": 0,
        "slot": "156",
        "type": "t_uint256"
      },
      {
        "astId": 10495,
        "contract": "contracts/CaviarManager.sol:CaviarManager",
        "label": "feeManager",
        "offset": 0,
        "slot": "157",
        "type": "t_address"
      },
      {
        "astId": 10497,
        "contract": "contracts/CaviarManager.sol:CaviarManager",
        "label": "strategy",
        "offset": 0,
        "slot": "158",
        "type": "t_address"
      },
      {
        "astId": 10499,
        "contract": "contracts/CaviarManager.sol:CaviarManager",
        "label": "caviar",
        "offset": 0,
        "slot": "159",
        "type": "t_address"
      },
      {
        "astId": 10501,
        "contract": "contracts/CaviarManager.sol:CaviarManager",
        "label": "vePearl",
        "offset": 0,
        "slot": "160",
        "type": "t_address"
      },
      {
        "astId": 10503,
        "contract": "contracts/CaviarManager.sol:CaviarManager",
        "label": "pearlPair",
        "offset": 0,
        "slot": "161",
        "type": "t_address"
      },
      {
        "astId": 10505,
        "contract": "contracts/CaviarManager.sol:CaviarManager",
        "label": "smartWalletWhitelist",
        "offset": 0,
        "slot": "162",
        "type": "t_address"
      },
      {
        "astId": 10507,
        "contract": "contracts/CaviarManager.sol:CaviarManager",
        "label": "veDepositEnabled",
        "offset": 20,
        "slot": "162",
        "type": "t_bool"
      },
      {
        "astId": 10509,
        "contract": "contracts/CaviarManager.sol:CaviarManager",
        "label": "isPromotionPeriod",
        "offset": 21,
        "slot": "162",
        "type": "t_bool"
      },
      {
        "astId": 10511,
        "contract": "contracts/CaviarManager.sol:CaviarManager",
        "label": "PROMO_VE_DEPOSIT_FEE",
        "offset": 0,
        "slot": "163",
        "type": "t_uint256"
      },
      {
        "astId": 10513,
        "contract": "contracts/CaviarManager.sol:CaviarManager",
        "label": "MULTIPLIER",
        "offset": 0,
        "slot": "164",
        "type": "t_uint256"
      },
      {
        "astId": 10515,
        "contract": "contracts/CaviarManager.sol:CaviarManager",
        "label": "REDEEM_FEE",
        "offset": 0,
        "slot": "165",
        "type": "t_uint256"
      },
      {
        "astId": 10517,
        "contract": "contracts/CaviarManager.sol:CaviarManager",
        "label": "beginTimestamp",
        "offset": 0,
        "slot": "166",
        "type": "t_uint256"
      },
      {
        "astId": 10519,
        "contract": "contracts/CaviarManager.sol:CaviarManager",
        "label": "caviarSupplyAtCurrentEpoch",
        "offset": 0,
        "slot": "167",
        "type": "t_uint256"
      },
      {
        "astId": 10523,
        "contract": "contracts/CaviarManager.sol:CaviarManager",
        "label": "mintedFromNftAt",
        "offset": 0,
        "slot": "168",
        "type": "t_mapping(t_uint256,t_uint256)"
      },
      {
        "astId": 10527,
        "contract": "contracts/CaviarManager.sol:CaviarManager",
        "label": "isKeeper",
        "offset": 0,
        "slot": "169",
        "type": "t_mapping(t_address,t_bool)"
      },
      {
        "astId": 10529,
        "contract": "contracts/CaviarManager.sol:CaviarManager",
        "label": "redeemEnabled",
        "offset": 0,
        "slot": "170",
        "type": "t_bool"
      },
      {
        "astId": 10531,
        "contract": "contracts/CaviarManager.sol:CaviarManager",
        "label": "vePearlLastBalance",
        "offset": 0,
        "slot": "171",
        "type": "t_uint256"
      }
    ],
    "types": {
      "t_address": {
        "encoding": "inplace",
        "label": "address",
        "numberOfBytes": "20"
      },
      "t_array(t_uint256)49_storage": {
        "base": "t_uint256",
        "encoding": "inplace",
        "label": "uint256[49]",
        "numberOfBytes": "1568"
      },
      "t_array(t_uint256)50_storage": {
        "base": "t_uint256",
        "encoding": "inplace",
        "label": "uint256[50]",
        "numberOfBytes": "1600"
      },
      "t_bool": {
        "encoding": "inplace",
        "label": "bool",
        "numberOfBytes": "1"
      },
      "t_mapping(t_address,t_bool)": {
        "encoding": "mapping",
        "key": "t_address",
        "label": "mapping(address => bool)",
        "numberOfBytes": "32",
        "value": "t_bool"
      },
      "t_mapping(t_uint256,t_uint256)": {
        "encoding": "mapping",
        "key": "t_uint256",
        "label": "mapping(uint256 => uint256)",
        "numberOfBytes": "32",
        "value": "t_uint256"
      },
      "t_string_storage": {
        "encoding": "bytes",
        "label": "string",
        "numberOfBytes": "32"
      },
      "t_uint256": {
        "encoding": "inplace",
        "label": "uint256",
        "numberOfBytes": "32"
      },
      "t_uint8": {
        "encoding": "inplace",
        "label": "uint8",
        "numberOfBytes": "1"
      }
    }
  }
}