{
  "address": "0x6e8323C91f752975D5D8da80c252B8ecDcB8A02C",
  "abi": [
    {
      "inputs": [],
      "stateMutability": "nonpayable",
      "type": "constructor"
    },
    {
      "anonymous": false,
      "inputs": [
        {
          "indexed": true,
          "internalType": "address",
          "name": "user",
          "type": "address"
        },
        {
          "indexed": false,
          "internalType": "uint256",
          "name": "amount",
          "type": "uint256"
        },
        {
          "indexed": true,
          "internalType": "address",
          "name": "to",
          "type": "address"
        }
      ],
      "name": "Deposit",
      "type": "event"
    },
    {
      "anonymous": false,
      "inputs": [
        {
          "indexed": true,
          "internalType": "address",
          "name": "user",
          "type": "address"
        },
        {
          "indexed": false,
          "internalType": "uint256",
          "name": "amount",
          "type": "uint256"
        },
        {
          "indexed": true,
          "internalType": "address",
          "name": "to",
          "type": "address"
        }
      ],
      "name": "EmergencyWithdraw",
      "type": "event"
    },
    {
      "anonymous": false,
      "inputs": [
        {
          "indexed": true,
          "internalType": "address",
          "name": "user",
          "type": "address"
        },
        {
          "indexed": false,
          "internalType": "uint256",
          "name": "amount",
          "type": "uint256"
        }
      ],
      "name": "Harvest",
      "type": "event"
    },
    {
      "anonymous": false,
      "inputs": [
        {
          "indexed": false,
          "internalType": "uint8",
          "name": "version",
          "type": "uint8"
        }
      ],
      "name": "Initialized",
      "type": "event"
    },
    {
      "anonymous": false,
      "inputs": [
        {
          "indexed": false,
          "internalType": "uint256",
          "name": "rewardPerSecond",
          "type": "uint256"
        }
      ],
      "name": "LogRewardPerSecond",
      "type": "event"
    },
    {
      "anonymous": false,
      "inputs": [
        {
          "indexed": false,
          "internalType": "uint256",
          "name": "lastRewardTime",
          "type": "uint256"
        },
        {
          "indexed": false,
          "internalType": "uint256",
          "name": "underlyingSupply",
          "type": "uint256"
        },
        {
          "indexed": false,
          "internalType": "uint256",
          "name": "accRewardPerShare",
          "type": "uint256"
        }
      ],
      "name": "LogUpdatePool",
      "type": "event"
    },
    {
      "anonymous": false,
      "inputs": [
        {
          "indexed": true,
          "internalType": "address",
          "name": "previousOwner",
          "type": "address"
        },
        {
          "indexed": true,
          "internalType": "address",
          "name": "newOwner",
          "type": "address"
        }
      ],
      "name": "OwnershipTransferred",
      "type": "event"
    },
    {
      "anonymous": false,
      "inputs": [
        {
          "indexed": true,
          "internalType": "address",
          "name": "user",
          "type": "address"
        },
        {
          "indexed": false,
          "internalType": "uint256",
          "name": "amount",
          "type": "uint256"
        },
        {
          "indexed": true,
          "internalType": "address",
          "name": "to",
          "type": "address"
        }
      ],
      "name": "Withdraw",
      "type": "event"
    },
    {
      "inputs": [],
      "name": "__NAME__",
      "outputs": [
        {
          "internalType": "string",
          "name": "",
          "type": "string"
        }
      ],
      "stateMutability": "view",
      "type": "function"
    },
    {
      "inputs": [],
      "name": "accRewardPerShare",
      "outputs": [
        {
          "internalType": "uint256",
          "name": "",
          "type": "uint256"
        }
      ],
      "stateMutability": "view",
      "type": "function"
    },
    {
      "inputs": [],
      "name": "distributionPeriod",
      "outputs": [
        {
          "internalType": "uint256",
          "name": "",
          "type": "uint256"
        }
      ],
      "stateMutability": "view",
      "type": "function"
    },
    {
      "inputs": [
        {
          "internalType": "address",
          "name": "from",
          "type": "address"
        },
        {
          "internalType": "address",
          "name": "to",
          "type": "address"
        }
      ],
      "name": "harvestRebase",
      "outputs": [],
      "stateMutability": "nonpayable",
      "type": "function"
    },
    {
      "inputs": [
        {
          "internalType": "string",
          "name": "_name",
          "type": "string"
        },
        {
          "internalType": "contract IERC20",
          "name": "_rewardToken",
          "type": "address"
        },
        {
          "internalType": "uint256",
          "name": "_distributionPeriod",
          "type": "uint256"
        }
      ],
      "name": "initialize",
      "outputs": [],
      "stateMutability": "nonpayable",
      "type": "function"
    },
    {
      "inputs": [],
      "name": "lastDistributedTime",
      "outputs": [
        {
          "internalType": "uint256",
          "name": "",
          "type": "uint256"
        }
      ],
      "stateMutability": "view",
      "type": "function"
    },
    {
      "inputs": [],
      "name": "lastRewardTime",
      "outputs": [
        {
          "internalType": "uint256",
          "name": "",
          "type": "uint256"
        }
      ],
      "stateMutability": "view",
      "type": "function"
    },
    {
      "inputs": [],
      "name": "owner",
      "outputs": [
        {
          "internalType": "address",
          "name": "",
          "type": "address"
        }
      ],
      "stateMutability": "view",
      "type": "function"
    },
    {
      "inputs": [
        {
          "internalType": "address",
          "name": "_user",
          "type": "address"
        }
      ],
      "name": "pendingReward",
      "outputs": [
        {
          "internalType": "uint256",
          "name": "pending",
          "type": "uint256"
        }
      ],
      "stateMutability": "view",
      "type": "function"
    },
    {
      "inputs": [],
      "name": "renounceOwnership",
      "outputs": [],
      "stateMutability": "nonpayable",
      "type": "function"
    },
    {
      "inputs": [],
      "name": "rewardPerSecond",
      "outputs": [
        {
          "internalType": "uint256",
          "name": "",
          "type": "uint256"
        }
      ],
      "stateMutability": "view",
      "type": "function"
    },
    {
      "inputs": [],
      "name": "rewardToken",
      "outputs": [
        {
          "internalType": "contract IERC20",
          "name": "",
          "type": "address"
        }
      ],
      "stateMutability": "view",
      "type": "function"
    },
    {
      "inputs": [
        {
          "internalType": "uint256",
          "name": "_amount",
          "type": "uint256"
        }
      ],
      "name": "seedRewards",
      "outputs": [],
      "stateMutability": "nonpayable",
      "type": "function"
    },
    {
      "inputs": [
        {
          "internalType": "uint256",
          "name": "_distributionPeriod",
          "type": "uint256"
        }
      ],
      "name": "setDistributionPeriod",
      "outputs": [],
      "stateMutability": "nonpayable",
      "type": "function"
    },
    {
      "inputs": [
        {
          "internalType": "string",
          "name": "_name",
          "type": "string"
        }
      ],
      "name": "setName",
      "outputs": [],
      "stateMutability": "nonpayable",
      "type": "function"
    },
    {
      "inputs": [
        {
          "internalType": "uint256",
          "name": "_rewardPerSecond",
          "type": "uint256"
        }
      ],
      "name": "setRewardPerSecond",
      "outputs": [],
      "stateMutability": "nonpayable",
      "type": "function"
    },
    {
      "inputs": [
        {
          "internalType": "address",
          "name": "_rewardToken",
          "type": "address"
        }
      ],
      "name": "setRewardToken",
      "outputs": [],
      "stateMutability": "nonpayable",
      "type": "function"
    },
    {
      "inputs": [
        {
          "internalType": "address",
          "name": "_stakingChef",
          "type": "address"
        }
      ],
      "name": "setStakingChef",
      "outputs": [],
      "stateMutability": "nonpayable",
      "type": "function"
    },
    {
      "inputs": [],
      "name": "smartWalletChecker",
      "outputs": [
        {
          "internalType": "address",
          "name": "",
          "type": "address"
        }
      ],
      "stateMutability": "view",
      "type": "function"
    },
    {
      "inputs": [],
      "name": "stakingChef",
      "outputs": [
        {
          "internalType": "contract ICaviarChef",
          "name": "",
          "type": "address"
        }
      ],
      "stateMutability": "view",
      "type": "function"
    },
    {
      "inputs": [
        {
          "internalType": "address",
          "name": "newOwner",
          "type": "address"
        }
      ],
      "name": "transferOwnership",
      "outputs": [],
      "stateMutability": "nonpayable",
      "type": "function"
    },
    {
      "inputs": [],
      "name": "underlyingTotalSupply",
      "outputs": [
        {
          "internalType": "uint256",
          "name": "",
          "type": "uint256"
        }
      ],
      "stateMutability": "view",
      "type": "function"
    },
    {
      "inputs": [
        {
          "internalType": "address",
          "name": "from",
          "type": "address"
        },
        {
          "internalType": "address",
          "name": "to",
          "type": "address"
        }
      ],
      "name": "update",
      "outputs": [],
      "stateMutability": "nonpayable",
      "type": "function"
    },
    {
      "inputs": [
        {
          "internalType": "address",
          "name": "",
          "type": "address"
        }
      ],
      "name": "userInfo",
      "outputs": [
        {
          "internalType": "uint256",
          "name": "amount",
          "type": "uint256"
        },
        {
          "internalType": "int256",
          "name": "rewardDebt",
          "type": "int256"
        }
      ],
      "stateMutability": "view",
      "type": "function"
    }
  ],
  "transactionHash": "0xab6cf170b4876227de4749597eab0def279f14f07c04db1992a5e94b31970afa",
  "args": [],
  "numDeployments": 3,
  "solcInputHash": "6c2a9fe06fb97f87329a85320378bcfa",
  "bytecode": "0x608060405234801561001057600080fd5b5061001961001e565b6100dd565b600054610100900460ff161561008a5760405162461bcd60e51b815260206004820152602760248201527f496e697469616c697a61626c653a20636f6e747261637420697320696e697469604482015266616c697a696e6760c81b606482015260840160405180910390fd5b60005460ff908116146100db576000805460ff191660ff9081179091556040519081527f7f26b83ff96e1f2b6a682f133852f6798a09c465da95921460cefb38474024989060200160405180910390a15b565b611b71806100ec6000396000f3fe608060405234801561001057600080fd5b50600436106101985760003560e01c80638f10369a116100e3578063d984cfb61161008c578063f2fde38b11610066578063f2fde38b1461033b578063f40f0f521461034e578063f7c618c11461036157600080fd5b8063d984cfb614610300578063e0921f8514610313578063f1819bb51461032657600080fd5b80639b501723116100bd5780639b501723146102d1578063c47f0027146102da578063c640752d146102ed57600080fd5b80638f10369a146102b65780639231cf74146102bf578063939d6237146102c857600080fd5b8063715018a6116101455780637df148541161011f5780637df148541461027f5780638aee8127146102925780638da5cb5b146102a557600080fd5b8063715018a6146102395780637393f60e146102415780637710c6d81461026c57600080fd5b80635b7e8bec116101765780635b7e8bec146101fe5780635f2855a21461021357806366da58151461022657600080fd5b80631959a0021461019d578063475c326a146101de5780634def1c82146101f5575b600080fd5b6101c46101ab3660046116d5565b609b602052600090815260409020805460019091015482565b604080519283526020830191909152015b60405180910390f35b6101e760a05481565b6040519081526020016101d5565b6101e7609e5481565b61021161020c3660046116d5565b610374565b005b6102116102213660046116f2565b61040c565b6102116102343660046116f2565b610436565b61021161047a565b609a54610254906001600160a01b031681565b6040516001600160a01b0390911681526020016101d5565b61021161027a3660046116f2565b61048e565b609f54610254906001600160a01b031681565b6102116102a03660046116d5565b61049b565b6033546001600160a01b0316610254565b6101e7609c5481565b6101e760985481565b6101e760975481565b6101e7609d5481565b6102116102e83660046117ae565b61052a565b6102116102fb3660046117e3565b610542565b61021161030e3660046117e3565b61069e565b61021161032136600461181c565b6107da565b61032e610961565b6040516101d5919061189a565b6102116103493660046116d5565b6109ef565b6101e761035c3660046116d5565b610a7c565b609954610254906001600160a01b031681565b61037c610b52565b6001600160a01b0381166103dd5760405162461bcd60e51b81526004016103d49060208082526004908201527f7a65726f00000000000000000000000000000000000000000000000000000000604082015260600190565b60405180910390fd5b609a805473ffffffffffffffffffffffffffffffffffffffff19166001600160a01b0392909216919091179055565b609954610424906001600160a01b0316333084610bac565b80156104335761043381610c5d565b50565b61043e610b52565b609c8190556040518181527fde89cb17ac7f58f94792b3e91e086ed85403819c24ceea882491f960ccb1a278906020015b60405180910390a150565b610482610b52565b61048c6000610d0f565b565b610496610b52565b609d55565b6104a3610b52565b6001600160a01b0381166104fb5760405162461bcd60e51b81526004016103d49060208082526004908201527f7a65726f00000000000000000000000000000000000000000000000000000000604082015260600190565b6099805473ffffffffffffffffffffffffffffffffffffffff19166001600160a01b0392909216919091179055565b610532610b52565b60a161053e8282611955565b5050565b609a546001600160a01b0316331461059c5760405162461bcd60e51b815260206004820152600b60248201527f41757468206661696c656400000000000000000000000000000000000000000060448201526064016103d4565b6105a4610d6e565b609a546040517f1959a0020000000000000000000000000000000000000000000000000000000081526001600160a01b0383811660048301526000921690631959a002906024016040805180830381865afa158015610607573d6000803e3d6000fd5b505050506040513d601f19601f8201168201806040525081019061062b9190611a15565b506001600160a01b0383166000908152609b60205260409020805491925090821115610674578054600090610661908490610dc7565b905061066e818686610ddc565b50610692565b80546000906106839084610dc7565b9050610690818686610eaf565b505b505061053e6001606555565b609a546001600160a01b031633146106f85760405162461bcd60e51b815260206004820152600b60248201527f41757468206661696c656400000000000000000000000000000000000000000060448201526064016103d4565b610700610d6e565b610708610f7b565b6001600160a01b0382166000908152609b602052604081206097548154919291670de0b6b3a76400009161073c9190611057565b6107469190611a4f565b9050600061076961076484600101548461106390919063ffffffff16565b611109565b6001840183905560995490915061078a906001600160a01b0316858361115f565b846001600160a01b03167fc9695243a805adb74c91f28311176c65b417e842d5699893cef56d18bfa48cba826040516107c591815260200190565b60405180910390a250505061053e6001606555565b600054610100900460ff16158080156107fa5750600054600160ff909116105b806108145750303b158015610814575060005460ff166001145b6108865760405162461bcd60e51b815260206004820152602e60248201527f496e697469616c697a61626c653a20636f6e747261637420697320616c72656160448201527f647920696e697469616c697a656400000000000000000000000000000000000060648201526084016103d4565b600080547fffffffffffffffffffffffffffffffffffffffffffffffffffffffffffffff0016600117905580156108c7576000805461ff0019166101001790555b6108cf6111ad565b6108d7611220565b60a16108e38582611955565b506099805473ffffffffffffffffffffffffffffffffffffffff19166001600160a01b038516179055609d82905542609855801561095b576000805461ff0019169055604051600181527f7f26b83ff96e1f2b6a682f133852f6798a09c465da95921460cefb38474024989060200160405180910390a15b50505050565b60a1805461096e906118cd565b80601f016020809104026020016040519081016040528092919081815260200182805461099a906118cd565b80156109e75780601f106109bc576101008083540402835291602001916109e7565b820191906000526020600020905b8154815290600101906020018083116109ca57829003601f168201915b505050505081565b6109f7610b52565b6001600160a01b038116610a735760405162461bcd60e51b815260206004820152602660248201527f4f776e61626c653a206e6577206f776e657220697320746865207a65726f206160448201527f646472657373000000000000000000000000000000000000000000000000000060648201526084016103d4565b61043381610d0f565b6001600160a01b0381166000908152609b60205260408120609754609e5483904211610aa85742610aac565b609e545b9050609854811115610b1657609854610ac6908290610dc7565b90506000610adf609c548361105790919063ffffffff16565b9050610b12610b0b60a054610b05670de0b6b3a76400008561105790919063ffffffff16565b90611293565b849061129f565b9250505b60018301548354610b499161076491670de0b6b3a764000090610b399087611057565b610b439190611a4f565b90611063565b95945050505050565b6033546001600160a01b0316331461048c5760405162461bcd60e51b815260206004820181905260248201527f4f776e61626c653a2063616c6c6572206973206e6f7420746865206f776e657260448201526064016103d4565b6040516001600160a01b038085166024830152831660448201526064810182905261095b9085907f23b872dd00000000000000000000000000000000000000000000000000000000906084015b60408051601f198184030181529190526020810180517bffffffffffffffffffffffffffffffffffffffffffffffffffffffff167fffffffff00000000000000000000000000000000000000000000000000000000909316929092179091526112ab565b610c65610f7b565b6000609e54118015610c785750609e5442105b15610cb257609e54600090610c8d9042610dc7565b9050610cae610ca782609c5461105790919063ffffffff16565b839061129f565b9150505b609d54610cc0908290611293565b609c55609d54610cd190429061129f565b609e55610cdc610f7b565b7fde89cb17ac7f58f94792b3e91e086ed85403819c24ceea882491f960ccb1a278609c5460405161046f91815260200190565b603380546001600160a01b0383811673ffffffffffffffffffffffffffffffffffffffff19831681179093556040519116919082907f8be0079c531659141344cd1fd0a4f28419497f9722a3daafe3b4186f6b6457e090600090a35050565b600260655403610dc05760405162461bcd60e51b815260206004820152601f60248201527f5265656e7472616e637947756172643a207265656e7472616e742063616c6c0060448201526064016103d4565b6002606555565b6000610dd38284611a71565b90505b92915050565b610de4610f7b565b6001600160a01b0381166000908152609b602052604090208054610e08908561129f565b8155609754610e3b90670de0b6b3a764000090610e26908790611057565b610e309190611a4f565b600183015490611393565b81600101819055508360a06000828254610e559190611a84565b92505081905550816001600160a01b0316836001600160a01b03167fe31c7b8d08ee7db0afa68782e1028ef92305caeea8626633ad44d413e30f6b2f86604051610ea191815260200190565b60405180910390a350505050565b610eb7610f7b565b6001600160a01b0382166000908152609b60205260409020609754610f0090670de0b6b3a764000090610eeb908790611057565b610ef59190611a4f565b600183015490611063565b60018201558054610f119085610dc7565b815560a08054859190600090610f28908490611a71565b92505081905550816001600160a01b0316836001600160a01b03167f56c54ba9bd38d8fd62012e42c7ee564519b09763c426d331b3661b537ead19b286604051610ea191815260200190565b6001606555565b60985442111561048c5760a0541561100b576000609e544211610f9e5742610fa2565b609e545b905060985481111561100957609854610fbc908290610dc7565b90506000610fd5609c548361105790919063ffffffff16565b9050611004610ffb60a054610b05670de0b6b3a76400008561105790919063ffffffff16565b6097549061129f565b609755505b505b42609881905560a05460975460408051938452602084019290925282820152517f1f2d1a9fde053af46b5db3dc92a8aa8696e56a677998fdd1311b45be341f78539181900360600190a1565b6000610dd38284611a97565b6000806110708385611aae565b9050600083121580156110835750838113155b80611098575060008312801561109857508381135b610dd35760405162461bcd60e51b8152602060048201526024808201527f5369676e6564536166654d6174683a207375627472616374696f6e206f76657260448201527f666c6f770000000000000000000000000000000000000000000000000000000060648201526084016103d4565b60008082121561115b5760405162461bcd60e51b815260206004820152600b60248201527f496e7465676572203c203000000000000000000000000000000000000000000060448201526064016103d4565b5090565b6040516001600160a01b0383166024820152604481018290526111a89084907fa9059cbb0000000000000000000000000000000000000000000000000000000090606401610bf9565b505050565b600054610100900460ff166112185760405162461bcd60e51b815260206004820152602b60248201527f496e697469616c697a61626c653a20636f6e7472616374206973206e6f74206960448201526a6e697469616c697a696e6760a81b60648201526084016103d4565b61048c61143a565b600054610100900460ff1661128b5760405162461bcd60e51b815260206004820152602b60248201527f496e697469616c697a61626c653a20636f6e7472616374206973206e6f74206960448201526a6e697469616c697a696e6760a81b60648201526084016103d4565b61048c6114ae565b6000610dd38284611a4f565b6000610dd38284611a84565b6000611300826040518060400160405280602081526020017f5361666545524332303a206c6f772d6c6576656c2063616c6c206661696c6564815250856001600160a01b03166115199092919063ffffffff16565b90508051600014806113215750808060200190518101906113219190611ad5565b6111a85760405162461bcd60e51b815260206004820152602a60248201527f5361666545524332303a204552433230206f7065726174696f6e20646964206e60448201527f6f7420737563636565640000000000000000000000000000000000000000000060648201526084016103d4565b6000806113a08385611af7565b9050600083121580156113b35750838112155b806113c857506000831280156113c857508381125b610dd35760405162461bcd60e51b815260206004820152602160248201527f5369676e6564536166654d6174683a206164646974696f6e206f766572666c6f60448201527f770000000000000000000000000000000000000000000000000000000000000060648201526084016103d4565b600054610100900460ff166114a55760405162461bcd60e51b815260206004820152602b60248201527f496e697469616c697a61626c653a20636f6e7472616374206973206e6f74206960448201526a6e697469616c697a696e6760a81b60648201526084016103d4565b61048c33610d0f565b600054610100900460ff16610f745760405162461bcd60e51b815260206004820152602b60248201527f496e697469616c697a61626c653a20636f6e7472616374206973206e6f74206960448201526a6e697469616c697a696e6760a81b60648201526084016103d4565b60606115288484600085611530565b949350505050565b6060824710156115a85760405162461bcd60e51b815260206004820152602660248201527f416464726573733a20696e73756666696369656e742062616c616e636520666f60448201527f722063616c6c000000000000000000000000000000000000000000000000000060648201526084016103d4565b600080866001600160a01b031685876040516115c49190611b1f565b60006040518083038185875af1925050503d8060008114611601576040519150601f19603f3d011682016040523d82523d6000602084013e611606565b606091505b509150915061161787838387611622565b979650505050505050565b6060831561169157825160000361168a576001600160a01b0385163b61168a5760405162461bcd60e51b815260206004820152601d60248201527f416464726573733a2063616c6c20746f206e6f6e2d636f6e747261637400000060448201526064016103d4565b5081611528565b61152883838151156116a65781518083602001fd5b8060405162461bcd60e51b81526004016103d4919061189a565b6001600160a01b038116811461043357600080fd5b6000602082840312156116e757600080fd5b8135610dd3816116c0565b60006020828403121561170457600080fd5b5035919050565b634e487b7160e01b600052604160045260246000fd5b600082601f83011261173257600080fd5b813567ffffffffffffffff8082111561174d5761174d61170b565b604051601f8301601f19908116603f011681019082821181831017156117755761177561170b565b8160405283815286602085880101111561178e57600080fd5b836020870160208301376000602085830101528094505050505092915050565b6000602082840312156117c057600080fd5b813567ffffffffffffffff8111156117d757600080fd5b61152884828501611721565b600080604083850312156117f657600080fd5b8235611801816116c0565b91506020830135611811816116c0565b809150509250929050565b60008060006060848603121561183157600080fd5b833567ffffffffffffffff81111561184857600080fd5b61185486828701611721565b9350506020840135611865816116c0565b929592945050506040919091013590565b60005b83811015611891578181015183820152602001611879565b50506000910152565b60208152600082518060208401526118b9816040850160208701611876565b601f01601f19169190910160400192915050565b600181811c908216806118e157607f821691505b60208210810361190157634e487b7160e01b600052602260045260246000fd5b50919050565b601f8211156111a857600081815260208120601f850160051c8101602086101561192e5750805b601f850160051c820191505b8181101561194d5782815560010161193a565b505050505050565b815167ffffffffffffffff81111561196f5761196f61170b565b6119838161197d84546118cd565b84611907565b602080601f8311600181146119b857600084156119a05750858301515b600019600386901b1c1916600185901b17855561194d565b600085815260208120601f198616915b828110156119e7578886015182559484019460019091019084016119c8565b5085821015611a055787850151600019600388901b60f8161c191681555b5050505050600190811b01905550565b60008060408385031215611a2857600080fd5b505080516020909101519092909150565b634e487b7160e01b600052601160045260246000fd5b600082611a6c57634e487b7160e01b600052601260045260246000fd5b500490565b81810381811115610dd657610dd6611a39565b80820180821115610dd657610dd6611a39565b8082028115828204841417610dd657610dd6611a39565b8181036000831280158383131683831282161715611ace57611ace611a39565b5092915050565b600060208284031215611ae757600080fd5b81518015158114610dd357600080fd5b8082018281126000831280158216821582161715611b1757611b17611a39565b505092915050565b60008251611b31818460208701611876565b919091019291505056fea2646970667358221220763619bf4eedf53f230d8713f51a869d412e4dfbbd9ce1525fcbe6111bcffd0264736f6c63430008130033",
  "devdoc": {
    "events": {
      "Initialized(uint8)": {
        "details": "Triggered when the contract has been initialized or reinitialized."
      }
    },
    "kind": "dev",
    "methods": {
      "owner()": {
        "details": "Returns the address of the current owner."
      },
      "renounceOwnership()": {
        "details": "Leaves the contract without owner. It will not be possible to call `onlyOwner` functions. Can only be called by the current owner. NOTE: Renouncing ownership will leave the contract without an owner, thereby disabling any functionality that is only available to the owner."
      },
      "setRewardPerSecond(uint256)": {
        "params": {
          "_rewardPerSecond": "The amount of Reward to be distributed per second."
        }
      },
      "transferOwnership(address)": {
        "details": "Transfers ownership of the contract to a new account (`newOwner`). Can only be called by the current owner."
      }
    },
    "version": 1
  },
  "userdoc": {
    "kind": "user",
    "methods": {
      "rewardToken()": {
        "notice": "Address of rewardToken contract."
      },
      "setRewardPerSecond(uint256)": {
        "notice": "Sets the reward per second to be distributed. Can only be called by the owner."
      },
      "stakingChef()": {
        "notice": "Address of the staking Chef."
      },
      "userInfo(address)": {
        "notice": "Info of each user that stakes LP tokens."
      }
    },
    "version": 1
  },
  "storageLayout": {
    "storage": [
      {
        "astId": 138,
        "contract": "contracts/CaviarRebaseChef.sol:CaviarRebaseChef",
        "label": "_initialized",
        "offset": 0,
        "slot": "0",
        "type": "t_uint8"
      },
      {
        "astId": 141,
        "contract": "contracts/CaviarRebaseChef.sol:CaviarRebaseChef",
        "label": "_initializing",
        "offset": 1,
        "slot": "0",
        "type": "t_bool"
      },
      {
        "astId": 1882,
        "contract": "contracts/CaviarRebaseChef.sol:CaviarRebaseChef",
        "label": "__gap",
        "offset": 0,
        "slot": "1",
        "type": "t_array(t_uint256)50_storage"
      },
      {
        "astId": 10,
        "contract": "contracts/CaviarRebaseChef.sol:CaviarRebaseChef",
        "label": "_owner",
        "offset": 0,
        "slot": "51",
        "type": "t_address"
      },
      {
        "astId": 130,
        "contract": "contracts/CaviarRebaseChef.sol:CaviarRebaseChef",
        "label": "__gap",
        "offset": 0,
        "slot": "52",
        "type": "t_array(t_uint256)49_storage"
      },
      {
        "astId": 314,
        "contract": "contracts/CaviarRebaseChef.sol:CaviarRebaseChef",
        "label": "_status",
        "offset": 0,
        "slot": "101",
        "type": "t_uint256"
      },
      {
        "astId": 383,
        "contract": "contracts/CaviarRebaseChef.sol:CaviarRebaseChef",
        "label": "__gap",
        "offset": 0,
        "slot": "102",
        "type": "t_array(t_uint256)49_storage"
      },
      {
        "astId": 11778,
        "contract": "contracts/CaviarRebaseChef.sol:CaviarRebaseChef",
        "label": "accRewardPerShare",
        "offset": 0,
        "slot": "151",
        "type": "t_uint256"
      },
      {
        "astId": 11780,
        "contract": "contracts/CaviarRebaseChef.sol:CaviarRebaseChef",
        "label": "lastRewardTime",
        "offset": 0,
        "slot": "152",
        "type": "t_uint256"
      },
      {
        "astId": 11784,
        "contract": "contracts/CaviarRebaseChef.sol:CaviarRebaseChef",
        "label": "rewardToken",
        "offset": 0,
        "slot": "153",
        "type": "t_contract(IERC20)3028"
      },
      {
        "astId": 11788,
        "contract": "contracts/CaviarRebaseChef.sol:CaviarRebaseChef",
        "label": "stakingChef",
        "offset": 0,
        "slot": "154",
        "type": "t_contract(ICaviarChef)13842"
      },
      {
        "astId": 11794,
        "contract": "contracts/CaviarRebaseChef.sol:CaviarRebaseChef",
        "label": "userInfo",
        "offset": 0,
        "slot": "155",
        "type": "t_mapping(t_address,t_struct(UserInfo)11773_storage)"
      },
      {
        "astId": 11796,
        "contract": "contracts/CaviarRebaseChef.sol:CaviarRebaseChef",
        "label": "rewardPerSecond",
        "offset": 0,
        "slot": "156",
        "type": "t_uint256"
      },
      {
        "astId": 11798,
        "contract": "contracts/CaviarRebaseChef.sol:CaviarRebaseChef",
        "label": "distributionPeriod",
        "offset": 0,
        "slot": "157",
        "type": "t_uint256"
      },
      {
        "astId": 11800,
        "contract": "contracts/CaviarRebaseChef.sol:CaviarRebaseChef",
        "label": "lastDistributedTime",
        "offset": 0,
        "slot": "158",
        "type": "t_uint256"
      },
      {
        "astId": 11802,
        "contract": "contracts/CaviarRebaseChef.sol:CaviarRebaseChef",
        "label": "smartWalletChecker",
        "offset": 0,
        "slot": "159",
        "type": "t_address"
      },
      {
        "astId": 11804,
        "contract": "contracts/CaviarRebaseChef.sol:CaviarRebaseChef",
        "label": "underlyingTotalSupply",
        "offset": 0,
        "slot": "160",
        "type": "t_uint256"
      },
      {
        "astId": 11848,
        "contract": "contracts/CaviarRebaseChef.sol:CaviarRebaseChef",
        "label": "__NAME__",
        "offset": 0,
        "slot": "161",
        "type": "t_string_storage"
      }
    ],
    "types": {
      "t_address": {
        "encoding": "inplace",
        "label": "address",
        "numberOfBytes": "20"
      },
      "t_array(t_uint256)49_storage": {
        "base": "t_uint256",
        "encoding": "inplace",
        "label": "uint256[49]",
        "numberOfBytes": "1568"
      },
      "t_array(t_uint256)50_storage": {
        "base": "t_uint256",
        "encoding": "inplace",
        "label": "uint256[50]",
        "numberOfBytes": "1600"
      },
      "t_bool": {
        "encoding": "inplace",
        "label": "bool",
        "numberOfBytes": "1"
      },
      "t_contract(ICaviarChef)13842": {
        "encoding": "inplace",
        "label": "contract ICaviarChef",
        "numberOfBytes": "20"
      },
      "t_contract(IERC20)3028": {
        "encoding": "inplace",
        "label": "contract IERC20",
        "numberOfBytes": "20"
      },
      "t_int256": {
        "encoding": "inplace",
        "label": "int256",
        "numberOfBytes": "32"
      },
      "t_mapping(t_address,t_struct(UserInfo)11773_storage)": {
        "encoding": "mapping",
        "key": "t_address",
        "label": "mapping(address => struct CaviarRebaseChef.UserInfo)",
        "numberOfBytes": "32",
        "value": "t_struct(UserInfo)11773_storage"
      },
      "t_string_storage": {
        "encoding": "bytes",
        "label": "string",
        "numberOfBytes": "32"
      },
      "t_struct(UserInfo)11773_storage": {
        "encoding": "inplace",
        "label": "struct CaviarRebaseChef.UserInfo",
        "members": [
          {
            "astId": 11770,
            "contract": "contracts/CaviarRebaseChef.sol:CaviarRebaseChef",
            "label": "amount",
            "offset": 0,
            "slot": "0",
            "type": "t_uint256"
          },
          {
            "astId": 11772,
            "contract": "contracts/CaviarRebaseChef.sol:CaviarRebaseChef",
            "label": "rewardDebt",
            "offset": 0,
            "slot": "1",
            "type": "t_int256"
          }
        ],
        "numberOfBytes": "64"
      },
      "t_uint256": {
        "encoding": "inplace",
        "label": "uint256",
        "numberOfBytes": "32"
      },
      "t_uint8": {
        "encoding": "inplace",
        "label": "uint8",
        "numberOfBytes": "1"
      }
    }
  }
}