{
  "address": "0xd52e7030E5C7592a8d855832775c69cb7E888877",
  "abi": [
    {
      "inputs": [],
      "stateMutability": "nonpayable",
      "type": "constructor"
    },
    {
      "anonymous": false,
      "inputs": [
        {
          "indexed": true,
          "internalType": "address",
          "name": "user",
          "type": "address"
        },
        {
          "indexed": false,
          "internalType": "uint256",
          "name": "amount",
          "type": "uint256"
        },
        {
          "indexed": true,
          "internalType": "address",
          "name": "to",
          "type": "address"
        }
      ],
      "name": "Deposit",
      "type": "event"
    },
    {
      "anonymous": false,
      "inputs": [
        {
          "indexed": true,
          "internalType": "address",
          "name": "user",
          "type": "address"
        },
        {
          "indexed": false,
          "internalType": "uint256",
          "name": "amount",
          "type": "uint256"
        }
      ],
      "name": "Harvest",
      "type": "event"
    },
    {
      "anonymous": false,
      "inputs": [
        {
          "indexed": false,
          "internalType": "uint8",
          "name": "version",
          "type": "uint8"
        }
      ],
      "name": "Initialized",
      "type": "event"
    },
    {
      "anonymous": false,
      "inputs": [
        {
          "indexed": false,
          "internalType": "uint256",
          "name": "rewardPerSecond",
          "type": "uint256"
        }
      ],
      "name": "LogRewardPerSecond",
      "type": "event"
    },
    {
      "anonymous": false,
      "inputs": [
        {
          "indexed": false,
          "internalType": "uint256",
          "name": "lastRewardTime",
          "type": "uint256"
        },
        {
          "indexed": false,
          "internalType": "uint256",
          "name": "underlyingSupply",
          "type": "uint256"
        },
        {
          "indexed": false,
          "internalType": "uint256",
          "name": "accRewardPerShare",
          "type": "uint256"
        }
      ],
      "name": "LogUpdatePool",
      "type": "event"
    },
    {
      "anonymous": false,
      "inputs": [
        {
          "indexed": true,
          "internalType": "address",
          "name": "previousOwner",
          "type": "address"
        },
        {
          "indexed": true,
          "internalType": "address",
          "name": "newOwner",
          "type": "address"
        }
      ],
      "name": "OwnershipTransferred",
      "type": "event"
    },
    {
      "anonymous": false,
      "inputs": [
        {
          "indexed": true,
          "internalType": "address",
          "name": "user",
          "type": "address"
        },
        {
          "indexed": false,
          "internalType": "uint256",
          "name": "amount",
          "type": "uint256"
        },
        {
          "indexed": true,
          "internalType": "address",
          "name": "to",
          "type": "address"
        }
      ],
      "name": "Withdraw",
      "type": "event"
    },
    {
      "inputs": [],
      "name": "__NAME__",
      "outputs": [
        {
          "internalType": "string",
          "name": "",
          "type": "string"
        }
      ],
      "stateMutability": "view",
      "type": "function"
    },
    {
      "inputs": [],
      "name": "accRewardPerShare",
      "outputs": [
        {
          "internalType": "uint256",
          "name": "",
          "type": "uint256"
        }
      ],
      "stateMutability": "view",
      "type": "function"
    },
    {
      "inputs": [
        {
          "internalType": "uint256",
          "name": "amount",
          "type": "uint256"
        },
        {
          "internalType": "address",
          "name": "to",
          "type": "address"
        }
      ],
      "name": "deposit",
      "outputs": [],
      "stateMutability": "nonpayable",
      "type": "function"
    },
    {
      "inputs": [],
      "name": "distributionPeriod",
      "outputs": [
        {
          "internalType": "uint256",
          "name": "",
          "type": "uint256"
        }
      ],
      "stateMutability": "view",
      "type": "function"
    },
    {
      "inputs": [],
      "name": "gaugeForLP",
      "outputs": [
        {
          "internalType": "address",
          "name": "",
          "type": "address"
        }
      ],
      "stateMutability": "view",
      "type": "function"
    },
    {
      "inputs": [
        {
          "internalType": "address",
          "name": "to",
          "type": "address"
        }
      ],
      "name": "harvest",
      "outputs": [],
      "stateMutability": "nonpayable",
      "type": "function"
    },
    {
      "inputs": [
        {
          "internalType": "string",
          "name": "_name",
          "type": "string"
        },
        {
          "internalType": "contract IERC20",
          "name": "_rewardToken",
          "type": "address"
        },
        {
          "internalType": "contract IERC20",
          "name": "_underlying",
          "type": "address"
        },
        {
          "internalType": "uint256",
          "name": "_distributionPeriod",
          "type": "uint256"
        }
      ],
      "name": "initialize",
      "outputs": [],
      "stateMutability": "nonpayable",
      "type": "function"
    },
    {
      "inputs": [],
      "name": "lastDistributedTime",
      "outputs": [
        {
          "internalType": "uint256",
          "name": "",
          "type": "uint256"
        }
      ],
      "stateMutability": "view",
      "type": "function"
    },
    {
      "inputs": [],
      "name": "lastRewardTime",
      "outputs": [
        {
          "internalType": "uint256",
          "name": "",
          "type": "uint256"
        }
      ],
      "stateMutability": "view",
      "type": "function"
    },
    {
      "inputs": [],
      "name": "owner",
      "outputs": [
        {
          "internalType": "address",
          "name": "",
          "type": "address"
        }
      ],
      "stateMutability": "view",
      "type": "function"
    },
    {
      "inputs": [
        {
          "internalType": "address",
          "name": "_user",
          "type": "address"
        }
      ],
      "name": "pendingReward",
      "outputs": [
        {
          "internalType": "uint256",
          "name": "pending",
          "type": "uint256"
        }
      ],
      "stateMutability": "view",
      "type": "function"
    },
    {
      "inputs": [],
      "name": "rebaseChef",
      "outputs": [
        {
          "internalType": "contract ICaviarChef",
          "name": "",
          "type": "address"
        }
      ],
      "stateMutability": "view",
      "type": "function"
    },
    {
      "inputs": [],
      "name": "renounceOwnership",
      "outputs": [],
      "stateMutability": "nonpayable",
      "type": "function"
    },
    {
      "inputs": [],
      "name": "rewardPerSecond",
      "outputs": [
        {
          "internalType": "uint256",
          "name": "",
          "type": "uint256"
        }
      ],
      "stateMutability": "view",
      "type": "function"
    },
    {
      "inputs": [],
      "name": "rewardToken",
      "outputs": [
        {
          "internalType": "contract IERC20",
          "name": "",
          "type": "address"
        }
      ],
      "stateMutability": "view",
      "type": "function"
    },
    {
      "inputs": [
        {
          "internalType": "uint256",
          "name": "_amount",
          "type": "uint256"
        }
      ],
      "name": "seedRewards",
      "outputs": [],
      "stateMutability": "nonpayable",
      "type": "function"
    },
    {
      "inputs": [
        {
          "internalType": "uint256",
          "name": "_distributionPeriod",
          "type": "uint256"
        }
      ],
      "name": "setDistributionPeriod",
      "outputs": [],
      "stateMutability": "nonpayable",
      "type": "function"
    },
    {
      "inputs": [
        {
          "internalType": "address",
          "name": "_gaugeForLP",
          "type": "address"
        }
      ],
      "name": "setGaugeForLP",
      "outputs": [],
      "stateMutability": "nonpayable",
      "type": "function"
    },
    {
      "inputs": [
        {
          "internalType": "string",
          "name": "_name",
          "type": "string"
        }
      ],
      "name": "setName",
      "outputs": [],
      "stateMutability": "nonpayable",
      "type": "function"
    },
    {
      "inputs": [
        {
          "internalType": "address",
          "name": "_rebaseChef",
          "type": "address"
        }
      ],
      "name": "setRebaseChef",
      "outputs": [],
      "stateMutability": "nonpayable",
      "type": "function"
    },
    {
      "inputs": [
        {
          "internalType": "uint256",
          "name": "_rewardPerSecond",
          "type": "uint256"
        }
      ],
      "name": "setRewardPerSecond",
      "outputs": [],
      "stateMutability": "nonpayable",
      "type": "function"
    },
    {
      "inputs": [
        {
          "internalType": "address",
          "name": "_rewardToken",
          "type": "address"
        }
      ],
      "name": "setRewardToken",
      "outputs": [],
      "stateMutability": "nonpayable",
      "type": "function"
    },
    {
      "inputs": [
        {
          "internalType": "address",
          "name": "_underlying",
          "type": "address"
        }
      ],
      "name": "setUnderlyingToken",
      "outputs": [],
      "stateMutability": "nonpayable",
      "type": "function"
    },
    {
      "inputs": [],
      "name": "smartWalletChecker",
      "outputs": [
        {
          "internalType": "address",
          "name": "",
          "type": "address"
        }
      ],
      "stateMutability": "view",
      "type": "function"
    },
    {
      "inputs": [
        {
          "internalType": "address",
          "name": "newOwner",
          "type": "address"
        }
      ],
      "name": "transferOwnership",
      "outputs": [],
      "stateMutability": "nonpayable",
      "type": "function"
    },
    {
      "inputs": [],
      "name": "underlying",
      "outputs": [
        {
          "internalType": "contract IERC20",
          "name": "",
          "type": "address"
        }
      ],
      "stateMutability": "view",
      "type": "function"
    },
    {
      "inputs": [
        {
          "internalType": "address",
          "name": "",
          "type": "address"
        }
      ],
      "name": "userInfo",
      "outputs": [
        {
          "internalType": "uint256",
          "name": "amount",
          "type": "uint256"
        },
        {
          "internalType": "int256",
          "name": "rewardDebt",
          "type": "int256"
        }
      ],
      "stateMutability": "view",
      "type": "function"
    },
    {
      "inputs": [
        {
          "internalType": "uint256",
          "name": "amount",
          "type": "uint256"
        },
        {
          "internalType": "address",
          "name": "to",
          "type": "address"
        }
      ],
      "name": "withdraw",
      "outputs": [],
      "stateMutability": "nonpayable",
      "type": "function"
    },
    {
      "inputs": [
        {
          "internalType": "uint256",
          "name": "amount",
          "type": "uint256"
        },
        {
          "internalType": "address",
          "name": "to",
          "type": "address"
        }
      ],
      "name": "withdrawAndHarvest",
      "outputs": [],
      "stateMutability": "nonpayable",
      "type": "function"
    }
  ],
  "transactionHash": "0x681ceb7ea99618063a7894942a6d5751d0c4340b42f79fc6074df781e1db353a",
  "args": [],
  "numDeployments": 4,
  "solcInputHash": "6c2a9fe06fb97f87329a85320378bcfa",
  "bytecode": "0x608060405234801561001057600080fd5b5061001961001e565b6100dd565b600054610100900460ff161561008a5760405162461bcd60e51b815260206004820152602760248201527f496e697469616c697a61626c653a20636f6e747261637420697320696e697469604482015266616c697a696e6760c81b606482015260840160405180910390fd5b60005460ff908116146100db576000805460ff191660ff9081179091556040519081527f7f26b83ff96e1f2b6a682f133852f6798a09c465da95921460cefb38474024989060200160405180910390a15b565b6120f180620000ed6000396000f3fe608060405234801561001057600080fd5b50600436106101ce5760003560e01c80637ff7e61611610104578063bec29caf116100a2578063f1819bb511610071578063f1819bb5146103c5578063f2fde38b146103da578063f40f0f52146103ed578063f7c618c11461040057600080fd5b8063bec29caf14610379578063c1f3d9631461038c578063c47f00271461039f578063ef1f096d146103b257600080fd5b80638f10369a116100de5780638f10369a146103555780639231cf741461035e578063939d6237146103675780639b5017231461037057600080fd5b80637ff7e6161461031e5780638aee8127146103315780638da5cb5b1461034457600080fd5b806366da581511610171578063715018a61161014b578063715018a6146102dd5780637710c6d8146102e55780637df14854146102f85780637e08b86f1461030b57600080fd5b806366da5815146102a45780636e553f65146102b75780636f307dc3146102ca57600080fd5b80631959a002116101ad5780631959a0021461022b5780632b4a6c51146102675780634def1c821461027a5780635f2855a21461029157600080fd5b8062f714ce146101d35780630e5c011e146101e857806310cc22c3146101fb575b600080fd5b6101e66101e1366004611c59565b610413565b005b6101e66101f6366004611c89565b610542565b60a15461020e906001600160a01b031681565b6040516001600160a01b0390911681526020015b60405180910390f35b610252610239366004611c89565b609c602052600090815260409020805460019091015482565b60408051928352602083019190915201610222565b6101e6610275366004611c89565b61070d565b610283609f5481565b604051908152602001610222565b6101e661029f366004611ca6565b61078c565b6101e66102b2366004611ca6565b6107b3565b6101e66102c5366004611c59565b6107f7565b609a5461020e906001600160a01b031681565b6101e661091d565b6101e66102f3366004611ca6565b610931565b60a05461020e906001600160a01b031681565b609b5461020e906001600160a01b031681565b6101e661032c366004611d62565b61093e565b6101e661033f366004611c89565b610adb565b6033546001600160a01b031661020e565b610283609d5481565b61028360985481565b61028360975481565b610283609e5481565b6101e6610387366004611c89565b610b51565b6101e661039a366004611c59565b610bc7565b6101e66103ad366004611dcc565b610efa565b6101e66103c0366004611c89565b610f0e565b6103cd610f84565b6040516102229190611e25565b6101e66103e8366004611c89565b611012565b6102836103fb366004611c89565b61109f565b60995461020e906001600160a01b031681565b61041b6111f5565b61042361124e565b336000908152609c6020526040902060975461046390670de0b6b3a76400009061044e90869061139d565b6104589190611e6e565b6001830154906113b2565b600182015580546104749084611458565b8155609a5461048d906001600160a01b03168385611464565b609b5460405163c640752d60e01b81523360048201526001600160a01b0384811660248301529091169063c640752d90604401600060405180830381600087803b1580156104da57600080fd5b505af11580156104ee573d6000803e3d6000fd5b50506040518581526001600160a01b03851692503391507f56c54ba9bd38d8fd62012e42c7ee564519b09763c426d331b3661b537ead19b2906020015b60405180910390a35061053e6001606555565b5050565b61054a6111f5565b61055261124e565b336000908152609c602052604081206097548154919291670de0b6b3a76400009161057d919061139d565b6105879190611e6e565b905060006105aa6105a58460010154846113b290919063ffffffff16565b611519565b609b546040517fd984cfb60000000000000000000000000000000000000000000000000000000081523360048201526001600160a01b03878116602483015292935091169063d984cfb690604401600060405180830381600087803b15801561061257600080fd5b505af1158015610626573d6000803e3d6000fd5b50505050600183018290556099546040517fba087652000000000000000000000000000000000000000000000000000000008152600481018390526001600160a01b0386811660248301523060448301529091169063ba087652906064016020604051808303816000875af11580156106a3573d6000803e3d6000fd5b505050506040513d601f19601f820116820180604052508101906106c79190611e90565b5060405181815233907fc9695243a805adb74c91f28311176c65b417e842d5699893cef56d18bfa48cba9060200160405180910390a250505061070a6001606555565b50565b61071561156f565b6001600160a01b03811661075d5760405162461bcd60e51b8152600401610754906020808252600490820152637a65726f60e01b604082015260600190565b60405180910390fd5b609a805473ffffffffffffffffffffffffffffffffffffffff19166001600160a01b0392909216919091179055565b6099546107a4906001600160a01b03163330846115c9565b801561070a5761070a81611620565b6107bb61156f565b609d8190556040518181527fde89cb17ac7f58f94792b3e91e086ed85403819c24ceea882491f960ccb1a278906020015b60405180910390a150565b6107ff6111f5565b61080761124e565b6001600160a01b0381166000908152609c60205260409020805461082b90846116d2565b815560975461085e90670de0b6b3a76400009061084990869061139d565b6108539190611e6e565b6001830154906116de565b6001820155609a5461087b906001600160a01b03163330866115c9565b609b5460405163c640752d60e01b81523360048201526001600160a01b0384811660248301529091169063c640752d90604401600060405180830381600087803b1580156108c857600080fd5b505af11580156108dc573d6000803e3d6000fd5b50506040518581526001600160a01b03851692503391507fe31c7b8d08ee7db0afa68782e1028ef92305caeea8626633ad44d413e30f6b2f9060200161052b565b61092561156f565b61092f6000611785565b565b61093961156f565b609e55565b600054610100900460ff161580801561095e5750600054600160ff909116105b806109785750303b158015610978575060005460ff166001145b6109ea5760405162461bcd60e51b815260206004820152602e60248201527f496e697469616c697a61626c653a20636f6e747261637420697320616c72656160448201527f647920696e697469616c697a65640000000000000000000000000000000000006064820152608401610754565b600080547fffffffffffffffffffffffffffffffffffffffffffffffffffffffffffffff001660011790558015610a2b576000805461ff0019166101001790555b610a336117e4565b610a3b611857565b60a2610a478682611f31565b50609980546001600160a01b0380871673ffffffffffffffffffffffffffffffffffffffff1992831617909255609e849055609a805492861692909116919091179055426098558015610ad4576000805461ff0019169055604051600181527f7f26b83ff96e1f2b6a682f133852f6798a09c465da95921460cefb38474024989060200160405180910390a15b5050505050565b610ae361156f565b6001600160a01b038116610b225760405162461bcd60e51b8152600401610754906020808252600490820152637a65726f60e01b604082015260600190565b6099805473ffffffffffffffffffffffffffffffffffffffff19166001600160a01b0392909216919091179055565b610b5961156f565b6001600160a01b038116610b985760405162461bcd60e51b8152600401610754906020808252600490820152637a65726f60e01b604082015260600190565b60a1805473ffffffffffffffffffffffffffffffffffffffff19166001600160a01b0392909216919091179055565b610bcf6111f5565b610bd761124e565b336000908152609c602052604090208054831115610c5d5760405162461bcd60e51b815260206004820152602d60248201527f576974686472617720616d6f756e74206578636565647320746865206465706f60448201527f736974656420616d6f756e742e000000000000000000000000000000000000006064820152608401610754565b6097548154600091670de0b6b3a764000091610c789161139d565b610c829190611e6e565b90506000610ca06105a58460010154846113b290919063ffffffff16565b609b546040517fd984cfb60000000000000000000000000000000000000000000000000000000081523360048201526001600160a01b03878116602483015292935091169063d984cfb690604401600060405180830381600087803b158015610d0857600080fd5b505af1158015610d1c573d6000803e3d6000fd5b50505050610d52670de0b6b3a7640000610d416097548861139d90919063ffffffff16565b610d4b9190611e6e565b83906113b2565b60018401558254610d639086611458565b83556099546040517fba087652000000000000000000000000000000000000000000000000000000008152600481018390526001600160a01b0386811660248301523060448301529091169063ba087652906064016020604051808303816000875af1158015610dd7573d6000803e3d6000fd5b505050506040513d601f19601f82011682018060405250810190610dfb9190611e90565b50609a54610e13906001600160a01b03168587611464565b609b5460405163c640752d60e01b81523360048201526001600160a01b0386811660248301529091169063c640752d90604401600060405180830381600087803b158015610e6057600080fd5b505af1158015610e74573d6000803e3d6000fd5b50506040518781526001600160a01b03871692503391507f56c54ba9bd38d8fd62012e42c7ee564519b09763c426d331b3661b537ead19b29060200160405180910390a360405181815233907fc9695243a805adb74c91f28311176c65b417e842d5699893cef56d18bfa48cba9060200160405180910390a250505061053e6001606555565b610f0261156f565b60a261053e8282611f31565b610f1661156f565b6001600160a01b038116610f555760405162461bcd60e51b8152600401610754906020808252600490820152637a65726f60e01b604082015260600190565b609b805473ffffffffffffffffffffffffffffffffffffffff19166001600160a01b0392909216919091179055565b60a28054610f9190611ea9565b80601f0160208091040260200160405190810160405280929190818152602001828054610fbd90611ea9565b801561100a5780601f10610fdf5761010080835404028352916020019161100a565b820191906000526020600020905b815481529060010190602001808311610fed57829003601f168201915b505050505081565b61101a61156f565b6001600160a01b0381166110965760405162461bcd60e51b815260206004820152602660248201527f4f776e61626c653a206e6577206f776e657220697320746865207a65726f206160448201527f64647265737300000000000000000000000000000000000000000000000000006064820152608401610754565b61070a81611785565b6001600160a01b038181166000908152609c6020526040808220609a5491517f70a08231000000000000000000000000000000000000000000000000000000008152306004820152929390928492909116906370a0823190602401602060405180830381865afa158015611117573d6000803e3d6000fd5b505050506040513d601f19601f8201168201806040525081019061113b9190611e90565b9050600060975490506000609f5442116111555742611159565b609f545b90506098548111156111b857609854611173908290611458565b9050600061118c609d548361139d90919063ffffffff16565b90506111b46111ad856111a784670de0b6b3a764000061139d565b906118ca565b84906116d2565b9250505b600184015484546111eb916105a591670de0b6b3a7640000906111db908761139d565b6111e59190611e6e565b906113b2565b9695505050505050565b6002606554036112475760405162461bcd60e51b815260206004820152601f60248201527f5265656e7472616e637947756172643a207265656e7472616e742063616c6c006044820152606401610754565b6002606555565b60985442111561092f57609a546040517f70a082310000000000000000000000000000000000000000000000000000000081523060048201526000916001600160a01b0316906370a0823190602401602060405180830381865afa1580156112ba573d6000803e3d6000fd5b505050506040513d601f19601f820116820180604052508101906112de9190611e90565b90508015611359576000609f5442116112f757426112fb565b609f545b905060985481111561135757609854611315908290611458565b9050600061132e609d548361139d90919063ffffffff16565b9050611352611349846111a784670de0b6b3a764000061139d565b609754906116d2565b609755505b505b42609881905560975460408051928352602083018490528201527f1f2d1a9fde053af46b5db3dc92a8aa8696e56a677998fdd1311b45be341f7853906060016107ec565b60006113a98284611ff1565b90505b92915050565b6000806113bf8385612008565b9050600083121580156113d25750838113155b806113e757506000831280156113e757508381135b6113a95760405162461bcd60e51b8152602060048201526024808201527f5369676e6564536166654d6174683a207375627472616374696f6e206f76657260448201527f666c6f77000000000000000000000000000000000000000000000000000000006064820152608401610754565b60006113a9828461202f565b6040516001600160a01b03831660248201526044810182905261150d9084907fa9059cbb00000000000000000000000000000000000000000000000000000000906064015b60408051601f198184030181529190526020810180517bffffffffffffffffffffffffffffffffffffffffffffffffffffffff167fffffffff00000000000000000000000000000000000000000000000000000000909316929092179091526118d6565b505050565b6001606555565b60008082121561156b5760405162461bcd60e51b815260206004820152600b60248201527f496e7465676572203c20300000000000000000000000000000000000000000006044820152606401610754565b5090565b6033546001600160a01b0316331461092f5760405162461bcd60e51b815260206004820181905260248201527f4f776e61626c653a2063616c6c6572206973206e6f7420746865206f776e65726044820152606401610754565b6040516001600160a01b038085166024830152831660448201526064810182905261161a9085907f23b872dd00000000000000000000000000000000000000000000000000000000906084016114a9565b50505050565b61162861124e565b6000609f5411801561163b5750609f5442105b1561167557609f546000906116509042611458565b905061167161166a82609d5461139d90919063ffffffff16565b83906116d2565b9150505b609e546116839082906118ca565b609d55609e546116949042906116d2565b609f5561169f61124e565b7fde89cb17ac7f58f94792b3e91e086ed85403819c24ceea882491f960ccb1a278609d546040516107ec91815260200190565b60006113a98284612042565b6000806116eb8385612055565b9050600083121580156116fe5750838112155b80611713575060008312801561171357508381125b6113a95760405162461bcd60e51b815260206004820152602160248201527f5369676e6564536166654d6174683a206164646974696f6e206f766572666c6f60448201527f77000000000000000000000000000000000000000000000000000000000000006064820152608401610754565b603380546001600160a01b0383811673ffffffffffffffffffffffffffffffffffffffff19831681179093556040519116919082907f8be0079c531659141344cd1fd0a4f28419497f9722a3daafe3b4186f6b6457e090600090a35050565b600054610100900460ff1661184f5760405162461bcd60e51b815260206004820152602b60248201527f496e697469616c697a61626c653a20636f6e7472616374206973206e6f74206960448201526a6e697469616c697a696e6760a81b6064820152608401610754565b61092f6119be565b600054610100900460ff166118c25760405162461bcd60e51b815260206004820152602b60248201527f496e697469616c697a61626c653a20636f6e7472616374206973206e6f74206960448201526a6e697469616c697a696e6760a81b6064820152608401610754565b61092f611a32565b60006113a98284611e6e565b600061192b826040518060400160405280602081526020017f5361666545524332303a206c6f772d6c6576656c2063616c6c206661696c6564815250856001600160a01b0316611a9d9092919063ffffffff16565b905080516000148061194c57508080602001905181019061194c919061207d565b61150d5760405162461bcd60e51b815260206004820152602a60248201527f5361666545524332303a204552433230206f7065726174696f6e20646964206e60448201527f6f742073756363656564000000000000000000000000000000000000000000006064820152608401610754565b600054610100900460ff16611a295760405162461bcd60e51b815260206004820152602b60248201527f496e697469616c697a61626c653a20636f6e7472616374206973206e6f74206960448201526a6e697469616c697a696e6760a81b6064820152608401610754565b61092f33611785565b600054610100900460ff166115125760405162461bcd60e51b815260206004820152602b60248201527f496e697469616c697a61626c653a20636f6e7472616374206973206e6f74206960448201526a6e697469616c697a696e6760a81b6064820152608401610754565b6060611aac8484600085611ab4565b949350505050565b606082471015611b2c5760405162461bcd60e51b815260206004820152602660248201527f416464726573733a20696e73756666696369656e742062616c616e636520666f60448201527f722063616c6c00000000000000000000000000000000000000000000000000006064820152608401610754565b600080866001600160a01b03168587604051611b48919061209f565b60006040518083038185875af1925050503d8060008114611b85576040519150601f19603f3d011682016040523d82523d6000602084013e611b8a565b606091505b5091509150611b9b87838387611ba6565b979650505050505050565b60608315611c15578251600003611c0e576001600160a01b0385163b611c0e5760405162461bcd60e51b815260206004820152601d60248201527f416464726573733a2063616c6c20746f206e6f6e2d636f6e74726163740000006044820152606401610754565b5081611aac565b611aac8383815115611c2a5781518083602001fd5b8060405162461bcd60e51b81526004016107549190611e25565b6001600160a01b038116811461070a57600080fd5b60008060408385031215611c6c57600080fd5b823591506020830135611c7e81611c44565b809150509250929050565b600060208284031215611c9b57600080fd5b81356113a981611c44565b600060208284031215611cb857600080fd5b5035919050565b634e487b7160e01b600052604160045260246000fd5b600082601f830112611ce657600080fd5b813567ffffffffffffffff80821115611d0157611d01611cbf565b604051601f8301601f19908116603f01168101908282118183101715611d2957611d29611cbf565b81604052838152866020858801011115611d4257600080fd5b836020870160208301376000602085830101528094505050505092915050565b60008060008060808587031215611d7857600080fd5b843567ffffffffffffffff811115611d8f57600080fd5b611d9b87828801611cd5565b9450506020850135611dac81611c44565b92506040850135611dbc81611c44565b9396929550929360600135925050565b600060208284031215611dde57600080fd5b813567ffffffffffffffff811115611df557600080fd5b611aac84828501611cd5565b60005b83811015611e1c578181015183820152602001611e04565b50506000910152565b6020815260008251806020840152611e44816040850160208701611e01565b601f01601f19169190910160400192915050565b634e487b7160e01b600052601160045260246000fd5b600082611e8b57634e487b7160e01b600052601260045260246000fd5b500490565b600060208284031215611ea257600080fd5b5051919050565b600181811c90821680611ebd57607f821691505b602082108103611edd57634e487b7160e01b600052602260045260246000fd5b50919050565b601f82111561150d57600081815260208120601f850160051c81016020861015611f0a5750805b601f850160051c820191505b81811015611f2957828155600101611f16565b505050505050565b815167ffffffffffffffff811115611f4b57611f4b611cbf565b611f5f81611f598454611ea9565b84611ee3565b602080601f831160018114611f945760008415611f7c5750858301515b600019600386901b1c1916600185901b178555611f29565b600085815260208120601f198616915b82811015611fc357888601518255948401946001909101908401611fa4565b5085821015611fe15787850151600019600388901b60f8161c191681555b5050505050600190811b01905550565b80820281158282048414176113ac576113ac611e58565b818103600083128015838313168383128216171561202857612028611e58565b5092915050565b818103818111156113ac576113ac611e58565b808201808211156113ac576113ac611e58565b808201828112600083128015821682158216171561207557612075611e58565b505092915050565b60006020828403121561208f57600080fd5b815180151581146113a957600080fd5b600082516120b1818460208701611e01565b919091019291505056fea26469706673582212205f1ec7f09706635e96849a307f2204f3af63c60401a1e3ee3b01873b95112c6a64736f6c63430008130033",
  "devdoc": {
    "events": {
      "Initialized(uint8)": {
        "details": "Triggered when the contract has been initialized or reinitialized."
      }
    },
    "kind": "dev",
    "methods": {
      "owner()": {
        "details": "Returns the address of the current owner."
      },
      "renounceOwnership()": {
        "details": "Leaves the contract without owner. It will not be possible to call `onlyOwner` functions. Can only be called by the current owner. NOTE: Renouncing ownership will leave the contract without an owner, thereby disabling any functionality that is only available to the owner."
      },
      "setRewardPerSecond(uint256)": {
        "params": {
          "_rewardPerSecond": "The amount of Reward to be distributed per second."
        }
      },
      "transferOwnership(address)": {
        "details": "Transfers ownership of the contract to a new account (`newOwner`). Can only be called by the current owner."
      }
    },
    "version": 1
  },
  "userdoc": {
    "kind": "user",
    "methods": {
      "rebaseChef()": {
        "notice": "Address of the rebase Chef."
      },
      "rewardToken()": {
        "notice": "Address of rewardToken contract."
      },
      "setRewardPerSecond(uint256)": {
        "notice": "Sets the reward per second to be distributed. Can only be called by the owner."
      },
      "underlying()": {
        "notice": "Address of the LP token for each MCV2 pool."
      },
      "userInfo(address)": {
        "notice": "Info of each user that stakes LP tokens."
      }
    },
    "version": 1
  },
  "storageLayout": {
    "storage": [
      {
        "astId": 138,
        "contract": "contracts/CaviarChef.sol:CaviarChef",
        "label": "_initialized",
        "offset": 0,
        "slot": "0",
        "type": "t_uint8"
      },
      {
        "astId": 141,
        "contract": "contracts/CaviarChef.sol:CaviarChef",
        "label": "_initializing",
        "offset": 1,
        "slot": "0",
        "type": "t_bool"
      },
      {
        "astId": 1882,
        "contract": "contracts/CaviarChef.sol:CaviarChef",
        "label": "__gap",
        "offset": 0,
        "slot": "1",
        "type": "t_array(t_uint256)50_storage"
      },
      {
        "astId": 10,
        "contract": "contracts/CaviarChef.sol:CaviarChef",
        "label": "_owner",
        "offset": 0,
        "slot": "51",
        "type": "t_address"
      },
      {
        "astId": 130,
        "contract": "contracts/CaviarChef.sol:CaviarChef",
        "label": "__gap",
        "offset": 0,
        "slot": "52",
        "type": "t_array(t_uint256)49_storage"
      },
      {
        "astId": 314,
        "contract": "contracts/CaviarChef.sol:CaviarChef",
        "label": "_status",
        "offset": 0,
        "slot": "101",
        "type": "t_uint256"
      },
      {
        "astId": 383,
        "contract": "contracts/CaviarChef.sol:CaviarChef",
        "label": "__gap",
        "offset": 0,
        "slot": "102",
        "type": "t_array(t_uint256)49_storage"
      },
      {
        "astId": 7228,
        "contract": "contracts/CaviarChef.sol:CaviarChef",
        "label": "accRewardPerShare",
        "offset": 0,
        "slot": "151",
        "type": "t_uint256"
      },
      {
        "astId": 7230,
        "contract": "contracts/CaviarChef.sol:CaviarChef",
        "label": "lastRewardTime",
        "offset": 0,
        "slot": "152",
        "type": "t_uint256"
      },
      {
        "astId": 7234,
        "contract": "contracts/CaviarChef.sol:CaviarChef",
        "label": "rewardToken",
        "offset": 0,
        "slot": "153",
        "type": "t_contract(IERC20)3028"
      },
      {
        "astId": 7238,
        "contract": "contracts/CaviarChef.sol:CaviarChef",
        "label": "underlying",
        "offset": 0,
        "slot": "154",
        "type": "t_contract(IERC20)3028"
      },
      {
        "astId": 7242,
        "contract": "contracts/CaviarChef.sol:CaviarChef",
        "label": "rebaseChef",
        "offset": 0,
        "slot": "155",
        "type": "t_contract(ICaviarChef)13842"
      },
      {
        "astId": 7248,
        "contract": "contracts/CaviarChef.sol:CaviarChef",
        "label": "userInfo",
        "offset": 0,
        "slot": "156",
        "type": "t_mapping(t_address,t_struct(UserInfo)7223_storage)"
      },
      {
        "astId": 7250,
        "contract": "contracts/CaviarChef.sol:CaviarChef",
        "label": "rewardPerSecond",
        "offset": 0,
        "slot": "157",
        "type": "t_uint256"
      },
      {
        "astId": 7252,
        "contract": "contracts/CaviarChef.sol:CaviarChef",
        "label": "distributionPeriod",
        "offset": 0,
        "slot": "158",
        "type": "t_uint256"
      },
      {
        "astId": 7254,
        "contract": "contracts/CaviarChef.sol:CaviarChef",
        "label": "lastDistributedTime",
        "offset": 0,
        "slot": "159",
        "type": "t_uint256"
      },
      {
        "astId": 7256,
        "contract": "contracts/CaviarChef.sol:CaviarChef",
        "label": "smartWalletChecker",
        "offset": 0,
        "slot": "160",
        "type": "t_address"
      },
      {
        "astId": 7258,
        "contract": "contracts/CaviarChef.sol:CaviarChef",
        "label": "gaugeForLP",
        "offset": 0,
        "slot": "161",
        "type": "t_address"
      },
      {
        "astId": 7294,
        "contract": "contracts/CaviarChef.sol:CaviarChef",
        "label": "__NAME__",
        "offset": 0,
        "slot": "162",
        "type": "t_string_storage"
      }
    ],
    "types": {
      "t_address": {
        "encoding": "inplace",
        "label": "address",
        "numberOfBytes": "20"
      },
      "t_array(t_uint256)49_storage": {
        "base": "t_uint256",
        "encoding": "inplace",
        "label": "uint256[49]",
        "numberOfBytes": "1568"
      },
      "t_array(t_uint256)50_storage": {
        "base": "t_uint256",
        "encoding": "inplace",
        "label": "uint256[50]",
        "numberOfBytes": "1600"
      },
      "t_bool": {
        "encoding": "inplace",
        "label": "bool",
        "numberOfBytes": "1"
      },
      "t_contract(ICaviarChef)13842": {
        "encoding": "inplace",
        "label": "contract ICaviarChef",
        "numberOfBytes": "20"
      },
      "t_contract(IERC20)3028": {
        "encoding": "inplace",
        "label": "contract IERC20",
        "numberOfBytes": "20"
      },
      "t_int256": {
        "encoding": "inplace",
        "label": "int256",
        "numberOfBytes": "32"
      },
      "t_mapping(t_address,t_struct(UserInfo)7223_storage)": {
        "encoding": "mapping",
        "key": "t_address",
        "label": "mapping(address => struct CaviarChef.UserInfo)",
        "numberOfBytes": "32",
        "value": "t_struct(UserInfo)7223_storage"
      },
      "t_string_storage": {
        "encoding": "bytes",
        "label": "string",
        "numberOfBytes": "32"
      },
      "t_struct(UserInfo)7223_storage": {
        "encoding": "inplace",
        "label": "struct CaviarChef.UserInfo",
        "members": [
          {
            "astId": 7220,
            "contract": "contracts/CaviarChef.sol:CaviarChef",
            "label": "amount",
            "offset": 0,
            "slot": "0",
            "type": "t_uint256"
          },
          {
            "astId": 7222,
            "contract": "contracts/CaviarChef.sol:CaviarChef",
            "label": "rewardDebt",
            "offset": 0,
            "slot": "1",
            "type": "t_int256"
          }
        ],
        "numberOfBytes": "64"
      },
      "t_uint256": {
        "encoding": "inplace",
        "label": "uint256",
        "numberOfBytes": "32"
      },
      "t_uint8": {
        "encoding": "inplace",
        "label": "uint8",
        "numberOfBytes": "1"
      }
    }
  }
}