{
  "address": "0x31737E2B695d4dA11eA0f37053e6ecb2d673A54d",
  "abi": [
    {
      "inputs": [],
      "stateMutability": "nonpayable",
      "type": "constructor"
    },
    {
      "anonymous": false,
      "inputs": [
        {
          "indexed": false,
          "internalType": "uint8",
          "name": "version",
          "type": "uint8"
        }
      ],
      "name": "Initialized",
      "type": "event"
    },
    {
      "anonymous": false,
      "inputs": [
        {
          "indexed": true,
          "internalType": "address",
          "name": "keeper",
          "type": "address"
        }
      ],
      "name": "KeeperAdded",
      "type": "event"
    },
    {
      "anonymous": false,
      "inputs": [
        {
          "indexed": true,
          "internalType": "address",
          "name": "keeper",
          "type": "address"
        }
      ],
      "name": "KeeperRemoved",
      "type": "event"
    },
    {
      "anonymous": false,
      "inputs": [
        {
          "indexed": true,
          "internalType": "uint256",
          "name": "from",
          "type": "uint256"
        }
      ],
      "name": "Merge",
      "type": "event"
    },
    {
      "anonymous": false,
      "inputs": [
        {
          "indexed": true,
          "internalType": "address",
          "name": "previousOwner",
          "type": "address"
        },
        {
          "indexed": true,
          "internalType": "address",
          "name": "newOwner",
          "type": "address"
        }
      ],
      "name": "OwnershipTransferred",
      "type": "event"
    },
    {
      "inputs": [],
      "name": "MAX_TIME",
      "outputs": [
        {
          "internalType": "uint256",
          "name": "",
          "type": "uint256"
        }
      ],
      "stateMutability": "view",
      "type": "function"
    },
    {
      "inputs": [],
      "name": "WEEK",
      "outputs": [
        {
          "internalType": "uint256",
          "name": "",
          "type": "uint256"
        }
      ],
      "stateMutability": "view",
      "type": "function"
    },
    {
      "inputs": [],
      "name": "__NAME__",
      "outputs": [
        {
          "internalType": "string",
          "name": "",
          "type": "string"
        }
      ],
      "stateMutability": "view",
      "type": "function"
    },
    {
      "inputs": [
        {
          "internalType": "address",
          "name": "_keeper",
          "type": "address"
        }
      ],
      "name": "addKeeper",
      "outputs": [],
      "stateMutability": "nonpayable",
      "type": "function"
    },
    {
      "inputs": [],
      "name": "balanceOfVePearl",
      "outputs": [
        {
          "internalType": "uint256",
          "name": "",
          "type": "uint256"
        }
      ],
      "stateMutability": "view",
      "type": "function"
    },
    {
      "inputs": [
        {
          "internalType": "address",
          "name": "_voter",
          "type": "address"
        }
      ],
      "name": "blacklistVoter",
      "outputs": [],
      "stateMutability": "nonpayable",
      "type": "function"
    },
    {
      "inputs": [
        {
          "internalType": "uint256",
          "name": "",
          "type": "uint256"
        }
      ],
      "name": "bribeTokens",
      "outputs": [
        {
          "internalType": "address",
          "name": "",
          "type": "address"
        }
      ],
      "stateMutability": "view",
      "type": "function"
    },
    {
      "inputs": [],
      "name": "caviarManager",
      "outputs": [
        {
          "internalType": "address",
          "name": "",
          "type": "address"
        }
      ],
      "stateMutability": "view",
      "type": "function"
    },
    {
      "inputs": [
        {
          "internalType": "address[]",
          "name": "_bribes",
          "type": "address[]"
        },
        {
          "internalType": "address[][]",
          "name": "_tokens",
          "type": "address[][]"
        }
      ],
      "name": "claimBribe",
      "outputs": [],
      "stateMutability": "nonpayable",
      "type": "function"
    },
    {
      "inputs": [
        {
          "internalType": "address[]",
          "name": "_fees",
          "type": "address[]"
        },
        {
          "internalType": "address[][]",
          "name": "_tokens",
          "type": "address[][]"
        }
      ],
      "name": "claimFee",
      "outputs": [],
      "stateMutability": "nonpayable",
      "type": "function"
    },
    {
      "inputs": [],
      "name": "claimRebase",
      "outputs": [],
      "stateMutability": "nonpayable",
      "type": "function"
    },
    {
      "inputs": [
        {
          "internalType": "uint256",
          "name": "_amount",
          "type": "uint256"
        },
        {
          "internalType": "uint256",
          "name": "_unlockTime",
          "type": "uint256"
        }
      ],
      "name": "createLock",
      "outputs": [],
      "stateMutability": "nonpayable",
      "type": "function"
    },
    {
      "inputs": [],
      "name": "cvrPearlGauge",
      "outputs": [
        {
          "internalType": "address",
          "name": "",
          "type": "address"
        }
      ],
      "stateMutability": "view",
      "type": "function"
    },
    {
      "inputs": [],
      "name": "feeManager",
      "outputs": [
        {
          "internalType": "address",
          "name": "",
          "type": "address"
        }
      ],
      "stateMutability": "view",
      "type": "function"
    },
    {
      "inputs": [],
      "name": "getLastVote",
      "outputs": [
        {
          "components": [
            {
              "internalType": "address[]",
              "name": "pairs",
              "type": "address[]"
            },
            {
              "internalType": "uint256[]",
              "name": "weights",
              "type": "uint256[]"
            }
          ],
          "internalType": "struct CaviarStrategy.VoteInfo",
          "name": "",
          "type": "tuple"
        }
      ],
      "stateMutability": "view",
      "type": "function"
    },
    {
      "inputs": [
        {
          "internalType": "uint256",
          "name": "_amount",
          "type": "uint256"
        }
      ],
      "name": "increaseAmount",
      "outputs": [],
      "stateMutability": "nonpayable",
      "type": "function"
    },
    {
      "inputs": [
        {
          "internalType": "uint256",
          "name": "_unlockTime",
          "type": "uint256"
        }
      ],
      "name": "increaseTime",
      "outputs": [],
      "stateMutability": "nonpayable",
      "type": "function"
    },
    {
      "inputs": [],
      "name": "increaseTimeMax",
      "outputs": [],
      "stateMutability": "nonpayable",
      "type": "function"
    },
    {
      "inputs": [
        {
          "internalType": "string",
          "name": "_name",
          "type": "string"
        },
        {
          "internalType": "address",
          "name": "_pearl",
          "type": "address"
        },
        {
          "internalType": "address",
          "name": "_vePearl",
          "type": "address"
        },
        {
          "internalType": "address",
          "name": "_pearlVoter",
          "type": "address"
        },
        {
          "internalType": "address",
          "name": "_feeManager",
          "type": "address"
        },
        {
          "internalType": "address",
          "name": "_pearlRewardsDistributor",
          "type": "address"
        },
        {
          "internalType": "uint256",
          "name": "_lockingYear",
          "type": "uint256"
        }
      ],
      "name": "initialize",
      "outputs": [],
      "stateMutability": "nonpayable",
      "type": "function"
    },
    {
      "inputs": [
        {
          "internalType": "address",
          "name": "",
          "type": "address"
        }
      ],
      "name": "isAllowedVoter",
      "outputs": [
        {
          "internalType": "bool",
          "name": "",
          "type": "bool"
        }
      ],
      "stateMutability": "view",
      "type": "function"
    },
    {
      "inputs": [
        {
          "internalType": "address",
          "name": "",
          "type": "address"
        }
      ],
      "name": "isKeeper",
      "outputs": [
        {
          "internalType": "bool",
          "name": "",
          "type": "bool"
        }
      ],
      "stateMutability": "view",
      "type": "function"
    },
    {
      "inputs": [],
      "name": "isManual",
      "outputs": [
        {
          "internalType": "bool",
          "name": "",
          "type": "bool"
        }
      ],
      "stateMutability": "view",
      "type": "function"
    },
    {
      "inputs": [
        {
          "internalType": "address",
          "name": "",
          "type": "address"
        }
      ],
      "name": "lastBribe",
      "outputs": [
        {
          "internalType": "uint256",
          "name": "",
          "type": "uint256"
        }
      ],
      "stateMutability": "view",
      "type": "function"
    },
    {
      "inputs": [],
      "name": "manualFeeManager",
      "outputs": [
        {
          "internalType": "address",
          "name": "",
          "type": "address"
        }
      ],
      "stateMutability": "view",
      "type": "function"
    },
    {
      "inputs": [
        {
          "internalType": "uint256",
          "name": "from",
          "type": "uint256"
        }
      ],
      "name": "merge",
      "outputs": [],
      "stateMutability": "nonpayable",
      "type": "function"
    },
    {
      "inputs": [],
      "name": "owner",
      "outputs": [
        {
          "internalType": "address",
          "name": "",
          "type": "address"
        }
      ],
      "stateMutability": "view",
      "type": "function"
    },
    {
      "inputs": [],
      "name": "pearl",
      "outputs": [
        {
          "internalType": "address",
          "name": "",
          "type": "address"
        }
      ],
      "stateMutability": "view",
      "type": "function"
    },
    {
      "inputs": [],
      "name": "pearlRewardsDistributor",
      "outputs": [
        {
          "internalType": "address",
          "name": "",
          "type": "address"
        }
      ],
      "stateMutability": "view",
      "type": "function"
    },
    {
      "inputs": [],
      "name": "pearlVoter",
      "outputs": [
        {
          "internalType": "address",
          "name": "",
          "type": "address"
        }
      ],
      "stateMutability": "view",
      "type": "function"
    },
    {
      "inputs": [],
      "name": "release",
      "outputs": [],
      "stateMutability": "nonpayable",
      "type": "function"
    },
    {
      "inputs": [
        {
          "internalType": "address",
          "name": "_keeper",
          "type": "address"
        }
      ],
      "name": "removeKeeper",
      "outputs": [],
      "stateMutability": "nonpayable",
      "type": "function"
    },
    {
      "inputs": [],
      "name": "renounceOwnership",
      "outputs": [],
      "stateMutability": "nonpayable",
      "type": "function"
    },
    {
      "inputs": [],
      "name": "resetVote",
      "outputs": [],
      "stateMutability": "nonpayable",
      "type": "function"
    },
    {
      "inputs": [
        {
          "internalType": "address",
          "name": "_manager",
          "type": "address"
        }
      ],
      "name": "setCaviarManager",
      "outputs": [],
      "stateMutability": "nonpayable",
      "type": "function"
    },
    {
      "inputs": [
        {
          "internalType": "bool",
          "name": "_isManual",
          "type": "bool"
        }
      ],
      "name": "setIsManual",
      "outputs": [],
      "stateMutability": "nonpayable",
      "type": "function"
    },
    {
      "inputs": [
        {
          "internalType": "address",
          "name": "_manager",
          "type": "address"
        }
      ],
      "name": "setManualFeeManager",
      "outputs": [],
      "stateMutability": "nonpayable",
      "type": "function"
    },
    {
      "inputs": [
        {
          "internalType": "address",
          "name": "_pearl",
          "type": "address"
        }
      ],
      "name": "setPearl",
      "outputs": [],
      "stateMutability": "nonpayable",
      "type": "function"
    },
    {
      "inputs": [
        {
          "internalType": "address",
          "name": "_pearlRewardsDistributor",
          "type": "address"
        }
      ],
      "name": "setPearlRewardsDistributor",
      "outputs": [],
      "stateMutability": "nonpayable",
      "type": "function"
    },
    {
      "inputs": [
        {
          "internalType": "address",
          "name": "_pearlVoter",
          "type": "address"
        }
      ],
      "name": "setPearlVoter",
      "outputs": [],
      "stateMutability": "nonpayable",
      "type": "function"
    },
    {
      "inputs": [
        {
          "internalType": "address",
          "name": "_vePearl",
          "type": "address"
        }
      ],
      "name": "setVEPearl",
      "outputs": [],
      "stateMutability": "nonpayable",
      "type": "function"
    },
    {
      "inputs": [
        {
          "internalType": "address",
          "name": "_voter",
          "type": "address"
        }
      ],
      "name": "setVoter",
      "outputs": [],
      "stateMutability": "nonpayable",
      "type": "function"
    },
    {
      "inputs": [
        {
          "internalType": "address",
          "name": "_cvrPearlGauge",
          "type": "address"
        }
      ],
      "name": "setcvrPearlGauge",
      "outputs": [],
      "stateMutability": "nonpayable",
      "type": "function"
    },
    {
      "inputs": [
        {
          "internalType": "uint256",
          "name": "_toSplit",
          "type": "uint256"
        },
        {
          "internalType": "address",
          "name": "_to",
          "type": "address"
        }
      ],
      "name": "splitAndSend",
      "outputs": [],
      "stateMutability": "nonpayable",
      "type": "function"
    },
    {
      "inputs": [],
      "name": "tokenId",
      "outputs": [
        {
          "internalType": "uint256",
          "name": "",
          "type": "uint256"
        }
      ],
      "stateMutability": "view",
      "type": "function"
    },
    {
      "inputs": [
        {
          "internalType": "uint256",
          "name": "",
          "type": "uint256"
        }
      ],
      "name": "tokenIdAt",
      "outputs": [
        {
          "internalType": "uint256",
          "name": "",
          "type": "uint256"
        }
      ],
      "stateMutability": "view",
      "type": "function"
    },
    {
      "inputs": [
        {
          "internalType": "address",
          "name": "newOwner",
          "type": "address"
        }
      ],
      "name": "transferOwnership",
      "outputs": [],
      "stateMutability": "nonpayable",
      "type": "function"
    },
    {
      "inputs": [],
      "name": "vePearl",
      "outputs": [
        {
          "internalType": "address",
          "name": "",
          "type": "address"
        }
      ],
      "stateMutability": "view",
      "type": "function"
    },
    {
      "inputs": [
        {
          "internalType": "address[]",
          "name": "_pool",
          "type": "address[]"
        },
        {
          "internalType": "uint256[]",
          "name": "_weights",
          "type": "uint256[]"
        }
      ],
      "name": "vote",
      "outputs": [],
      "stateMutability": "nonpayable",
      "type": "function"
    },
    {
      "inputs": [
        {
          "internalType": "address",
          "name": "_voter",
          "type": "address"
        }
      ],
      "name": "whitelistVoter",
      "outputs": [],
      "stateMutability": "nonpayable",
      "type": "function"
    }
  ],
  "transactionHash": "0x16ee8c7c3fb3f90b788ef7006134b817936185a550a3047779d0a98d88fc6c4d",
  "args": [],
  "numDeployments": 7,
  "solcInputHash": "2883ce366acf9a88bdfc3407cf2f38b4",
  "bytecode": "0x60806040523480156200001157600080fd5b506200001c62000022565b620000e3565b600054610100900460ff16156200008f5760405162461bcd60e51b815260206004820152602760248201527f496e697469616c697a61626c653a20636f6e747261637420697320696e697469604482015266616c697a696e6760c81b606482015260840160405180910390fd5b60005460ff90811614620000e1576000805460ff191660ff9081179091556040519081527f7f26b83ff96e1f2b6a682f133852f6798a09c465da95921460cefb38474024989060200160405180910390a15b565b6136d480620000f36000396000f3fe608060405234801561001057600080fd5b506004361061032b5760003560e01c806376660223116101b2578063d0fb0203116100f9578063eca5f158116100a2578063f2fde38b1161007c578063f2fde38b14610698578063f4359ce5146106ab578063f5ae2240146106b4578063fdd929f3146106c757600080fd5b8063eca5f15814610667578063f1819bb51461066f578063f2e83ddf1461068457600080fd5b8063de7731fe116100d3578063de7731fe14610621578063e4880ea614610641578063ea8a74641461065457600080fd5b8063d0fb0203146105fb578063d16c2e9914610444578063dc19c4d81461060e57600080fd5b8063b52c05fe1161015b578063bddf1ce911610135578063bddf1ce9146105c2578063bdf44a28146105d5578063bf8c39b1146105e857600080fd5b8063b52c05fe14610589578063b5913b7c1461059c578063b8a088ab146105af57600080fd5b806395bef2121161018c57806395bef2121461055b578063b24cab731461056e578063b4cd143a1461058157600080fd5b8063766602231461052257806386d1a69f146105425780638da5cb5b1461054a57600080fd5b80634bc2a6571161027657806369fc48911161021f5780637001cbe1116101f95780637001cbe1146104f4578063715018a61461050757806375dee9981461050f57600080fd5b806369fc4891146104ab5780636ba42aaa146104be5780636f816a20146104e157600080fd5b806367244d371161025057806367244d371461047d57806367c2e9c81461049057806369af495b1461049857600080fd5b80634bc2a657146104445780635bb311be1461045757806366123fe51461046a57600080fd5b806326949984116102d85780633780dd15116102b25780633780dd15146104095780633c9a2a1a1461041e5780634032b72b1461043157600080fd5b806326949984146103e55780633220edac146103ee578063329a8cfa1461040157600080fd5b806317d70f7c1161030957806317d70f7c146103905780631c30c15e146103a757806324a47aeb146103d257600080fd5b80630f915eee1461033057806314ae9f2e1461036857806315456eba1461037d575b600080fd5b61035361033e366004612e39565b60706020526000908152604090205460ff1681565b60405190151581526020015b60405180910390f35b61037b610376366004612e39565b6106da565b005b61037b61038b366004612e5d565b610768565b61039960715481565b60405190815260200161035f565b606e546103ba906001600160a01b031681565b6040516001600160a01b03909116815260200161035f565b61037b6103e0366004612e5d565b6107d6565b61039960725481565b606d546103ba906001600160a01b031681565b61037b610934565b610411610946565b60405161035f9190612eba565b61037b61042c366004612e5d565b610a1d565b61037b61043f366004612e39565b610a9a565b61037b610452366004612e39565b610b27565b61037b610465366004612e39565b610b90565b61037b610478366004612f22565b610bf9565b6068546103ba906001600160a01b031681565b61037b610e6a565b61037b6104a6366004612e39565b610e75565b606a546103ba906001600160a01b031681565b6103536104cc366004612e39565b60766020526000908152604090205460ff1681565b61037b6104ef366004612f9e565b610ede565b61037b610502366004612e39565b610fc5565b61037b61102e565b61037b61051d366004612e39565b611040565b610399610530366004612e39565b60776020526000908152604090205481565b61037b611069565b6033546001600160a01b03166103ba565b61037b6105693660046130de565b611142565b6079546103ba906001600160a01b031681565b61037b611471565b61037b6105973660046131b3565b61151c565b61037b6105aa366004612e39565b61175a565b61037b6105bd366004612e39565b6117c3565b61037b6105d0366004612e39565b61182c565b61037b6105e33660046131e3565b611858565b61037b6105f63660046130de565b611899565b606c546103ba906001600160a01b031681565b6069546103ba906001600160a01b031681565b61039961062f366004612e5d565b60746020526000908152604090205481565b61037b61064f366004613200565b611afd565b61037b610662366004612e39565b611d96565b610399611dff565b610677611eab565b60405161035f9190613316565b60795461035390600160a01b900460ff1681565b61037b6106a6366004612e39565b611f39565b61039960735481565b6103ba6106c2366004612e5d565b611fc6565b606b546103ba906001600160a01b031681565b6106e2611ff0565b6001600160a01b0381166106f557600080fd5b6001600160a01b03811660009081526076602052604090205460ff16151560011461071f57600080fd5b6001600160a01b038116600081815260766020526040808220805460ff19169055517fa7a775c2c8141f7985c111748ec31c11e5e44b83528e105c8d1d4e8e6b81cf809190a250565b6033546001600160a01b031633148061078b5750606a546001600160a01b031633145b6107ca5760405162461bcd60e51b815260206004820152600b60248201526a105d5d1a0819985a5b195960aa1b60448201526064015b60405180910390fd5b6107d38161204a565b50565b6033546001600160a01b03163314806107f95750606a546001600160a01b031633145b6108335760405162461bcd60e51b815260206004820152600b60248201526a105d5d1a0819985a5b195960aa1b60448201526064016107c1565b60715481036108845760405162461bcd60e51b815260206004820152601d60248201527f43616e2774206d657267652066726f6d206d61696e20746f6b656e496400000060448201526064016107c1565b6068546071546040517fd1c2babb0000000000000000000000000000000000000000000000000000000081526004810184905260248101919091526001600160a01b039091169063d1c2babb90604401600060405180830381600087803b1580156108ee57600080fd5b505af1158015610902573d6000803e3d6000fd5b50506040518392507f1a472ddc5e9a11d4d8cafdac71f6e9001c1122dd0b08bd46a12c01465ed217349150600090a250565b61093c611ff0565b6109446121c7565b565b60408051808201909152606080825260208201526040805160668054606060208202840181018552938301818152929391928492909184918401828280156109b757602002820191906000526020600020905b81546001600160a01b03168152600190910190602001808311610999575b5050505050815260200160018201805480602002602001604051908101604052809291908181526020018280548015610a0f57602002820191906000526020600020905b8154815260200190600101908083116109fb575b505050505081525050905090565b6033546001600160a01b0316331480610a4557503360009081526070602052604090205460ff165b610a915760405162461bcd60e51b815260206004820152601160248201527f5065726d697373696f6e2064656e69656400000000000000000000000000000060448201526064016107c1565b6107d381612215565b610aa2611ff0565b6001600160a01b038116610ab557600080fd5b6001600160a01b03811660009081526076602052604090205460ff1615610adb57600080fd5b6001600160a01b038116600081815260766020526040808220805460ff19166001179055517f1584773458d98c71b34a270ee1100b3a42889bf91e3b7a858563b684c24d838e9190a250565b610b2f611ff0565b6001600160a01b038116610b6e5760405162461bcd60e51b815260206004820152600660248201526506164647220360d41b60448201526064016107c1565b606b80546001600160a01b0319166001600160a01b0392909216919091179055565b610b98611ff0565b6001600160a01b038116610bd75760405162461bcd60e51b815260206004820152600660248201526506164647220360d41b60448201526064016107c1565b606e80546001600160a01b0319166001600160a01b0392909216919091179055565b6033546001600160a01b0316331480610c1c5750606a546001600160a01b031633145b610c565760405162461bcd60e51b815260206004820152600b60248201526a105d5d1a0819985a5b195960aa1b60448201526064016107c1565b610c5e6121c7565b6000610c68611dff565b90506000610c76828561229f565b60408051600280825260608201835292935060009290916020830190803683370190505090508181600081518110610cb057610cb0613349565b6020026020010181815250508481600181518110610cd057610cd0613349565b60209081029190910101526068546071546040517f56afe7440000000000000000000000000000000000000000000000000000000081526001600160a01b03909216916356afe74491610d289185919060040161338f565b600060405180830381600087803b158015610d4257600080fd5b505af1158015610d56573d6000803e3d6000fd5b505050506000606860009054906101000a90046001600160a01b03166001600160a01b03166317d70f7c6040518163ffffffff1660e01b8152600401602060405180830381865afa158015610daf573d6000803e3d6000fd5b505050506040513d601f19601f82011682018060405250810190610dd391906133b1565b6068546040517f23b872dd0000000000000000000000000000000000000000000000000000000081523060048201526001600160a01b038881166024830152604482018490529293509116906323b872dd90606401600060405180830381600087803b158015610e4257600080fd5b505af1158015610e56573d6000803e3d6000fd5b50505050610e626122b4565b505050505050565b610944607254612215565b610e7d611ff0565b6001600160a01b038116610ebc5760405162461bcd60e51b815260206004820152600660248201526506164647220360d41b60448201526064016107c1565b606980546001600160a01b0319166001600160a01b0392909216919091179055565b6033546001600160a01b0316331480610f0657503360009081526070602052604090205460ff165b610f525760405162461bcd60e51b815260206004820152601160248201527f5065726d697373696f6e2064656e69656400000000000000000000000000000060448201526064016107c1565b610fbf8484808060200260200160405190810160405280939291908181526020018383602002808284376000920191909152505060408051602080880282810182019093528782529093508792508691829185019084908082843760009201919091525061241692505050565b50505050565b610fcd611ff0565b6001600160a01b03811661100c5760405162461bcd60e51b815260206004820152600660248201526506164647220360d41b60448201526064016107c1565b606880546001600160a01b0319166001600160a01b0392909216919091179055565b611036611ff0565b6109446000612719565b611048611ff0565b6001600160a01b03166000908152607060205260409020805460ff19169055565b6033546001600160a01b031633148061108c5750606a546001600160a01b031633145b6110c65760405162461bcd60e51b815260206004820152600b60248201526a105d5d1a0819985a5b195960aa1b60448201526064016107c1565b6068546071546040517f2e1a7d4d0000000000000000000000000000000000000000000000000000000081526001600160a01b0390921691632e1a7d4d916111149160040190815260200190565b600060405180830381600087803b15801561112e57600080fd5b505af1158015610fbf573d6000803e3d6000fd5b3360009081526076602052604090205460ff1615156001148061116f57506033546001600160a01b031633145b6111bb5760405162461bcd60e51b815260206004820152600a60248201527f6e6f74206b65657065720000000000000000000000000000000000000000000060448201526064016107c1565b60005b6078548110156112145760776000607883815481106111df576111df613349565b60009182526020808320909101546001600160a01b0316835282019290925260400181205561120d816133e0565b90506111be565b61122060786000612d01565b606b546071546040517f7715ee750000000000000000000000000000000000000000000000000000000081526001600160a01b0390921691637715ee759161126e91879187916004016133fa565b600060405180830381600087803b15801561128857600080fd5b505af115801561129c573d6000803e3d6000fd5b505084516000935083925090508180805b83861015611467578686815181106112c7576112c7613349565b6020026020010151519250600094505b82851015611455578686815181106112f1576112f1613349565b6020026020010151858151811061130a5761130a613349565b60209081029190910101516040516370a0823160e01b81523060048201529091506001600160a01b038216906370a0823190602401602060405180830381865afa15801561135c573d6000803e3d6000fd5b505050506040513d601f19601f8201168201806040525081019061138091906133b1565b91508115611443576001600160a01b03811660008181526077602052604081208490556078805460018101825591527f8dc6fb69531d98d70dc0420e638d2dfd04e09e1ec783ede9aac77da9c5a0dac40180546001600160a01b0319169091179055607954600160a01b900460ff16801561140557506079546001600160a01b031615155b1561142957607954611424906001600160a01b0383811691168461276b565b611443565b606c54611443906001600160a01b0383811691168461276b565b8461144d816133e0565b9550506112d7565b8561145f816133e0565b9650506112ad565b5050505050505050565b6033546001600160a01b03163314806114945750606a546001600160a01b031633145b6114ce5760405162461bcd60e51b815260206004820152600b60248201526a105d5d1a0819985a5b195960aa1b60448201526064016107c1565b606d546071546040517f379607f50000000000000000000000000000000000000000000000000000000081526001600160a01b039092169163379607f5916111149160040190815260200190565b6033546001600160a01b031633148061153f5750606a546001600160a01b031633145b6115795760405162461bcd60e51b815260206004820152600b60248201526a105d5d1a0819985a5b195960aa1b60448201526064016107c1565b607154156115c95760405162461bcd60e51b815260206004820152600e60248201527f416c7265616479206c6f636b656400000000000000000000000000000000000060448201526064016107c1565b6069546040516370a0823160e01b81523060048201526000916001600160a01b0316906370a0823190602401602060405180830381865afa158015611612573d6000803e3d6000fd5b505050506040513d601f19601f8201168201806040525081019061163691906133b1565b9050808311156116885760405162461bcd60e51b815260206004820152601660248201527f416d6f756e7420657863656564732062616c616e63650000000000000000000060448201526064016107c1565b6068546069546116a6916001600160a01b0391821691166000612819565b6068546069546116c3916001600160a01b03918216911685612819565b6068546040517f65fc387300000000000000000000000000000000000000000000000000000000815260048101859052602481018490526001600160a01b03909116906365fc3873906044016020604051808303816000875af115801561172e573d6000803e3d6000fd5b505050506040513d601f19601f8201168201806040525081019061175291906133b1565b607155505050565b611762611ff0565b6001600160a01b0381166117a15760405162461bcd60e51b815260206004820152600660248201526506164647220360d41b60448201526064016107c1565b606d80546001600160a01b0319166001600160a01b0392909216919091179055565b6117cb611ff0565b6001600160a01b03811661180a5760405162461bcd60e51b815260206004820152600660248201526506164647220360d41b60448201526064016107c1565b606a80546001600160a01b0319166001600160a01b0392909216919091179055565b611834611ff0565b6001600160a01b03166000908152607060205260409020805460ff19166001179055565b611860611ff0565b60798054911515600160a01b027fffffffffffffffffffffff00ffffffffffffffffffffffffffffffffffffffff909216919091179055565b3360009081526076602052604090205460ff161515600114806118c657506033546001600160a01b031633145b6119125760405162461bcd60e51b815260206004820152600a60248201527f6e6f74206b65657065720000000000000000000000000000000000000000000060448201526064016107c1565b606b546071546040517f666256aa0000000000000000000000000000000000000000000000000000000081526001600160a01b039092169163666256aa9161196091869186916004016133fa565b600060405180830381600087803b15801561197a57600080fd5b505af115801561198e573d6000803e3d6000fd5b50508351600092508291508180805b83861015611467578686815181106119b7576119b7613349565b6020026020010151519250600094505b82851015611aeb578686815181106119e1576119e1613349565b602002602001015185815181106119fa576119fa613349565b60209081029190910101516040516370a0823160e01b81523060048201529091506001600160a01b038216906370a0823190602401602060405180830381865afa158015611a4c573d6000803e3d6000fd5b505050506040513d601f19601f82011682018060405250810190611a7091906133b1565b91508115611ad957607954600160a01b900460ff168015611a9b57506079546001600160a01b031615155b15611abf57607954611aba906001600160a01b0383811691168461276b565b611ad9565b606c54611ad9906001600160a01b0383811691168461276b565b84611ae3816133e0565b9550506119c7565b85611af5816133e0565b96505061199d565b600054610100900460ff1615808015611b1d5750600054600160ff909116105b80611b375750303b158015611b37575060005460ff166001145b611ba95760405162461bcd60e51b815260206004820152602e60248201527f496e697469616c697a61626c653a20636f6e747261637420697320616c72656160448201527f647920696e697469616c697a656400000000000000000000000000000000000060648201526084016107c1565b6000805460ff191660011790558015611bcc576000805461ff0019166101001790555b611bd4612967565b6065611be089826134f5565b50606980546001600160a01b03808a166001600160a01b031992831617909255606880549289169290911682179055604080517ffc0c546a000000000000000000000000000000000000000000000000000000008152905163fc0c546a916004808201926020929091908290030181865afa158015611c63573d6000803e3d6000fd5b505050506040513d601f19601f82011682018060405250810190611c8791906135b5565b6001600160a01b0316876001600160a01b031614611ce75760405162461bcd60e51b815260206004820152600e60248201527f6e6f742073616d6520746f6b656e00000000000000000000000000000000000060448201526064016107c1565b606b80546001600160a01b038088166001600160a01b031992831617909255606c8054878416908316179055606d805492861692909116919091179055611d308261016c6135d2565b611d3d90620151806135d2565b60725562093a806073558015611467576000805461ff0019169055604051600181527f7f26b83ff96e1f2b6a682f133852f6798a09c465da95921460cefb38474024989060200160405180910390a15050505050505050565b611d9e611ff0565b6001600160a01b038116611ddd5760405162461bcd60e51b815260206004820152600660248201526506164647220360d41b60448201526064016107c1565b607980546001600160a01b0319166001600160a01b0392909216919091179055565b6068546071546040517fb45a3c0e00000000000000000000000000000000000000000000000000000000815260009283926001600160a01b039091169163b45a3c0e91611e529160040190815260200190565b6040805180830381865afa158015611e6e573d6000803e3d6000fd5b505050506040513d601f19601f82011682018060405250810190611e9291906135e9565b506fffffffffffffffffffffffffffffffff1692915050565b60658054611eb890613475565b80601f0160208091040260200160405190810160405280929190818152602001828054611ee490613475565b8015611f315780601f10611f0657610100808354040283529160200191611f31565b820191906000526020600020905b815481529060010190602001808311611f1457829003601f168201915b505050505081565b611f41611ff0565b6001600160a01b038116611fbd5760405162461bcd60e51b815260206004820152602660248201527f4f776e61626c653a206e6577206f776e657220697320746865207a65726f206160448201527f646472657373000000000000000000000000000000000000000000000000000060648201526084016107c1565b6107d381612719565b60788181548110611fd657600080fd5b6000918252602090912001546001600160a01b0316905081565b6033546001600160a01b031633146109445760405162461bcd60e51b815260206004820181905260248201527f4f776e61626c653a2063616c6c6572206973206e6f7420746865206f776e657260448201526064016107c1565b6069546040516370a0823160e01b81523060048201526000916001600160a01b0316906370a0823190602401602060405180830381865afa158015612093573d6000803e3d6000fd5b505050506040513d601f19601f820116820180604052508101906120b791906133b1565b9050808211156121095760405162461bcd60e51b815260206004820152601c60248201527f416d6f756e74206578636565647320706561726c2062616c616e63650000000060448201526064016107c1565b606854606954612127916001600160a01b0391821691166000612819565b606854606954612144916001600160a01b03918216911684612819565b6068546071546040517fa183af520000000000000000000000000000000000000000000000000000000081526001600160a01b039092169163a183af5291612199918690600401918252602082015260400190565b600060405180830381600087803b1580156121b357600080fd5b505af1158015610e62573d6000803e3d6000fd5b606b546071546040517f310bd74b0000000000000000000000000000000000000000000000000000000081526001600160a01b039092169163310bd74b916111149160040190815260200190565b6068546071546040517fa4d855df0000000000000000000000000000000000000000000000000000000081526001600160a01b039092169163a4d855df9161226a918590600401918252602082015260400190565b600060405180830381600087803b15801561228457600080fd5b505af1158015612298573d6000803e3d6000fd5b5050505050565b60006122ab828461361d565b90505b92915050565b606a54604080517fb97dd9e200000000000000000000000000000000000000000000000000000000815290516000926001600160a01b03169163b97dd9e29160048083019260209291908290030181865afa158015612317573d6000803e3d6000fd5b505050506040513d601f19601f8201168201806040525081019061233b91906133b1565b600081815260746020526040902054909150156107d35760008181526075602090815260409182902080548351818402810184019094528084526107d393928301828280156123b357602002820191906000526020600020905b81546001600160a01b03168152600190910190602001808311612395575b5050506000858152607560209081526040918290206001018054835181840281018401909452808452929450925083018282801561241057602002820191906000526020600020905b8154815260200190600101908083116123fc575b50505050505b80518251146124675760405162461bcd60e51b815260206004820152601a60248201527f546f6b656e206c656e67746820646f65736e2774206d6174636800000000000060448201526064016107c1565b8151606b546071546040517f7ac09bf70000000000000000000000000000000000000000000000000000000081526001600160a01b0390921691637ac09bf7916124b79187908790600401613630565b600060405180830381600087803b1580156124d157600080fd5b505af11580156124e5573d6000803e3d6000fd5b50505050612506604051806040016040528060608152602001606081525090565b8167ffffffffffffffff81111561251f5761251f61300a565b604051908082528060200260200182016040528015612548578160200160208202803683370190505b50508381528167ffffffffffffffff8111156125665761256661300a565b60405190808252806020026020018201604052801561258f578160200160208202803683370190505b505060208082018490528151805183926066926125b29284929190910190612d1f565b5060208281015180516125cb9260018501920190612d84565b5090505060715460746000606a60009054906101000a90046001600160a01b03166001600160a01b031663b97dd9e26040518163ffffffff1660e01b8152600401602060405180830381865afa158015612629573d6000803e3d6000fd5b505050506040513d601f19601f8201168201806040525081019061264d91906133b1565b815260200190815260200160002081905550606660756000606a60009054906101000a90046001600160a01b03166001600160a01b031663b97dd9e26040518163ffffffff1660e01b8152600401602060405180830381865afa1580156126b8573d6000803e3d6000fd5b505050506040513d601f19601f820116820180604052508101906126dc91906133b1565b8152602081019190915260400160002081546126fb9082908490612dbf565b50600182810180546127109284019190612dbf565b50505050505050565b603380546001600160a01b038381166001600160a01b0319831681179093556040519116919082907f8be0079c531659141344cd1fd0a4f28419497f9722a3daafe3b4186f6b6457e090600090a35050565b6040516001600160a01b0383166024820152604481018290526128149084907fa9059cbb00000000000000000000000000000000000000000000000000000000906064015b60408051601f198184030181529190526020810180517bffffffffffffffffffffffffffffffffffffffffffffffffffffffff167fffffffff00000000000000000000000000000000000000000000000000000000909316929092179091526129ec565b505050565b8015806128ac57506040517fdd62ed3e0000000000000000000000000000000000000000000000000000000081523060048201526001600160a01b03838116602483015284169063dd62ed3e90604401602060405180830381865afa158015612886573d6000803e3d6000fd5b505050506040513d601f19601f820116820180604052508101906128aa91906133b1565b155b61291e5760405162461bcd60e51b815260206004820152603660248201527f5361666545524332303a20617070726f76652066726f6d206e6f6e2d7a65726f60448201527f20746f206e6f6e2d7a65726f20616c6c6f77616e63650000000000000000000060648201526084016107c1565b6040516001600160a01b0383166024820152604481018290526128149084907f095ea7b300000000000000000000000000000000000000000000000000000000906064016127b0565b600054610100900460ff166129e45760405162461bcd60e51b815260206004820152602b60248201527f496e697469616c697a61626c653a20636f6e7472616374206973206e6f74206960448201527f6e697469616c697a696e6700000000000000000000000000000000000000000060648201526084016107c1565b610944612ad4565b6000612a41826040518060400160405280602081526020017f5361666545524332303a206c6f772d6c6576656c2063616c6c206661696c6564815250856001600160a01b0316612b5a9092919063ffffffff16565b9050805160001480612a62575080806020019051810190612a629190613665565b6128145760405162461bcd60e51b815260206004820152602a60248201527f5361666545524332303a204552433230206f7065726174696f6e20646964206e60448201527f6f7420737563636565640000000000000000000000000000000000000000000060648201526084016107c1565b600054610100900460ff16612b515760405162461bcd60e51b815260206004820152602b60248201527f496e697469616c697a61626c653a20636f6e7472616374206973206e6f74206960448201527f6e697469616c697a696e6700000000000000000000000000000000000000000060648201526084016107c1565b61094433612719565b6060612b698484600085612b71565b949350505050565b606082471015612be95760405162461bcd60e51b815260206004820152602660248201527f416464726573733a20696e73756666696369656e742062616c616e636520666f60448201527f722063616c6c000000000000000000000000000000000000000000000000000060648201526084016107c1565b600080866001600160a01b03168587604051612c059190613682565b60006040518083038185875af1925050503d8060008114612c42576040519150601f19603f3d011682016040523d82523d6000602084013e612c47565b606091505b5091509150612c5887838387612c63565b979650505050505050565b60608315612cd2578251600003612ccb576001600160a01b0385163b612ccb5760405162461bcd60e51b815260206004820152601d60248201527f416464726573733a2063616c6c20746f206e6f6e2d636f6e747261637400000060448201526064016107c1565b5081612b69565b612b698383815115612ce75781518083602001fd5b8060405162461bcd60e51b81526004016107c19190613316565b50805460008255906000526020600020908101906107d39190612dff565b828054828255906000526020600020908101928215612d74579160200282015b82811115612d7457825182546001600160a01b0319166001600160a01b03909116178255602090920191600190910190612d3f565b50612d80929150612dff565b5090565b828054828255906000526020600020908101928215612d74579160200282015b82811115612d74578251825591602001919060010190612da4565b828054828255906000526020600020908101928215612d745760005260206000209182015b82811115612d74578254825591600101919060010190612de4565b5b80821115612d805760008155600101612e00565b6001600160a01b03811681146107d357600080fd5b8035612e3481612e14565b919050565b600060208284031215612e4b57600080fd5b8135612e5681612e14565b9392505050565b600060208284031215612e6f57600080fd5b5035919050565b600081518084526020808501945080840160005b83811015612eaf5781516001600160a01b031687529582019590820190600101612e8a565b509495945050505050565b600060208083528351604082850152612ed66060850182612e76565b85830151858203601f19016040870152805180835290840192506000918401905b80831015612f175783518252928401926001929092019190840190612ef7565b509695505050505050565b60008060408385031215612f3557600080fd5b823591506020830135612f4781612e14565b809150509250929050565b60008083601f840112612f6457600080fd5b50813567ffffffffffffffff811115612f7c57600080fd5b6020830191508360208260051b8501011115612f9757600080fd5b9250929050565b60008060008060408587031215612fb457600080fd5b843567ffffffffffffffff80821115612fcc57600080fd5b612fd888838901612f52565b90965094506020870135915080821115612ff157600080fd5b50612ffe87828801612f52565b95989497509550505050565b634e487b7160e01b600052604160045260246000fd5b604051601f8201601f1916810167ffffffffffffffff811182821017156130495761304961300a565b604052919050565b600067ffffffffffffffff82111561306b5761306b61300a565b5060051b60200190565b600082601f83011261308657600080fd5b8135602061309b61309683613051565b613020565b82815260059290921b840181019181810190868411156130ba57600080fd5b8286015b84811015612f175780356130d181612e14565b83529183019183016130be565b600080604083850312156130f157600080fd5b823567ffffffffffffffff8082111561310957600080fd5b61311586838701613075565b935060209150818501358181111561312c57600080fd5b8501601f8101871361313d57600080fd5b803561314b61309682613051565b81815260059190911b8201840190848101908983111561316a57600080fd5b8584015b838110156131a2578035868111156131865760008081fd5b6131948c8983890101613075565b84525091860191860161316e565b508096505050505050509250929050565b600080604083850312156131c657600080fd5b50508035926020909101359150565b80151581146107d357600080fd5b6000602082840312156131f557600080fd5b8135612e56816131d5565b600080600080600080600060e0888a03121561321b57600080fd5b873567ffffffffffffffff8082111561323357600080fd5b818a0191508a601f83011261324757600080fd5b813560208282111561325b5761325b61300a565b61326d81601f19601f85011601613020565b92508183528c8183860101111561328357600080fd5b81818501828501376000818385010152829a506132a1818d01612e29565b9950505050506132b360408901612e29565b94506132c160608901612e29565b93506132cf60808901612e29565b92506132dd60a08901612e29565b915060c0880135905092959891949750929550565b60005b8381101561330d5781810151838201526020016132f5565b50506000910152565b60208152600082518060208401526133358160408501602087016132f2565b601f01601f19169190910160400192915050565b634e487b7160e01b600052603260045260246000fd5b600081518084526020808501945080840160005b83811015612eaf57815187529582019590820190600101613373565b6040815260006133a2604083018561335f565b90508260208301529392505050565b6000602082840312156133c357600080fd5b5051919050565b634e487b7160e01b600052601160045260246000fd5b600060001982036133f3576133f36133ca565b5060010190565b60608152600061340d6060830186612e76565b6020838203818501528186518084528284019150828160051b85010183890160005b8381101561345d57601f1987840301855261344b838351612e76565b9486019492509085019060010161342f565b50508095505050505050826040830152949350505050565b600181811c9082168061348957607f821691505b6020821081036134a957634e487b7160e01b600052602260045260246000fd5b50919050565b601f82111561281457600081815260208120601f850160051c810160208610156134d65750805b601f850160051c820191505b81811015610e62578281556001016134e2565b815167ffffffffffffffff81111561350f5761350f61300a565b6135238161351d8454613475565b846134af565b602080601f83116001811461355857600084156135405750858301515b600019600386901b1c1916600185901b178555610e62565b600085815260208120601f198616915b8281101561358757888601518255948401946001909101908401613568565b50858210156135a55787850151600019600388901b60f8161c191681555b5050505050600190811b01905550565b6000602082840312156135c757600080fd5b8151612e5681612e14565b80820281158282048414176122ae576122ae6133ca565b600080604083850312156135fc57600080fd5b825180600f0b811461360d57600080fd5b6020939093015192949293505050565b818103818111156122ae576122ae6133ca565b8381526060602082015260006136496060830185612e76565b828103604084015261365b818561335f565b9695505050505050565b60006020828403121561367757600080fd5b8151612e56816131d5565b600082516136948184602087016132f2565b919091019291505056fea264697066735822122002ae17cb4dc09dfe8f82c63605854686d6377de817e1c4dcd7eb71d207a78bfb64736f6c63430008130033",
  "devdoc": {
    "events": {
      "Initialized(uint8)": {
        "details": "Triggered when the contract has been initialized or reinitialized."
      }
    },
    "kind": "dev",
    "methods": {
      "owner()": {
        "details": "Returns the address of the current owner."
      },
      "renounceOwnership()": {
        "details": "Leaves the contract without owner. It will not be possible to call `onlyOwner` functions. Can only be called by the current owner. NOTE: Renouncing ownership will leave the contract without an owner, thereby disabling any functionality that is only available to the owner."
      },
      "transferOwnership(address)": {
        "details": "Transfers ownership of the contract to a new account (`newOwner`). Can only be called by the current owner."
      }
    },
    "version": 1
  },
  "userdoc": {
    "kind": "user",
    "methods": {},
    "version": 1
  },
  "storageLayout": {
    "storage": [
      {
        "astId": 138,
        "contract": "contracts/CaviarStrategy.sol:CaviarStrategy",
        "label": "_initialized",
        "offset": 0,
        "slot": "0",
        "type": "t_uint8"
      },
      {
        "astId": 141,
        "contract": "contracts/CaviarStrategy.sol:CaviarStrategy",
        "label": "_initializing",
        "offset": 1,
        "slot": "0",
        "type": "t_bool"
      },
      {
        "astId": 671,
        "contract": "contracts/CaviarStrategy.sol:CaviarStrategy",
        "label": "__gap",
        "offset": 0,
        "slot": "1",
        "type": "t_array(t_uint256)50_storage"
      },
      {
        "astId": 10,
        "contract": "contracts/CaviarStrategy.sol:CaviarStrategy",
        "label": "_owner",
        "offset": 0,
        "slot": "51",
        "type": "t_address"
      },
      {
        "astId": 130,
        "contract": "contracts/CaviarStrategy.sol:CaviarStrategy",
        "label": "__gap",
        "offset": 0,
        "slot": "52",
        "type": "t_array(t_uint256)49_storage"
      },
      {
        "astId": 4792,
        "contract": "contracts/CaviarStrategy.sol:CaviarStrategy",
        "label": "__NAME__",
        "offset": 0,
        "slot": "101",
        "type": "t_string_storage"
      },
      {
        "astId": 4802,
        "contract": "contracts/CaviarStrategy.sol:CaviarStrategy",
        "label": "lastVote",
        "offset": 0,
        "slot": "102",
        "type": "t_struct(VoteInfo)4799_storage"
      },
      {
        "astId": 4804,
        "contract": "contracts/CaviarStrategy.sol:CaviarStrategy",
        "label": "vePearl",
        "offset": 0,
        "slot": "104",
        "type": "t_address"
      },
      {
        "astId": 4806,
        "contract": "contracts/CaviarStrategy.sol:CaviarStrategy",
        "label": "pearl",
        "offset": 0,
        "slot": "105",
        "type": "t_address"
      },
      {
        "astId": 4808,
        "contract": "contracts/CaviarStrategy.sol:CaviarStrategy",
        "label": "caviarManager",
        "offset": 0,
        "slot": "106",
        "type": "t_address"
      },
      {
        "astId": 4810,
        "contract": "contracts/CaviarStrategy.sol:CaviarStrategy",
        "label": "pearlVoter",
        "offset": 0,
        "slot": "107",
        "type": "t_address"
      },
      {
        "astId": 4812,
        "contract": "contracts/CaviarStrategy.sol:CaviarStrategy",
        "label": "feeManager",
        "offset": 0,
        "slot": "108",
        "type": "t_address"
      },
      {
        "astId": 4814,
        "contract": "contracts/CaviarStrategy.sol:CaviarStrategy",
        "label": "pearlRewardsDistributor",
        "offset": 0,
        "slot": "109",
        "type": "t_address"
      },
      {
        "astId": 4816,
        "contract": "contracts/CaviarStrategy.sol:CaviarStrategy",
        "label": "cvrPearlGauge",
        "offset": 0,
        "slot": "110",
        "type": "t_address"
      },
      {
        "astId": 4820,
        "contract": "contracts/CaviarStrategy.sol:CaviarStrategy",
        "label": "isBoostStrategy",
        "offset": 0,
        "slot": "111",
        "type": "t_mapping(t_address,t_bool)"
      },
      {
        "astId": 4824,
        "contract": "contracts/CaviarStrategy.sol:CaviarStrategy",
        "label": "isAllowedVoter",
        "offset": 0,
        "slot": "112",
        "type": "t_mapping(t_address,t_bool)"
      },
      {
        "astId": 4826,
        "contract": "contracts/CaviarStrategy.sol:CaviarStrategy",
        "label": "tokenId",
        "offset": 0,
        "slot": "113",
        "type": "t_uint256"
      },
      {
        "astId": 4828,
        "contract": "contracts/CaviarStrategy.sol:CaviarStrategy",
        "label": "MAX_TIME",
        "offset": 0,
        "slot": "114",
        "type": "t_uint256"
      },
      {
        "astId": 4830,
        "contract": "contracts/CaviarStrategy.sol:CaviarStrategy",
        "label": "WEEK",
        "offset": 0,
        "slot": "115",
        "type": "t_uint256"
      },
      {
        "astId": 4834,
        "contract": "contracts/CaviarStrategy.sol:CaviarStrategy",
        "label": "tokenIdAt",
        "offset": 0,
        "slot": "116",
        "type": "t_mapping(t_uint256,t_uint256)"
      },
      {
        "astId": 4839,
        "contract": "contracts/CaviarStrategy.sol:CaviarStrategy",
        "label": "voteInfoAt",
        "offset": 0,
        "slot": "117",
        "type": "t_mapping(t_uint256,t_struct(VoteInfo)4799_storage)"
      },
      {
        "astId": 4843,
        "contract": "contracts/CaviarStrategy.sol:CaviarStrategy",
        "label": "isKeeper",
        "offset": 0,
        "slot": "118",
        "type": "t_mapping(t_address,t_bool)"
      },
      {
        "astId": 4847,
        "contract": "contracts/CaviarStrategy.sol:CaviarStrategy",
        "label": "lastBribe",
        "offset": 0,
        "slot": "119",
        "type": "t_mapping(t_address,t_uint256)"
      },
      {
        "astId": 4850,
        "contract": "contracts/CaviarStrategy.sol:CaviarStrategy",
        "label": "bribeTokens",
        "offset": 0,
        "slot": "120",
        "type": "t_array(t_address)dyn_storage"
      },
      {
        "astId": 4852,
        "contract": "contracts/CaviarStrategy.sol:CaviarStrategy",
        "label": "manualFeeManager",
        "offset": 0,
        "slot": "121",
        "type": "t_address"
      },
      {
        "astId": 4854,
        "contract": "contracts/CaviarStrategy.sol:CaviarStrategy",
        "label": "isManual",
        "offset": 20,
        "slot": "121",
        "type": "t_bool"
      }
    ],
    "types": {
      "t_address": {
        "encoding": "inplace",
        "label": "address",
        "numberOfBytes": "20"
      },
      "t_array(t_address)dyn_storage": {
        "base": "t_address",
        "encoding": "dynamic_array",
        "label": "address[]",
        "numberOfBytes": "32"
      },
      "t_array(t_uint256)49_storage": {
        "base": "t_uint256",
        "encoding": "inplace",
        "label": "uint256[49]",
        "numberOfBytes": "1568"
      },
      "t_array(t_uint256)50_storage": {
        "base": "t_uint256",
        "encoding": "inplace",
        "label": "uint256[50]",
        "numberOfBytes": "1600"
      },
      "t_array(t_uint256)dyn_storage": {
        "base": "t_uint256",
        "encoding": "dynamic_array",
        "label": "uint256[]",
        "numberOfBytes": "32"
      },
      "t_bool": {
        "encoding": "inplace",
        "label": "bool",
        "numberOfBytes": "1"
      },
      "t_mapping(t_address,t_bool)": {
        "encoding": "mapping",
        "key": "t_address",
        "label": "mapping(address => bool)",
        "numberOfBytes": "32",
        "value": "t_bool"
      },
      "t_mapping(t_address,t_uint256)": {
        "encoding": "mapping",
        "key": "t_address",
        "label": "mapping(address => uint256)",
        "numberOfBytes": "32",
        "value": "t_uint256"
      },
      "t_mapping(t_uint256,t_struct(VoteInfo)4799_storage)": {
        "encoding": "mapping",
        "key": "t_uint256",
        "label": "mapping(uint256 => struct CaviarStrategy.VoteInfo)",
        "numberOfBytes": "32",
        "value": "t_struct(VoteInfo)4799_storage"
      },
      "t_mapping(t_uint256,t_uint256)": {
        "encoding": "mapping",
        "key": "t_uint256",
        "label": "mapping(uint256 => uint256)",
        "numberOfBytes": "32",
        "value": "t_uint256"
      },
      "t_string_storage": {
        "encoding": "bytes",
        "label": "string",
        "numberOfBytes": "32"
      },
      "t_struct(VoteInfo)4799_storage": {
        "encoding": "inplace",
        "label": "struct CaviarStrategy.VoteInfo",
        "members": [
          {
            "astId": 4795,
            "contract": "contracts/CaviarStrategy.sol:CaviarStrategy",
            "label": "pairs",
            "offset": 0,
            "slot": "0",
            "type": "t_array(t_address)dyn_storage"
          },
          {
            "astId": 4798,
            "contract": "contracts/CaviarStrategy.sol:CaviarStrategy",
            "label": "weights",
            "offset": 0,
            "slot": "1",
            "type": "t_array(t_uint256)dyn_storage"
          }
        ],
        "numberOfBytes": "64"
      },
      "t_uint256": {
        "encoding": "inplace",
        "label": "uint256",
        "numberOfBytes": "32"
      },
      "t_uint8": {
        "encoding": "inplace",
        "label": "uint8",
        "numberOfBytes": "1"
      }
    }
  }
}