{
  "address": "0x3f89ffF0821f1d05D7c384A9FBd456f2195EF421",
  "abi": [
    {
      "inputs": [],
      "stateMutability": "nonpayable",
      "type": "constructor"
    },
    {
      "anonymous": false,
      "inputs": [
        {
          "indexed": true,
          "internalType": "address",
          "name": "token",
          "type": "address"
        },
        {
          "indexed": false,
          "internalType": "uint256",
          "name": "amount",
          "type": "uint256"
        }
      ],
      "name": "EmergencyWithdrawal",
      "type": "event"
    },
    {
      "anonymous": false,
      "inputs": [
        {
          "indexed": true,
          "internalType": "address",
          "name": "token",
          "type": "address"
        },
        {
          "indexed": false,
          "internalType": "uint256",
          "name": "amount",
          "type": "uint256"
        },
        {
          "indexed": true,
          "internalType": "address",
          "name": "receiver",
          "type": "address"
        }
      ],
      "name": "FeesDistributed",
      "type": "event"
    },
    {
      "anonymous": false,
      "inputs": [
        {
          "indexed": false,
          "internalType": "uint8",
          "name": "version",
          "type": "uint8"
        }
      ],
      "name": "Initialized",
      "type": "event"
    },
    {
      "anonymous": false,
      "inputs": [
        {
          "indexed": true,
          "internalType": "address",
          "name": "keeper",
          "type": "address"
        }
      ],
      "name": "KeeperAdded",
      "type": "event"
    },
    {
      "anonymous": false,
      "inputs": [
        {
          "indexed": true,
          "internalType": "address",
          "name": "keeper",
          "type": "address"
        }
      ],
      "name": "KeeperRemoved",
      "type": "event"
    },
    {
      "anonymous": false,
      "inputs": [
        {
          "indexed": true,
          "internalType": "address",
          "name": "previousOwner",
          "type": "address"
        },
        {
          "indexed": true,
          "internalType": "address",
          "name": "newOwner",
          "type": "address"
        }
      ],
      "name": "OwnershipTransferred",
      "type": "event"
    },
    {
      "anonymous": false,
      "inputs": [
        {
          "indexed": true,
          "internalType": "address",
          "name": "token",
          "type": "address"
        }
      ],
      "name": "TokenAdded",
      "type": "event"
    },
    {
      "anonymous": false,
      "inputs": [
        {
          "indexed": true,
          "internalType": "address",
          "name": "token",
          "type": "address"
        },
        {
          "indexed": false,
          "internalType": "uint256",
          "name": "amount",
          "type": "uint256"
        },
        {
          "indexed": false,
          "internalType": "uint256",
          "name": "amountOut",
          "type": "uint256"
        }
      ],
      "name": "TokenConverted",
      "type": "event"
    },
    {
      "anonymous": false,
      "inputs": [
        {
          "indexed": true,
          "internalType": "address",
          "name": "token",
          "type": "address"
        }
      ],
      "name": "TokenRemoved",
      "type": "event"
    },
    {
      "inputs": [],
      "name": "FEE_CHEF",
      "outputs": [
        {
          "internalType": "uint256",
          "name": "",
          "type": "uint256"
        }
      ],
      "stateMutability": "view",
      "type": "function"
    },
    {
      "inputs": [],
      "name": "__NAME__",
      "outputs": [
        {
          "internalType": "string",
          "name": "",
          "type": "string"
        }
      ],
      "stateMutability": "view",
      "type": "function"
    },
    {
      "inputs": [
        {
          "internalType": "address",
          "name": "_keeper",
          "type": "address"
        }
      ],
      "name": "addKeeper",
      "outputs": [],
      "stateMutability": "nonpayable",
      "type": "function"
    },
    {
      "inputs": [
        {
          "internalType": "address",
          "name": "_token",
          "type": "address"
        }
      ],
      "name": "addRewardToken",
      "outputs": [],
      "stateMutability": "nonpayable",
      "type": "function"
    },
    {
      "inputs": [],
      "name": "caviar",
      "outputs": [
        {
          "internalType": "address",
          "name": "",
          "type": "address"
        }
      ],
      "stateMutability": "view",
      "type": "function"
    },
    {
      "inputs": [],
      "name": "caviarManager",
      "outputs": [
        {
          "internalType": "address",
          "name": "",
          "type": "address"
        }
      ],
      "stateMutability": "view",
      "type": "function"
    },
    {
      "inputs": [],
      "name": "checkConvertibleRewards",
      "outputs": [
        {
          "internalType": "bool",
          "name": "_canConvert",
          "type": "bool"
        },
        {
          "internalType": "address",
          "name": "_token",
          "type": "address"
        },
        {
          "internalType": "uint256",
          "name": "_amount",
          "type": "uint256"
        }
      ],
      "stateMutability": "view",
      "type": "function"
    },
    {
      "inputs": [
        {
          "internalType": "address",
          "name": "_token",
          "type": "address"
        },
        {
          "internalType": "uint256",
          "name": "_amount",
          "type": "uint256"
        },
        {
          "internalType": "address",
          "name": "_target",
          "type": "address"
        },
        {
          "internalType": "bytes",
          "name": "_data",
          "type": "bytes"
        }
      ],
      "name": "convertRewardToken",
      "outputs": [],
      "stateMutability": "nonpayable",
      "type": "function"
    },
    {
      "inputs": [
        {
          "internalType": "uint256",
          "name": "_amount",
          "type": "uint256"
        }
      ],
      "name": "distributeEmissions",
      "outputs": [],
      "stateMutability": "nonpayable",
      "type": "function"
    },
    {
      "inputs": [
        {
          "internalType": "uint256",
          "name": "_amount",
          "type": "uint256"
        }
      ],
      "name": "distributeRebaseFees",
      "outputs": [],
      "stateMutability": "nonpayable",
      "type": "function"
    },
    {
      "inputs": [
        {
          "internalType": "uint256",
          "name": "_amount",
          "type": "uint256"
        }
      ],
      "name": "distributeStakingFees",
      "outputs": [],
      "stateMutability": "nonpayable",
      "type": "function"
    },
    {
      "inputs": [
        {
          "internalType": "uint256",
          "name": "_amount",
          "type": "uint256"
        },
        {
          "internalType": "address",
          "name": "_target",
          "type": "address"
        },
        {
          "internalType": "bytes",
          "name": "_data",
          "type": "bytes"
        }
      ],
      "name": "distributeTngblFees",
      "outputs": [],
      "stateMutability": "nonpayable",
      "type": "function"
    },
    {
      "inputs": [
        {
          "internalType": "address",
          "name": "_token",
          "type": "address"
        }
      ],
      "name": "emergencyWithdraw",
      "outputs": [],
      "stateMutability": "nonpayable",
      "type": "function"
    },
    {
      "inputs": [],
      "name": "feeMultiplier",
      "outputs": [
        {
          "internalType": "uint256",
          "name": "",
          "type": "uint256"
        }
      ],
      "stateMutability": "view",
      "type": "function"
    },
    {
      "inputs": [],
      "name": "feeRebaseVault",
      "outputs": [
        {
          "internalType": "uint256",
          "name": "",
          "type": "uint256"
        }
      ],
      "stateMutability": "view",
      "type": "function"
    },
    {
      "inputs": [],
      "name": "feeStaking",
      "outputs": [
        {
          "internalType": "uint256",
          "name": "",
          "type": "uint256"
        }
      ],
      "stateMutability": "view",
      "type": "function"
    },
    {
      "inputs": [],
      "name": "feeTngbl",
      "outputs": [
        {
          "internalType": "uint256",
          "name": "",
          "type": "uint256"
        }
      ],
      "stateMutability": "view",
      "type": "function"
    },
    {
      "inputs": [],
      "name": "incentiveVault",
      "outputs": [
        {
          "internalType": "address",
          "name": "",
          "type": "address"
        }
      ],
      "stateMutability": "view",
      "type": "function"
    },
    {
      "inputs": [
        {
          "internalType": "string",
          "name": "_name",
          "type": "string"
        }
      ],
      "name": "initialize",
      "outputs": [],
      "stateMutability": "nonpayable",
      "type": "function"
    },
    {
      "inputs": [
        {
          "internalType": "address",
          "name": "",
          "type": "address"
        }
      ],
      "name": "isKeeper",
      "outputs": [
        {
          "internalType": "bool",
          "name": "",
          "type": "bool"
        }
      ],
      "stateMutability": "view",
      "type": "function"
    },
    {
      "inputs": [
        {
          "internalType": "address",
          "name": "",
          "type": "address"
        }
      ],
      "name": "isToken",
      "outputs": [
        {
          "internalType": "bool",
          "name": "",
          "type": "bool"
        }
      ],
      "stateMutability": "view",
      "type": "function"
    },
    {
      "inputs": [],
      "name": "lastLPRebase",
      "outputs": [
        {
          "internalType": "uint256",
          "name": "",
          "type": "uint256"
        }
      ],
      "stateMutability": "view",
      "type": "function"
    },
    {
      "inputs": [],
      "name": "lastStakingRebase",
      "outputs": [
        {
          "internalType": "uint256",
          "name": "",
          "type": "uint256"
        }
      ],
      "stateMutability": "view",
      "type": "function"
    },
    {
      "inputs": [],
      "name": "lpChef",
      "outputs": [
        {
          "internalType": "address",
          "name": "",
          "type": "address"
        }
      ],
      "stateMutability": "view",
      "type": "function"
    },
    {
      "inputs": [],
      "name": "owner",
      "outputs": [
        {
          "internalType": "address",
          "name": "",
          "type": "address"
        }
      ],
      "stateMutability": "view",
      "type": "function"
    },
    {
      "inputs": [],
      "name": "pairFactory",
      "outputs": [
        {
          "internalType": "address",
          "name": "",
          "type": "address"
        }
      ],
      "stateMutability": "view",
      "type": "function"
    },
    {
      "inputs": [],
      "name": "pearlPair",
      "outputs": [
        {
          "internalType": "address",
          "name": "",
          "type": "address"
        }
      ],
      "stateMutability": "view",
      "type": "function"
    },
    {
      "inputs": [],
      "name": "pendingTngblFee",
      "outputs": [
        {
          "internalType": "uint256",
          "name": "",
          "type": "uint256"
        }
      ],
      "stateMutability": "view",
      "type": "function"
    },
    {
      "inputs": [],
      "name": "rebaseChef",
      "outputs": [
        {
          "internalType": "address",
          "name": "",
          "type": "address"
        }
      ],
      "stateMutability": "view",
      "type": "function"
    },
    {
      "inputs": [
        {
          "internalType": "address",
          "name": "_keeper",
          "type": "address"
        }
      ],
      "name": "removeKeeper",
      "outputs": [],
      "stateMutability": "nonpayable",
      "type": "function"
    },
    {
      "inputs": [
        {
          "internalType": "address",
          "name": "_token",
          "type": "address"
        }
      ],
      "name": "removeRewardToken",
      "outputs": [],
      "stateMutability": "nonpayable",
      "type": "function"
    },
    {
      "inputs": [],
      "name": "renounceOwnership",
      "outputs": [],
      "stateMutability": "nonpayable",
      "type": "function"
    },
    {
      "inputs": [
        {
          "internalType": "address",
          "name": "_caviar",
          "type": "address"
        }
      ],
      "name": "setCaviar",
      "outputs": [],
      "stateMutability": "nonpayable",
      "type": "function"
    },
    {
      "inputs": [
        {
          "internalType": "address",
          "name": "_caviarManager",
          "type": "address"
        }
      ],
      "name": "setCaviarManager",
      "outputs": [],
      "stateMutability": "nonpayable",
      "type": "function"
    },
    {
      "inputs": [
        {
          "internalType": "uint256",
          "name": "_feeStaking",
          "type": "uint256"
        },
        {
          "internalType": "uint256",
          "name": "_feeTngbl",
          "type": "uint256"
        },
        {
          "internalType": "uint256",
          "name": "_feeRebaseVault",
          "type": "uint256"
        }
      ],
      "name": "setFees",
      "outputs": [],
      "stateMutability": "nonpayable",
      "type": "function"
    },
    {
      "inputs": [
        {
          "internalType": "address",
          "name": "_vault",
          "type": "address"
        }
      ],
      "name": "setIncentiveVault",
      "outputs": [],
      "stateMutability": "nonpayable",
      "type": "function"
    },
    {
      "inputs": [
        {
          "internalType": "address",
          "name": "_lpChef",
          "type": "address"
        }
      ],
      "name": "setLPChef",
      "outputs": [],
      "stateMutability": "nonpayable",
      "type": "function"
    },
    {
      "inputs": [
        {
          "internalType": "address",
          "name": "_pair",
          "type": "address"
        }
      ],
      "name": "setPearlPair",
      "outputs": [],
      "stateMutability": "nonpayable",
      "type": "function"
    },
    {
      "inputs": [
        {
          "internalType": "address",
          "name": "_rebaseChef",
          "type": "address"
        }
      ],
      "name": "setRebaseChef",
      "outputs": [],
      "stateMutability": "nonpayable",
      "type": "function"
    },
    {
      "inputs": [
        {
          "internalType": "address",
          "name": "_stakingChef",
          "type": "address"
        }
      ],
      "name": "setStakingChef",
      "outputs": [],
      "stateMutability": "nonpayable",
      "type": "function"
    },
    {
      "inputs": [
        {
          "internalType": "address",
          "name": "_treasury",
          "type": "address"
        }
      ],
      "name": "setTreasury",
      "outputs": [],
      "stateMutability": "nonpayable",
      "type": "function"
    },
    {
      "inputs": [
        {
          "internalType": "address",
          "name": "_usdc",
          "type": "address"
        }
      ],
      "name": "setUSDC",
      "outputs": [],
      "stateMutability": "nonpayable",
      "type": "function"
    },
    {
      "inputs": [
        {
          "internalType": "address",
          "name": "_usdr",
          "type": "address"
        }
      ],
      "name": "setUSDR",
      "outputs": [],
      "stateMutability": "nonpayable",
      "type": "function"
    },
    {
      "inputs": [
        {
          "internalType": "address",
          "name": "_wusdr",
          "type": "address"
        }
      ],
      "name": "setWUSDR",
      "outputs": [],
      "stateMutability": "nonpayable",
      "type": "function"
    },
    {
      "inputs": [],
      "name": "stakingChef",
      "outputs": [
        {
          "internalType": "address",
          "name": "",
          "type": "address"
        }
      ],
      "stateMutability": "view",
      "type": "function"
    },
    {
      "inputs": [
        {
          "internalType": "uint256",
          "name": "",
          "type": "uint256"
        }
      ],
      "name": "tokens",
      "outputs": [
        {
          "internalType": "address",
          "name": "",
          "type": "address"
        }
      ],
      "stateMutability": "view",
      "type": "function"
    },
    {
      "inputs": [
        {
          "internalType": "address",
          "name": "newOwner",
          "type": "address"
        }
      ],
      "name": "transferOwnership",
      "outputs": [],
      "stateMutability": "nonpayable",
      "type": "function"
    },
    {
      "inputs": [],
      "name": "treasury",
      "outputs": [
        {
          "internalType": "address",
          "name": "",
          "type": "address"
        }
      ],
      "stateMutability": "view",
      "type": "function"
    },
    {
      "inputs": [],
      "name": "usdc",
      "outputs": [
        {
          "internalType": "address",
          "name": "",
          "type": "address"
        }
      ],
      "stateMutability": "view",
      "type": "function"
    },
    {
      "inputs": [],
      "name": "usdr",
      "outputs": [
        {
          "internalType": "address",
          "name": "",
          "type": "address"
        }
      ],
      "stateMutability": "view",
      "type": "function"
    },
    {
      "inputs": [],
      "name": "wusdr",
      "outputs": [
        {
          "internalType": "address",
          "name": "",
          "type": "address"
        }
      ],
      "stateMutability": "view",
      "type": "function"
    }
  ],
  "transactionHash": "0xc6db8279976dfd82d25ef5d97c22e32cc64b55bded46c8057c5bab8042dad08f",
  "args": [],
  "numDeployments": 1,
  "solcInputHash": "6bf0f3514018a2d53d3454ff55593a70",
  "bytecode": "0x608060405234801561001057600080fd5b50612e66806100206000396000f3fe608060405234801561001057600080fd5b50600436106103415760003560e01c806376ae6030116101bd578063b8a088ab116100f9578063f0f44260116100a2578063f2fde38b1161007c578063f2fde38b146106e9578063f62d1888146106fc578063f795cc781461070f578063fb83074b1461072257600080fd5b8063f0f44260146106ae578063f1819bb5146106c1578063f1d47234146106d657600080fd5b8063e5a70ef7116100d3578063e5a70ef71461067f578063e841b62614610688578063ef1f096d1461069b57600080fd5b8063b8a088ab14610646578063cec10c1114610659578063e14f870d1461066c57600080fd5b80638da5cb5b11610166578063b3c49dd811610140578063b3c49dd8146105fa578063b3e089a21461060d578063b547da9c14610620578063b57540281461063357600080fd5b80638da5cb5b146105cd578063ada13fc6146105de578063b25ba373146105f157600080fd5b80638366358c116101975780638366358c146105a857806383cf59c9146105bb5780638cc90c87146105c457600080fd5b806376ae60301461056f5780637e08b86f14610582578063805720641461059557600080fd5b80634032b72b1161028c57806366c91c43116102355780636ff1c9bc1161020f5780636ff1c9bc14610514578063715018a6146105275780637393f60e1461052f578063740856601461054257600080fd5b806366c91c43146104cb57806369fc4891146104de5780636ba42aaa146104f157600080fd5b80634f64b2be116102665780634f64b2be146104925780635b7e8bec146104a557806361d027b3146104b857600080fd5b80634032b72b14610463578063471841fa1461047657806349d424d71461048957600080fd5b806319f37361116102ee578063268155bd116102c8578063268155bd1461042a5780633d509c971461043d5780633e413bee1461045057600080fd5b806319f37361146103d15780631c03e6cc14610404578063217c1d681461041757600080fd5b806308b74bca1161031f57806308b74bca146103805780630fa94442146103ab57806314ae9f2e146103be57600080fd5b8063050782871461034657806306549c9b1461035b57806306dce8dd14610377575b600080fd5b610359610354366004612880565b61072b565b005b61036460735481565b6040519081526020015b60405180910390f35b61036460725481565b607154610393906001600160a01b031681565b6040516001600160a01b03909116815260200161036e565b6103596103b93660046128a4565b610768565b6103596103cc366004612880565b6109e5565b6103f46103df366004612880565b606c6020526000908152604090205460ff1681565b604051901515815260200161036e565b610359610412366004612880565b610a73565b606e54610393906001600160a01b031681565b610359610438366004612880565b610b70565b61035961044b366004612880565b610bad565b607054610393906001600160a01b031681565b610359610471366004612880565b610d7b565b610359610484366004612880565b610e08565b61036460785481565b6103936104a03660046128a4565b610e45565b6103596104b3366004612880565b610e6f565b606754610393906001600160a01b031681565b607b54610393906001600160a01b031681565b606b54610393906001600160a01b031681565b6103f46104ff366004612880565b606d6020526000908152604090205460ff1681565b610359610522366004612880565b610eac565b610359610f7c565b607954610393906001600160a01b031681565b61054a610f90565b6040805193151584526001600160a01b0390921660208401529082015260600161036e565b61035961057d3660046128a4565b611074565b607a54610393906001600160a01b031681565b6103596105a3366004612906565b61114c565b6103596105b6366004612880565b61135b565b61036460745481565b61036460665481565b6033546001600160a01b0316610393565b606f54610393906001600160a01b031681565b61036460765481565b606854610393906001600160a01b031681565b61035961061b366004612880565b611398565b61035961062e3660046128a4565b6113d5565b610359610641366004612880565b61143b565b610359610654366004612880565b611478565b610359610667366004612962565b6114b5565b606a54610393906001600160a01b031681565b61036460755481565b607c54610393906001600160a01b031681565b6103596106a9366004612880565b61152f565b6103596106bc366004612880565b61156c565b6106c96115a9565b60405161036e91906129b2565b6103596106e43660046129e5565b611637565b6103596106f7366004612880565b611a21565b61035961070a366004612a6e565b611aae565b61035961071d366004612880565b611bdc565b61036460775481565b610733611c19565b6001600160a01b03811661074657600080fd5b606e80546001600160a01b0319166001600160a01b0392909216919091179055565b606b546001600160a01b031633148061078b57506033546001600160a01b031633145b6107c75760405162461bcd60e51b81526020600482015260086024820152670dcdee840c2eae8d60c31b60448201526064015b60405180910390fd5b60006107d1611c73565b50606e546079546040516370a0823160e01b81526001600160a01b0391821660048201529293506000929116906370a0823190602401602060405180830381865afa158015610824573d6000803e3d6000fd5b505050506040513d601f19601f820116820180604052508101906108489190612b1f565b60685490915083906001600160a01b0316156108af57600061088160755461087b60745488611f7a90919063ffffffff16565b90611f8f565b606854606e549192506108a1916001600160a01b03908116911683611f9b565b6108ab8582612049565b9150505b60006108bb8385612055565b905060006108cd8261087b8587611f7a565b607a54606e549192506108ed916001600160a01b03908116911683612061565b607a54604051632f942ad160e11b8152600481018390526001600160a01b0390911690635f2855a290602401600060405180830381600087803b15801561093357600080fd5b505af1158015610947573d6000803e3d6000fd5b50505060778290555061095a8382612049565b607b54606e5491945061097a916001600160a01b03908116911685612061565b607b54604051632f942ad160e11b8152600481018590526001600160a01b0390911690635f2855a290602401600060405180830381600087803b1580156109c057600080fd5b505af11580156109d4573d6000803e3d6000fd5b505050607893909355505050505050565b6109ed611c19565b6001600160a01b038116610a0057600080fd5b6001600160a01b0381166000908152606d602052604090205460ff161515600114610a2a57600080fd5b6001600160a01b0381166000818152606d6020526040808220805460ff19169055517fa7a775c2c8141f7985c111748ec31c11e5e44b83528e105c8d1d4e8e6b81cf809190a250565b610a7b611c19565b6001600160a01b0381166000908152606c602052604090205460ff1615610ae45760405162461bcd60e51b815260206004820152600d60248201527f616c72656164792061646465640000000000000000000000000000000000000060448201526064016107be565b6001600160a01b0381166000818152606c6020526040808220805460ff1916600190811790915560698054918201815583527f7fb4302e8e91f9110a6554c2c0a24601252c2a42c2220ca988efcfe3999143080180546001600160a01b03191684179055517f784c8f4dbf0ffedd6e72c76501c545a70f8b203b30a26ce542bf92ba87c248a49190a250565b610b78611c19565b6001600160a01b038116610b8b57600080fd5b607c80546001600160a01b0319166001600160a01b0392909216919091179055565b610bb5611c19565b6001600160a01b0381166000908152606c602052604090205460ff16610c1d5760405162461bcd60e51b815260206004820152600f60248201527f746f6b656e206e6f74206164646564000000000000000000000000000000000060448201526064016107be565b6001600160a01b0381166000908152606c60205260408120805460ff19169055606954905b81811015610d4257826001600160a01b031660698281548110610c6757610c67612b38565b6000918252602090912001546001600160a01b031603610d30576069610c8e600184612b64565b81548110610c9e57610c9e612b38565b600091825260209091200154606980546001600160a01b039092169183908110610cca57610cca612b38565b9060005260206000200160006101000a8154816001600160a01b0302191690836001600160a01b031602179055506069805480610d0957610d09612b77565b600082815260209020810160001990810180546001600160a01b0319169055019055610d42565b80610d3a81612b8d565b915050610c42565b506040516001600160a01b038316907f4c910b69fe65a61f7531b9c5042b2329ca7179c77290aa7e2eb3afa3c8511fd390600090a25050565b610d83611c19565b6001600160a01b038116610d9657600080fd5b6001600160a01b0381166000908152606d602052604090205460ff1615610dbc57600080fd5b6001600160a01b0381166000818152606d6020526040808220805460ff19166001179055517f1584773458d98c71b34a270ee1100b3a42889bf91e3b7a858563b684c24d838e9190a250565b610e10611c19565b6001600160a01b038116610e2357600080fd5b606f80546001600160a01b0319166001600160a01b0392909216919091179055565b60698181548110610e5557600080fd5b6000918252602090912001546001600160a01b0316905081565b610e77611c19565b6001600160a01b038116610e8a57600080fd5b607980546001600160a01b0319166001600160a01b0392909216919091179055565b610eb4611c19565b6040516370a0823160e01b81523060048201526000906001600160a01b038316906370a0823190602401602060405180830381865afa158015610efb573d6000803e3d6000fd5b505050506040513d601f19601f82011682018060405250810190610f1f9190612b1f565b9050610f356001600160a01b0383163383611f9b565b816001600160a01b03167f23d6711a1d031134a36921253c75aa59e967d38e369ac625992824315e204f2082604051610f7091815260200190565b60405180910390a25050565b610f84611c19565b610f8e60006121af565b565b60008080805b60695481101561106e5760698181548110610fb357610fb3612b38565b60009182526020808320909101546001600160a01b0316808352606c90915260409091205490935060ff161561105c576040516370a0823160e01b81523060048201526001600160a01b038416906370a0823190602401602060405180830381865afa158015611027573d6000803e3d6000fd5b505050506040513d601f19601f8201168201806040525081019061104b9190612b1f565b9150811561105c576001935061106e565b8061106681612b8d565b915050610f96565b50909192565b606b546001600160a01b031633148061109757506033546001600160a01b031633145b6110ce5760405162461bcd60e51b81526020600482015260086024820152670dcdee840c2eae8d60c31b60448201526064016107be565b607b54606e546110eb916001600160a01b03918216911683612061565b607b54604051632f942ad160e11b8152600481018390526001600160a01b0390911690635f2855a290602401600060405180830381600087803b15801561113157600080fd5b505af1158015611145573d6000803e3d6000fd5b5050505050565b336000908152606d602052604090205460ff1615156001148061117957506033546001600160a01b031633145b6111c55760405162461bcd60e51b815260206004820152600a60248201527f6e6f74206b65657065720000000000000000000000000000000000000000000060448201526064016107be565b6067546001600160a01b03166111da57600080fd5b607654841461122b5760405162461bcd60e51b815260206004820152600e60248201527f696e76616c696420616d6f756e7400000000000000000000000000000000000060448201526064016107be565b60006076556071546040517fba08765200000000000000000000000000000000000000000000000000000000815260048101869052306024820181905260448201526001600160a01b039091169063ba087652906064016020604051808303816000875af11580156112a1573d6000803e3d6000fd5b505050506040513d601f19601f820116820180604052508101906112c59190612b1f565b606f546070549195506000916112eb916001600160a01b03908116911687878787612201565b60675460705491925061130b916001600160a01b03908116911683611f9b565b6067546070546040518781526001600160a01b0392831692909116907f07c50ffb711e1de82d211ac5b9ae3df77a16de7255728af810284cd411a9835e9060200160405180910390a35050505050565b611363611c19565b6001600160a01b03811661137657600080fd5b607180546001600160a01b0319166001600160a01b0392909216919091179055565b6113a0611c19565b6001600160a01b0381166113b357600080fd5b607080546001600160a01b0319166001600160a01b0392909216919091179055565b606b546001600160a01b03163314806113f857506033546001600160a01b031633145b61142f5760405162461bcd60e51b81526020600482015260086024820152670dcdee840c2eae8d60c31b60448201526064016107be565b611438816123c9565b50565b611443611c19565b6001600160a01b03811661145657600080fd5b607b80546001600160a01b0319166001600160a01b0392909216919091179055565b611480611c19565b6001600160a01b03811661149357600080fd5b606b80546001600160a01b0319166001600160a01b0392909216919091179055565b6114bd611c19565b60006114c98385612ba7565b90508082111561151b5760405162461bcd60e51b815260206004820152601260248201527f496e76616c6964206665652076616c756573000000000000000000000000000060448201526064016107be565b607293909355607391909155607455607555565b611537611c19565b6001600160a01b03811661154a57600080fd5b607a80546001600160a01b0319166001600160a01b0392909216919091179055565b611574611c19565b6001600160a01b03811661158757600080fd5b606780546001600160a01b0319166001600160a01b0392909216919091179055565b606580546115b690612bba565b80601f01602080910402602001604051908101604052809291908181526020018280546115e290612bba565b801561162f5780601f106116045761010080835404028352916020019161162f565b820191906000526020600020905b81548152906001019060200180831161161257829003601f168201915b505050505081565b336000908152606d602052604090205460ff1615156001148061166457506033546001600160a01b031633145b6116b05760405162461bcd60e51b815260206004820152600a60248201527f6e6f74206b65657065720000000000000000000000000000000000000000000060448201526064016107be565b6001600160a01b0385166000908152606c602052604090205460ff166117185760405162461bcd60e51b815260206004820152601460248201527f696e76616c69642072657761726420746f6b656e00000000000000000000000060448201526064016107be565b6040516370a0823160e01b81523060048201526000906001600160a01b038716906370a0823190602401602060405180830381865afa15801561175f573d6000803e3d6000fd5b505050506040513d601f19601f820116820180604052508101906117839190612b1f565b9050600085156117935785611795565b815b9050808210156117e75760405162461bcd60e51b815260206004820152600f60248201527f62616c616e636520746f6f206c6f77000000000000000000000000000000000060448201526064016107be565b606f546000906118059089906001600160a01b031684898989612201565b9050806000036118575760405162461bcd60e51b815260206004820152601a60248201527f696e73756666696369656e74206f757470757420616d6f756e7400000000000060448201526064016107be565b6040516370a0823160e01b81523060048201526000906001600160a01b038a16906370a0823190602401602060405180830381865afa15801561189e573d6000803e3d6000fd5b505050506040513d601f19601f820116820180604052508101906118c29190612b1f565b90506118ce8385612b64565b811461191c5760405162461bcd60e51b815260206004820152601460248201527f696e76616c696420696e70757420616d6f756e7400000000000000000000000060448201526064016107be565b60408051848152602081018490526001600160a01b038b16917fe7669459c1802170f40830e5e19301547b3a029d5a6a93534850488821650af1910160405180910390a2607154606f5461197d916001600160a01b03918216911684612061565b6071546040517f6e553f65000000000000000000000000000000000000000000000000000000008152600481018490523060248201526001600160a01b0390911690636e553f65906044016020604051808303816000875af11580156119e7573d6000803e3d6000fd5b505050506040513d601f19601f82011682018060405250810190611a0b9190612b1f565b9150611a16826123c9565b505050505050505050565b611a29611c19565b6001600160a01b038116611aa55760405162461bcd60e51b815260206004820152602660248201527f4f776e61626c653a206e6577206f776e657220697320746865207a65726f206160448201527f646472657373000000000000000000000000000000000000000000000000000060648201526084016107be565b611438816121af565b600054610100900460ff1615808015611ace5750600054600160ff909116105b80611ae85750303b158015611ae8575060005460ff166001145b611b5a5760405162461bcd60e51b815260206004820152602e60248201527f496e697469616c697a61626c653a20636f6e747261637420697320616c72656160448201527f647920696e697469616c697a656400000000000000000000000000000000000060648201526084016107be565b6000805460ff191660011790558015611b7d576000805461ff0019166101001790555b611b856124d1565b6065611b918382612c42565b508015611bd8576000805461ff0019169055604051600181527f7f26b83ff96e1f2b6a682f133852f6798a09c465da95921460cefb38474024989060200160405180910390a15b5050565b611be4611c19565b6001600160a01b038116611bf757600080fd5b606880546001600160a01b0319166001600160a01b0392909216919091179055565b6033546001600160a01b03163314610f8e5760405162461bcd60e51b815260206004820181905260248201527f4f776e61626c653a2063616c6c6572206973206e6f7420746865206f776e657260448201526064016107be565b6000806000607c60009054906101000a90046001600160a01b03166001600160a01b0316638a7b8cf26040518163ffffffff1660e01b8152600401606060405180830381865afa158015611ccb573d6000803e3d6000fd5b505050506040513d601f19601f82011682018060405250810190611cef9190612d02565b9050600080607c60009054906101000a90046001600160a01b03166001600160a01b0316631df8c7176040518163ffffffff1660e01b8152600401606060405180830381865afa158015611d47573d6000803e3d6000fd5b505050506040513d601f19601f82011682018060405250810190611d6b9190612d5e565b50845191935091504203611e8257607c54604080517febeb31db00000000000000000000000000000000000000000000000000000000815290516000926001600160a01b03169163ebeb31db9160048083019260209291908290030181865afa158015611ddc573d6000803e3d6000fd5b505050506040513d601f19601f82011682018060405250810190611e009190612b1f565b607c549091506001600160a01b031663252c09d7611e1f600284612b64565b6040518263ffffffff1660e01b8152600401611e3d91815260200190565b606060405180830381865afa158015611e5a573d6000803e3d6000fd5b505050506040513d601f19601f82011682018060405250810190611e7e9190612d02565b9350505b8251600090611e919042612b64565b9050600081856020015185611ea69190612b64565b611eb09190612d8c565b9050600082866040015185611ec59190612b64565b611ecf9190612d8c565b9050607c60009054906101000a90046001600160a01b03166001600160a01b0316630dfe16816040518163ffffffff1660e01b8152600401602060405180830381865afa158015611f24573d6000803e3d6000fd5b505050506040513d601f19601f82011682018060405250810190611f489190612dae565b606e546001600160a01b03918216911603611f695790965094508585611f70565b9650945084865b5050505050509091565b6000611f868284612dcb565b90505b92915050565b6000611f868284612d8c565b6040516001600160a01b0383166024820152604481018290526120449084907fa9059cbb00000000000000000000000000000000000000000000000000000000906064015b60408051601f198184030181529190526020810180517bffffffffffffffffffffffffffffffffffffffffffffffffffffffff167fffffffff0000000000000000000000000000000000000000000000000000000090931692909217909152612556565b505050565b6000611f868284612b64565b6000611f868284612ba7565b8015806120f457506040517fdd62ed3e0000000000000000000000000000000000000000000000000000000081523060048201526001600160a01b03838116602483015284169063dd62ed3e90604401602060405180830381865afa1580156120ce573d6000803e3d6000fd5b505050506040513d601f19601f820116820180604052508101906120f29190612b1f565b155b6121665760405162461bcd60e51b815260206004820152603660248201527f5361666545524332303a20617070726f76652066726f6d206e6f6e2d7a65726f60448201527f20746f206e6f6e2d7a65726f20616c6c6f77616e63650000000000000000000060648201526084016107be565b6040516001600160a01b0383166024820152604481018290526120449084907f095ea7b30000000000000000000000000000000000000000000000000000000090606401611fe0565b603380546001600160a01b038381166001600160a01b0319831681179093556040519116919082907f8be0079c531659141344cd1fd0a4f28419497f9722a3daafe3b4186f6b6457e090600090a35050565b6040516370a0823160e01b815230600482015260009081906001600160a01b038816906370a0823190602401602060405180830381865afa15801561224a573d6000803e3d6000fd5b505050506040513d601f19601f8201168201806040525081019061226e9190612b1f565b90506122856001600160a01b038916866000612061565b6122996001600160a01b0389168688612061565b6000856001600160a01b031685856040516122b5929190612de2565b6000604051808303816000865af19150503d80600081146122f2576040519150601f19603f3d011682016040523d82523d6000602084013e6122f7565b606091505b50509050806123485760405162461bcd60e51b815260206004820152601a60248201527f6c6f772073776170206c6576656c2063616c6c206661696c656400000000000060448201526064016107be565b6040516370a0823160e01b815230600482015282906001600160a01b038a16906370a0823190602401602060405180830381865afa15801561238e573d6000803e3d6000fd5b505050506040513d601f19601f820116820180604052508101906123b29190612b1f565b6123bc9190612b64565b9998505050505050505050565b60006123e660755461087b60725485611f7a90919063ffffffff16565b905060006123f48383612049565b607954607154919250612414916001600160a01b03908116911684612061565b607954604051632f942ad160e11b8152600481018490526001600160a01b0390911690635f2855a290602401600060405180830381600087803b15801561245a57600080fd5b505af115801561246e573d6000803e3d6000fd5b50505050806076546124809190612ba7565b6076556079546071546040518481526001600160a01b0392831692909116907f07c50ffb711e1de82d211ac5b9ae3df77a16de7255728af810284cd411a9835e9060200160405180910390a3505050565b600054610100900460ff1661254e5760405162461bcd60e51b815260206004820152602b60248201527f496e697469616c697a61626c653a20636f6e7472616374206973206e6f74206960448201527f6e697469616c697a696e6700000000000000000000000000000000000000000060648201526084016107be565b610f8e61263e565b60006125ab826040518060400160405280602081526020017f5361666545524332303a206c6f772d6c6576656c2063616c6c206661696c6564815250856001600160a01b03166126c49092919063ffffffff16565b90508051600014806125cc5750808060200190518101906125cc9190612df2565b6120445760405162461bcd60e51b815260206004820152602a60248201527f5361666545524332303a204552433230206f7065726174696f6e20646964206e60448201527f6f7420737563636565640000000000000000000000000000000000000000000060648201526084016107be565b600054610100900460ff166126bb5760405162461bcd60e51b815260206004820152602b60248201527f496e697469616c697a61626c653a20636f6e7472616374206973206e6f74206960448201527f6e697469616c697a696e6700000000000000000000000000000000000000000060648201526084016107be565b610f8e336121af565b60606126d384846000856126db565b949350505050565b6060824710156127535760405162461bcd60e51b815260206004820152602660248201527f416464726573733a20696e73756666696369656e742062616c616e636520666f60448201527f722063616c6c000000000000000000000000000000000000000000000000000060648201526084016107be565b600080866001600160a01b0316858760405161276f9190612e14565b60006040518083038185875af1925050503d80600081146127ac576040519150601f19603f3d011682016040523d82523d6000602084013e6127b1565b606091505b50915091506127c2878383876127cd565b979650505050505050565b6060831561283c578251600003612835576001600160a01b0385163b6128355760405162461bcd60e51b815260206004820152601d60248201527f416464726573733a2063616c6c20746f206e6f6e2d636f6e747261637400000060448201526064016107be565b50816126d3565b6126d383838151156128515781518083602001fd5b8060405162461bcd60e51b81526004016107be91906129b2565b6001600160a01b038116811461143857600080fd5b60006020828403121561289257600080fd5b813561289d8161286b565b9392505050565b6000602082840312156128b657600080fd5b5035919050565b60008083601f8401126128cf57600080fd5b50813567ffffffffffffffff8111156128e757600080fd5b6020830191508360208285010111156128ff57600080fd5b9250929050565b6000806000806060858703121561291c57600080fd5b84359350602085013561292e8161286b565b9250604085013567ffffffffffffffff81111561294a57600080fd5b612956878288016128bd565b95989497509550505050565b60008060006060848603121561297757600080fd5b505081359360208301359350604090920135919050565b60005b838110156129a9578181015183820152602001612991565b50506000910152565b60208152600082518060208401526129d181604085016020870161298e565b601f01601f19169190910160400192915050565b6000806000806000608086880312156129fd57600080fd5b8535612a088161286b565b9450602086013593506040860135612a1f8161286b565b9250606086013567ffffffffffffffff811115612a3b57600080fd5b612a47888289016128bd565b969995985093965092949392505050565b634e487b7160e01b600052604160045260246000fd5b600060208284031215612a8057600080fd5b813567ffffffffffffffff80821115612a9857600080fd5b818401915084601f830112612aac57600080fd5b813581811115612abe57612abe612a58565b604051601f8201601f19908116603f01168101908382118183101715612ae657612ae6612a58565b81604052828152876020848701011115612aff57600080fd5b826020860160208301376000928101602001929092525095945050505050565b600060208284031215612b3157600080fd5b5051919050565b634e487b7160e01b600052603260045260246000fd5b634e487b7160e01b600052601160045260246000fd5b81810381811115611f8957611f89612b4e565b634e487b7160e01b600052603160045260246000fd5b60006000198203612ba057612ba0612b4e565b5060010190565b80820180821115611f8957611f89612b4e565b600181811c90821680612bce57607f821691505b602082108103612bee57634e487b7160e01b600052602260045260246000fd5b50919050565b601f82111561204457600081815260208120601f850160051c81016020861015612c1b5750805b601f850160051c820191505b81811015612c3a57828155600101612c27565b505050505050565b815167ffffffffffffffff811115612c5c57612c5c612a58565b612c7081612c6a8454612bba565b84612bf4565b602080601f831160018114612ca55760008415612c8d5750858301515b600019600386901b1c1916600185901b178555612c3a565b600085815260208120601f198616915b82811015612cd457888601518255948401946001909101908401612cb5565b5085821015612cf25787850151600019600388901b60f8161c191681555b5050505050600190811b01905550565b600060608284031215612d1457600080fd5b6040516060810181811067ffffffffffffffff82111715612d3757612d37612a58565b80604052508251815260208301516020820152604083015160408201528091505092915050565b600080600060608486031215612d7357600080fd5b8351925060208401519150604084015190509250925092565b600082612da957634e487b7160e01b600052601260045260246000fd5b500490565b600060208284031215612dc057600080fd5b815161289d8161286b565b8082028115828204841417611f8957611f89612b4e565b8183823760009101908152919050565b600060208284031215612e0457600080fd5b8151801515811461289d57600080fd5b60008251612e2681846020870161298e565b919091019291505056fea2646970667358221220008b754ec5349b2aeaf406cc9998873a2af003e2898a03929fd7208df6ee1f0164736f6c63430008130033",
  "devdoc": {
    "events": {
      "Initialized(uint8)": {
        "details": "Triggered when the contract has been initialized or reinitialized."
      }
    },
    "kind": "dev",
    "methods": {
      "checkConvertibleRewards()": {
        "returns": {
          "_amount": "Amount to convert.",
          "_canConvert": "Indicates if conversion is possible.",
          "_token": "Token to convert."
        }
      },
      "convertRewardToken(address,uint256,address,bytes)": {
        "params": {
          "_amount": "Amount to convert.",
          "_data": "Call data for conversion.",
          "_target": "Target address for conversion.",
          "_token": "Token to convert."
        }
      },
      "owner()": {
        "details": "Returns the address of the current owner."
      },
      "renounceOwnership()": {
        "details": "Leaves the contract without owner. It will not be possible to call `onlyOwner` functions. Can only be called by the current owner. NOTE: Renouncing ownership will leave the contract without an owner, thereby disabling any functionality that is only available to the owner."
      },
      "transferOwnership(address)": {
        "details": "Transfers ownership of the contract to a new account (`newOwner`). Can only be called by the current owner."
      }
    },
    "version": 1
  },
  "userdoc": {
    "kind": "user",
    "methods": {
      "checkConvertibleRewards()": {
        "notice": "Checks if there are any convertible rewards."
      },
      "convertRewardToken(address,uint256,address,bytes)": {
        "notice": "Converts a specific reward token to USDR."
      }
    },
    "version": 1
  },
  "storageLayout": {
    "storage": [
      {
        "astId": 138,
        "contract": "contracts/CaviarFeeManager.sol:CaviarFeeManager",
        "label": "_initialized",
        "offset": 0,
        "slot": "0",
        "type": "t_uint8"
      },
      {
        "astId": 141,
        "contract": "contracts/CaviarFeeManager.sol:CaviarFeeManager",
        "label": "_initializing",
        "offset": 1,
        "slot": "0",
        "type": "t_bool"
      },
      {
        "astId": 671,
        "contract": "contracts/CaviarFeeManager.sol:CaviarFeeManager",
        "label": "__gap",
        "offset": 0,
        "slot": "1",
        "type": "t_array(t_uint256)50_storage"
      },
      {
        "astId": 10,
        "contract": "contracts/CaviarFeeManager.sol:CaviarFeeManager",
        "label": "_owner",
        "offset": 0,
        "slot": "51",
        "type": "t_address"
      },
      {
        "astId": 130,
        "contract": "contracts/CaviarFeeManager.sol:CaviarFeeManager",
        "label": "__gap",
        "offset": 0,
        "slot": "52",
        "type": "t_array(t_uint256)49_storage"
      },
      {
        "astId": 4121,
        "contract": "contracts/CaviarFeeManager.sol:CaviarFeeManager",
        "label": "__NAME__",
        "offset": 0,
        "slot": "101",
        "type": "t_string_storage"
      },
      {
        "astId": 4126,
        "contract": "contracts/CaviarFeeManager.sol:CaviarFeeManager",
        "label": "FEE_CHEF",
        "offset": 0,
        "slot": "102",
        "type": "t_uint256"
      },
      {
        "astId": 4128,
        "contract": "contracts/CaviarFeeManager.sol:CaviarFeeManager",
        "label": "treasury",
        "offset": 0,
        "slot": "103",
        "type": "t_address"
      },
      {
        "astId": 4130,
        "contract": "contracts/CaviarFeeManager.sol:CaviarFeeManager",
        "label": "incentiveVault",
        "offset": 0,
        "slot": "104",
        "type": "t_address"
      },
      {
        "astId": 4133,
        "contract": "contracts/CaviarFeeManager.sol:CaviarFeeManager",
        "label": "tokens",
        "offset": 0,
        "slot": "105",
        "type": "t_array(t_address)dyn_storage"
      },
      {
        "astId": 4135,
        "contract": "contracts/CaviarFeeManager.sol:CaviarFeeManager",
        "label": "pairFactory",
        "offset": 0,
        "slot": "106",
        "type": "t_address"
      },
      {
        "astId": 4137,
        "contract": "contracts/CaviarFeeManager.sol:CaviarFeeManager",
        "label": "caviarManager",
        "offset": 0,
        "slot": "107",
        "type": "t_address"
      },
      {
        "astId": 4141,
        "contract": "contracts/CaviarFeeManager.sol:CaviarFeeManager",
        "label": "isToken",
        "offset": 0,
        "slot": "108",
        "type": "t_mapping(t_address,t_bool)"
      },
      {
        "astId": 4145,
        "contract": "contracts/CaviarFeeManager.sol:CaviarFeeManager",
        "label": "isKeeper",
        "offset": 0,
        "slot": "109",
        "type": "t_mapping(t_address,t_bool)"
      },
      {
        "astId": 4147,
        "contract": "contracts/CaviarFeeManager.sol:CaviarFeeManager",
        "label": "caviar",
        "offset": 0,
        "slot": "110",
        "type": "t_address"
      },
      {
        "astId": 4149,
        "contract": "contracts/CaviarFeeManager.sol:CaviarFeeManager",
        "label": "usdr",
        "offset": 0,
        "slot": "111",
        "type": "t_address"
      },
      {
        "astId": 4151,
        "contract": "contracts/CaviarFeeManager.sol:CaviarFeeManager",
        "label": "usdc",
        "offset": 0,
        "slot": "112",
        "type": "t_address"
      },
      {
        "astId": 4153,
        "contract": "contracts/CaviarFeeManager.sol:CaviarFeeManager",
        "label": "wusdr",
        "offset": 0,
        "slot": "113",
        "type": "t_address"
      },
      {
        "astId": 4155,
        "contract": "contracts/CaviarFeeManager.sol:CaviarFeeManager",
        "label": "feeStaking",
        "offset": 0,
        "slot": "114",
        "type": "t_uint256"
      },
      {
        "astId": 4157,
        "contract": "contracts/CaviarFeeManager.sol:CaviarFeeManager",
        "label": "feeTngbl",
        "offset": 0,
        "slot": "115",
        "type": "t_uint256"
      },
      {
        "astId": 4159,
        "contract": "contracts/CaviarFeeManager.sol:CaviarFeeManager",
        "label": "feeRebaseVault",
        "offset": 0,
        "slot": "116",
        "type": "t_uint256"
      },
      {
        "astId": 4161,
        "contract": "contracts/CaviarFeeManager.sol:CaviarFeeManager",
        "label": "feeMultiplier",
        "offset": 0,
        "slot": "117",
        "type": "t_uint256"
      },
      {
        "astId": 4163,
        "contract": "contracts/CaviarFeeManager.sol:CaviarFeeManager",
        "label": "pendingTngblFee",
        "offset": 0,
        "slot": "118",
        "type": "t_uint256"
      },
      {
        "astId": 4165,
        "contract": "contracts/CaviarFeeManager.sol:CaviarFeeManager",
        "label": "lastStakingRebase",
        "offset": 0,
        "slot": "119",
        "type": "t_uint256"
      },
      {
        "astId": 4167,
        "contract": "contracts/CaviarFeeManager.sol:CaviarFeeManager",
        "label": "lastLPRebase",
        "offset": 0,
        "slot": "120",
        "type": "t_uint256"
      },
      {
        "astId": 4169,
        "contract": "contracts/CaviarFeeManager.sol:CaviarFeeManager",
        "label": "stakingChef",
        "offset": 0,
        "slot": "121",
        "type": "t_address"
      },
      {
        "astId": 4171,
        "contract": "contracts/CaviarFeeManager.sol:CaviarFeeManager",
        "label": "rebaseChef",
        "offset": 0,
        "slot": "122",
        "type": "t_address"
      },
      {
        "astId": 4173,
        "contract": "contracts/CaviarFeeManager.sol:CaviarFeeManager",
        "label": "lpChef",
        "offset": 0,
        "slot": "123",
        "type": "t_address"
      },
      {
        "astId": 4175,
        "contract": "contracts/CaviarFeeManager.sol:CaviarFeeManager",
        "label": "pearlPair",
        "offset": 0,
        "slot": "124",
        "type": "t_address"
      }
    ],
    "types": {
      "t_address": {
        "encoding": "inplace",
        "label": "address",
        "numberOfBytes": "20"
      },
      "t_array(t_address)dyn_storage": {
        "base": "t_address",
        "encoding": "dynamic_array",
        "label": "address[]",
        "numberOfBytes": "32"
      },
      "t_array(t_uint256)49_storage": {
        "base": "t_uint256",
        "encoding": "inplace",
        "label": "uint256[49]",
        "numberOfBytes": "1568"
      },
      "t_array(t_uint256)50_storage": {
        "base": "t_uint256",
        "encoding": "inplace",
        "label": "uint256[50]",
        "numberOfBytes": "1600"
      },
      "t_bool": {
        "encoding": "inplace",
        "label": "bool",
        "numberOfBytes": "1"
      },
      "t_mapping(t_address,t_bool)": {
        "encoding": "mapping",
        "key": "t_address",
        "label": "mapping(address => bool)",
        "numberOfBytes": "32",
        "value": "t_bool"
      },
      "t_string_storage": {
        "encoding": "bytes",
        "label": "string",
        "numberOfBytes": "32"
      },
      "t_uint256": {
        "encoding": "inplace",
        "label": "uint256",
        "numberOfBytes": "32"
      },
      "t_uint8": {
        "encoding": "inplace",
        "label": "uint8",
        "numberOfBytes": "1"
      }
    }
  }
}