{
  "address": "0x5b09fAAbDc84f365578dA9496fBA5B4dDc3b0f56",
  "abi": [
    {
      "inputs": [],
      "stateMutability": "nonpayable",
      "type": "constructor"
    },
    {
      "anonymous": false,
      "inputs": [
        {
          "indexed": false,
          "internalType": "uint256",
          "name": "amount",
          "type": "uint256"
        }
      ],
      "name": "ClaimedEmissions",
      "type": "event"
    },
    {
      "anonymous": false,
      "inputs": [
        {
          "indexed": true,
          "internalType": "address",
          "name": "user",
          "type": "address"
        },
        {
          "indexed": false,
          "internalType": "uint256",
          "name": "amount",
          "type": "uint256"
        },
        {
          "indexed": true,
          "internalType": "address",
          "name": "to",
          "type": "address"
        }
      ],
      "name": "Deposit",
      "type": "event"
    },
    {
      "anonymous": false,
      "inputs": [
        {
          "indexed": true,
          "internalType": "address",
          "name": "user",
          "type": "address"
        },
        {
          "indexed": false,
          "internalType": "uint256",
          "name": "amount",
          "type": "uint256"
        },
        {
          "indexed": true,
          "internalType": "address",
          "name": "to",
          "type": "address"
        }
      ],
      "name": "EmergencyWithdraw",
      "type": "event"
    },
    {
      "anonymous": false,
      "inputs": [
        {
          "indexed": true,
          "internalType": "address",
          "name": "user",
          "type": "address"
        },
        {
          "indexed": false,
          "internalType": "uint256",
          "name": "amount",
          "type": "uint256"
        }
      ],
      "name": "Harvest",
      "type": "event"
    },
    {
      "anonymous": false,
      "inputs": [
        {
          "indexed": false,
          "internalType": "uint8",
          "name": "version",
          "type": "uint8"
        }
      ],
      "name": "Initialized",
      "type": "event"
    },
    {
      "anonymous": false,
      "inputs": [
        {
          "indexed": false,
          "internalType": "uint256",
          "name": "rewardPerSecond",
          "type": "uint256"
        }
      ],
      "name": "LogRewardPerSecond",
      "type": "event"
    },
    {
      "anonymous": false,
      "inputs": [
        {
          "indexed": false,
          "internalType": "uint256",
          "name": "lastRewardTime",
          "type": "uint256"
        },
        {
          "indexed": false,
          "internalType": "uint256",
          "name": "underlyingSupply",
          "type": "uint256"
        },
        {
          "indexed": false,
          "internalType": "uint256",
          "name": "accRewardPerShare",
          "type": "uint256"
        }
      ],
      "name": "LogUpdatePool",
      "type": "event"
    },
    {
      "anonymous": false,
      "inputs": [
        {
          "indexed": true,
          "internalType": "address",
          "name": "previousOwner",
          "type": "address"
        },
        {
          "indexed": true,
          "internalType": "address",
          "name": "newOwner",
          "type": "address"
        }
      ],
      "name": "OwnershipTransferred",
      "type": "event"
    },
    {
      "anonymous": false,
      "inputs": [
        {
          "indexed": true,
          "internalType": "address",
          "name": "user",
          "type": "address"
        },
        {
          "indexed": false,
          "internalType": "uint256",
          "name": "amount",
          "type": "uint256"
        },
        {
          "indexed": true,
          "internalType": "address",
          "name": "to",
          "type": "address"
        }
      ],
      "name": "Withdraw",
      "type": "event"
    },
    {
      "inputs": [],
      "name": "__NAME__",
      "outputs": [
        {
          "internalType": "string",
          "name": "",
          "type": "string"
        }
      ],
      "stateMutability": "view",
      "type": "function"
    },
    {
      "inputs": [],
      "name": "accRewardPerShare",
      "outputs": [
        {
          "internalType": "uint256",
          "name": "",
          "type": "uint256"
        }
      ],
      "stateMutability": "view",
      "type": "function"
    },
    {
      "inputs": [],
      "name": "caviarManager",
      "outputs": [
        {
          "internalType": "address",
          "name": "",
          "type": "address"
        }
      ],
      "stateMutability": "view",
      "type": "function"
    },
    {
      "inputs": [],
      "name": "claimEmissions",
      "outputs": [
        {
          "internalType": "uint256",
          "name": "amount",
          "type": "uint256"
        }
      ],
      "stateMutability": "nonpayable",
      "type": "function"
    },
    {
      "inputs": [
        {
          "internalType": "uint256",
          "name": "amount",
          "type": "uint256"
        },
        {
          "internalType": "address",
          "name": "to",
          "type": "address"
        }
      ],
      "name": "deposit",
      "outputs": [],
      "stateMutability": "nonpayable",
      "type": "function"
    },
    {
      "inputs": [],
      "name": "distributionPeriod",
      "outputs": [
        {
          "internalType": "uint256",
          "name": "",
          "type": "uint256"
        }
      ],
      "stateMutability": "view",
      "type": "function"
    },
    {
      "inputs": [
        {
          "internalType": "address",
          "name": "to",
          "type": "address"
        }
      ],
      "name": "emergencyWithdraw",
      "outputs": [],
      "stateMutability": "nonpayable",
      "type": "function"
    },
    {
      "inputs": [],
      "name": "gaugeForLP",
      "outputs": [
        {
          "internalType": "address",
          "name": "",
          "type": "address"
        }
      ],
      "stateMutability": "view",
      "type": "function"
    },
    {
      "inputs": [
        {
          "internalType": "address",
          "name": "to",
          "type": "address"
        }
      ],
      "name": "harvest",
      "outputs": [],
      "stateMutability": "nonpayable",
      "type": "function"
    },
    {
      "inputs": [
        {
          "internalType": "string",
          "name": "_name",
          "type": "string"
        },
        {
          "internalType": "contract IERC20",
          "name": "_rewardToken",
          "type": "address"
        },
        {
          "internalType": "contract IERC20",
          "name": "_underlying",
          "type": "address"
        },
        {
          "internalType": "uint256",
          "name": "_distributionPeriod",
          "type": "uint256"
        },
        {
          "internalType": "address",
          "name": "_smartWalletChecker",
          "type": "address"
        },
        {
          "internalType": "address",
          "name": "_caviarManager",
          "type": "address"
        },
        {
          "internalType": "address",
          "name": "_pearl",
          "type": "address"
        },
        {
          "internalType": "address",
          "name": "_gaugeForLP",
          "type": "address"
        }
      ],
      "name": "initialize",
      "outputs": [],
      "stateMutability": "nonpayable",
      "type": "function"
    },
    {
      "inputs": [],
      "name": "lastDistributedTime",
      "outputs": [
        {
          "internalType": "uint256",
          "name": "",
          "type": "uint256"
        }
      ],
      "stateMutability": "view",
      "type": "function"
    },
    {
      "inputs": [],
      "name": "lastRewardTime",
      "outputs": [
        {
          "internalType": "uint256",
          "name": "",
          "type": "uint256"
        }
      ],
      "stateMutability": "view",
      "type": "function"
    },
    {
      "inputs": [],
      "name": "owner",
      "outputs": [
        {
          "internalType": "address",
          "name": "",
          "type": "address"
        }
      ],
      "stateMutability": "view",
      "type": "function"
    },
    {
      "inputs": [],
      "name": "pearl",
      "outputs": [
        {
          "internalType": "contract IERC20",
          "name": "",
          "type": "address"
        }
      ],
      "stateMutability": "view",
      "type": "function"
    },
    {
      "inputs": [
        {
          "internalType": "address",
          "name": "_user",
          "type": "address"
        }
      ],
      "name": "pendingReward",
      "outputs": [
        {
          "internalType": "uint256",
          "name": "pending",
          "type": "uint256"
        }
      ],
      "stateMutability": "view",
      "type": "function"
    },
    {
      "inputs": [],
      "name": "renounceOwnership",
      "outputs": [],
      "stateMutability": "nonpayable",
      "type": "function"
    },
    {
      "inputs": [],
      "name": "rewardPerSecond",
      "outputs": [
        {
          "internalType": "uint256",
          "name": "",
          "type": "uint256"
        }
      ],
      "stateMutability": "view",
      "type": "function"
    },
    {
      "inputs": [],
      "name": "rewardToken",
      "outputs": [
        {
          "internalType": "contract IERC20",
          "name": "",
          "type": "address"
        }
      ],
      "stateMutability": "view",
      "type": "function"
    },
    {
      "inputs": [
        {
          "internalType": "uint256",
          "name": "_amount",
          "type": "uint256"
        }
      ],
      "name": "seedRewards",
      "outputs": [],
      "stateMutability": "nonpayable",
      "type": "function"
    },
    {
      "inputs": [
        {
          "internalType": "address",
          "name": "_caviarManager",
          "type": "address"
        }
      ],
      "name": "setCaviarManager",
      "outputs": [],
      "stateMutability": "nonpayable",
      "type": "function"
    },
    {
      "inputs": [
        {
          "internalType": "uint256",
          "name": "_distributionPeriod",
          "type": "uint256"
        }
      ],
      "name": "setDistributionPeriod",
      "outputs": [],
      "stateMutability": "nonpayable",
      "type": "function"
    },
    {
      "inputs": [
        {
          "internalType": "address",
          "name": "_gaugeForLP",
          "type": "address"
        }
      ],
      "name": "setGaugeForLP",
      "outputs": [],
      "stateMutability": "nonpayable",
      "type": "function"
    },
    {
      "inputs": [
        {
          "internalType": "string",
          "name": "_name",
          "type": "string"
        }
      ],
      "name": "setName",
      "outputs": [],
      "stateMutability": "nonpayable",
      "type": "function"
    },
    {
      "inputs": [
        {
          "internalType": "address",
          "name": "_pearl",
          "type": "address"
        }
      ],
      "name": "setPearl",
      "outputs": [],
      "stateMutability": "nonpayable",
      "type": "function"
    },
    {
      "inputs": [
        {
          "internalType": "uint256",
          "name": "_rewardPerSecond",
          "type": "uint256"
        }
      ],
      "name": "setRewardPerSecond",
      "outputs": [],
      "stateMutability": "nonpayable",
      "type": "function"
    },
    {
      "inputs": [
        {
          "internalType": "address",
          "name": "_rewardToken",
          "type": "address"
        }
      ],
      "name": "setRewardToken",
      "outputs": [],
      "stateMutability": "nonpayable",
      "type": "function"
    },
    {
      "inputs": [
        {
          "internalType": "address",
          "name": "_checker",
          "type": "address"
        }
      ],
      "name": "setSmartWalletChecker",
      "outputs": [],
      "stateMutability": "nonpayable",
      "type": "function"
    },
    {
      "inputs": [
        {
          "internalType": "address",
          "name": "_underlying",
          "type": "address"
        }
      ],
      "name": "setUnderlyingToken",
      "outputs": [],
      "stateMutability": "nonpayable",
      "type": "function"
    },
    {
      "inputs": [
        {
          "internalType": "uint256",
          "name": "_totalSupply",
          "type": "uint256"
        }
      ],
      "name": "setUnderlyingTotalSupply",
      "outputs": [],
      "stateMutability": "nonpayable",
      "type": "function"
    },
    {
      "inputs": [],
      "name": "smartWalletChecker",
      "outputs": [
        {
          "internalType": "address",
          "name": "",
          "type": "address"
        }
      ],
      "stateMutability": "view",
      "type": "function"
    },
    {
      "inputs": [
        {
          "internalType": "address",
          "name": "newOwner",
          "type": "address"
        }
      ],
      "name": "transferOwnership",
      "outputs": [],
      "stateMutability": "nonpayable",
      "type": "function"
    },
    {
      "inputs": [],
      "name": "underlying",
      "outputs": [
        {
          "internalType": "contract IERC20",
          "name": "",
          "type": "address"
        }
      ],
      "stateMutability": "view",
      "type": "function"
    },
    {
      "inputs": [],
      "name": "underlyingTotalSupply",
      "outputs": [
        {
          "internalType": "uint256",
          "name": "",
          "type": "uint256"
        }
      ],
      "stateMutability": "view",
      "type": "function"
    },
    {
      "inputs": [
        {
          "internalType": "address",
          "name": "",
          "type": "address"
        }
      ],
      "name": "userInfo",
      "outputs": [
        {
          "internalType": "uint256",
          "name": "amount",
          "type": "uint256"
        },
        {
          "internalType": "int256",
          "name": "rewardDebt",
          "type": "int256"
        }
      ],
      "stateMutability": "view",
      "type": "function"
    },
    {
      "inputs": [
        {
          "internalType": "uint256",
          "name": "amount",
          "type": "uint256"
        },
        {
          "internalType": "address",
          "name": "to",
          "type": "address"
        }
      ],
      "name": "withdraw",
      "outputs": [],
      "stateMutability": "nonpayable",
      "type": "function"
    },
    {
      "inputs": [
        {
          "internalType": "uint256",
          "name": "amount",
          "type": "uint256"
        },
        {
          "internalType": "address",
          "name": "to",
          "type": "address"
        }
      ],
      "name": "withdrawAndHarvest",
      "outputs": [],
      "stateMutability": "nonpayable",
      "type": "function"
    }
  ],
  "transactionHash": "0x4018f9a7e0bfef3463f17dba09e903b7fa0bb74342948c8469aedc041c6cd35e",
  "args": [],
  "numDeployments": 1,
  "solcInputHash": "2e3e7d7cb29f351bff98fc38f98d725d",
  "bytecode": "0x608060405234801561001057600080fd5b50612826806100206000396000f3fe608060405234801561001057600080fd5b506004361061025b5760003560e01c80638aee812711610145578063bec29caf116100bd578063df1707a31161008c578063f2fde38b11610071578063f2fde38b146104d7578063f40f0f52146104ea578063f7c618c1146104fd57600080fd5b8063df1707a3146104af578063f1819bb5146104c257600080fd5b8063bec29caf14610463578063c1f3d96314610476578063c47f002714610489578063dc19c4d81461049c57600080fd5b8063939d623711610114578063a591a6f4116100f9578063a591a6f414610435578063b8a088ab1461043d578063bd906a981461045057600080fd5b8063939d6237146104235780639b5017231461042c57600080fd5b80638aee8127146103ed5780638da5cb5b146104005780638f10369a146104115780639231cf741461041a57600080fd5b806366da5815116101d85780636f307dc3116101a7578063715018a61161018c578063715018a6146103bf5780637710c6d8146103c75780637df14854146103da57600080fd5b80636f307dc3146103995780636ff1c9bc146103ac57600080fd5b806366da58151461034d57806369af495b1461036057806369fc4891146103735780636e553f651461038657600080fd5b80631959a0021161022f578063475c326a11610214578063475c326a1461031a5780634def1c82146103315780635f2855a21461033a57600080fd5b80631959a002146102cb5780632b4a6c511461030757600080fd5b8062f714ce1461026057806303015053146102755780630e5c011e1461028857806310cc22c31461029b575b600080fd5b61027361026e36600461233f565b610510565b005b61027361028336600461236f565b610776565b61027361029636600461236f565b6107ec565b60a1546102ae906001600160a01b031681565b6040516001600160a01b0390911681526020015b60405180910390f35b6102f26102d936600461236f565b609c602052600090815260409020805460019091015482565b604080519283526020830191909152016102c2565b61027361031536600461236f565b6108ba565b61032360a45481565b6040519081526020016102c2565b610323609f5481565b61027361034836600461238c565b610930565b61027361035b36600461238c565b610957565b61027361036e36600461236f565b61099b565b60a2546102ae906001600160a01b031681565b61027361039436600461233f565b610a11565b609a546102ae906001600160a01b031681565b6102736103ba36600461236f565b610cee565b610273610e73565b6102736103d536600461238c565b610e87565b60a0546102ae906001600160a01b031681565b6102736103fb36600461236f565b610e94565b6033546001600160a01b03166102ae565b610323609d5481565b61032360985481565b61032360975481565b610323609e5481565b610323610f0a565b61027361044b36600461236f565b611139565b61027361045e366004612448565b6111af565b61027361047136600461236f565b611382565b61027361048436600461233f565b6113f8565b610273610497366004612501565b61173c565b609b546102ae906001600160a01b031681565b6102736104bd36600461238c565b611750565b6104ca61175d565b6040516102c2919061255a565b6102736104e536600461236f565b6117eb565b6103236104f836600461236f565b611878565b6099546102ae906001600160a01b031681565b3233146106105760a0546001600160a01b03166105665760405162461bcd60e51b815260206004820152600f60248201526e139bdd081dda1a5d195b1a5cdd1959608a1b60448201526064015b60405180910390fd5b60a054604051631846d2f560e31b81523360048201526001600160a01b039091169063c23697a890602401602060405180830381865afa1580156105ae573d6000803e3d6000fd5b505050506040513d601f19601f820116820180604052508101906105d2919061258d565b6106105760405162461bcd60e51b815260206004820152600f60248201526e139bdd081dda1a5d195b1a5cdd1959608a1b604482015260640161055d565b61061861194e565b6106206119a7565b336000908152609c60205260409081902060a154815492517f2e1a7d4d000000000000000000000000000000000000000000000000000000008152600481019390935290916001600160a01b0390911690632e1a7d4d90602401600060405180830381600087803b15801561069457600080fd5b505af11580156106a8573d6000803e3d6000fd5b505050506106e2670de0b6b3a76400006106cd60975486611a8390919063ffffffff16565b6106d791906125c5565b600183015490611a98565b600182015580546106f39084611b3e565b815560a4805484919060009061070a9084906125e7565b9091555050609a54610726906001600160a01b03168385611b4a565b6040518381526001600160a01b0383169033907f56c54ba9bd38d8fd62012e42c7ee564519b09763c426d331b3661b537ead19b2906020015b60405180910390a3506107726001606555565b5050565b61077e611bff565b6001600160a01b0381166107bd5760405162461bcd60e51b815260040161055d906020808252600490820152637a65726f60e01b604082015260600190565b60a0805473ffffffffffffffffffffffffffffffffffffffff19166001600160a01b0392909216919091179055565b6107f461194e565b6107fc6119a7565b336000908152609c602052604081206097548154919291670de0b6b3a7640000916108279190611a83565b61083191906125c5565b9050600061085461084f846001015484611a9890919063ffffffff16565b611c59565b60018401839055609954909150610875906001600160a01b03168583611b4a565b60405181815233907fc9695243a805adb74c91f28311176c65b417e842d5699893cef56d18bfa48cba9060200160405180910390a25050506108b76001606555565b50565b6108c2611bff565b6001600160a01b0381166109015760405162461bcd60e51b815260040161055d906020808252600490820152637a65726f60e01b604082015260600190565b609a805473ffffffffffffffffffffffffffffffffffffffff19166001600160a01b0392909216919091179055565b609954610948906001600160a01b0316333084611caf565b80156108b7576108b781611d06565b61095f611bff565b609d8190556040518181527fde89cb17ac7f58f94792b3e91e086ed85403819c24ceea882491f960ccb1a278906020015b60405180910390a150565b6109a3611bff565b6001600160a01b0381166109e25760405162461bcd60e51b815260040161055d906020808252600490820152637a65726f60e01b604082015260600190565b609b805473ffffffffffffffffffffffffffffffffffffffff19166001600160a01b0392909216919091179055565b323314610b0c5760a0546001600160a01b0316610a625760405162461bcd60e51b815260206004820152600f60248201526e139bdd081dda1a5d195b1a5cdd1959608a1b604482015260640161055d565b60a054604051631846d2f560e31b81523360048201526001600160a01b039091169063c23697a890602401602060405180830381865afa158015610aaa573d6000803e3d6000fd5b505050506040513d601f19601f82011682018060405250810190610ace919061258d565b610b0c5760405162461bcd60e51b815260206004820152600f60248201526e139bdd081dda1a5d195b1a5cdd1959608a1b604482015260640161055d565b610b1461194e565b610b1c6119a7565b6001600160a01b0381166000908152609c602052604090208054610b409084611db8565b8155609754610b7390670de0b6b3a764000090610b5e908690611a83565b610b6891906125c5565b600183015490611dc4565b6001820155609a54610b90906001600160a01b0316333086611caf565b8260a46000828254610ba291906125fa565b9091555050609a5460a1546040517f095ea7b30000000000000000000000000000000000000000000000000000000081526001600160a01b0391821660048201526024810186905291169063095ea7b3906044016020604051808303816000875af1158015610c15573d6000803e3d6000fd5b505050506040513d601f19601f82011682018060405250810190610c39919061258d565b5060a1546040517fb6b55f25000000000000000000000000000000000000000000000000000000008152600481018590526001600160a01b039091169063b6b55f2590602401600060405180830381600087803b158015610c9957600080fd5b505af1158015610cad573d6000803e3d6000fd5b50506040518581526001600160a01b03851692503391507fe31c7b8d08ee7db0afa68782e1028ef92305caeea8626633ad44d413e30f6b2f9060200161075f565b323314610de95760a0546001600160a01b0316610d3f5760405162461bcd60e51b815260206004820152600f60248201526e139bdd081dda1a5d195b1a5cdd1959608a1b604482015260640161055d565b60a054604051631846d2f560e31b81523360048201526001600160a01b039091169063c23697a890602401602060405180830381865afa158015610d87573d6000803e3d6000fd5b505050506040513d601f19601f82011682018060405250810190610dab919061258d565b610de95760405162461bcd60e51b815260206004820152600f60248201526e139bdd081dda1a5d195b1a5cdd1959608a1b604482015260640161055d565b610df161194e565b336000908152609c6020526040812080548282556001820192909255609a54909190610e27906001600160a01b03168483611b4a565b6040518181526001600160a01b0384169033907faaeda929aa102e867049528ec7cd2499e3a2f8846e736ae7935f234dfbf500d99060200160405180910390a350506108b76001606555565b610e7b611bff565b610e856000611e6b565b565b610e8f611bff565b609e55565b610e9c611bff565b6001600160a01b038116610edb5760405162461bcd60e51b815260040161055d906020808252600490820152637a65726f60e01b604082015260600190565b6099805473ffffffffffffffffffffffffffffffffffffffff19166001600160a01b0392909216919091179055565b60a2546000906001600160a01b03163314610f675760405162461bcd60e51b815260206004820152600b60248201527f41757468206661696c6564000000000000000000000000000000000000000000604482015260640161055d565b609b546040517f70a082310000000000000000000000000000000000000000000000000000000081523060048201526000916001600160a01b0316906370a0823190602401602060405180830381865afa158015610fc9573d6000803e3d6000fd5b505050506040513d601f19601f82011682018060405250810190610fed919061260d565b905060a160009054906101000a90046001600160a01b03166001600160a01b0316633d18b9126040518163ffffffff1660e01b8152600401600060405180830381600087803b15801561103f57600080fd5b505af1158015611053573d6000803e3d6000fd5b5050609b546040517f70a082310000000000000000000000000000000000000000000000000000000081523060048201528493506001600160a01b0390911691506370a0823190602401602060405180830381865afa1580156110ba573d6000803e3d6000fd5b505050506040513d601f19601f820116820180604052508101906110de919061260d565b6110e891906125e7565b609b54909250611102906001600160a01b03163384611b4a565b6040518281527f6ddf4f715c011632797e1b041a057f50b807fa783260c1f18fc84f6529f833ec9060200160405180910390a15090565b611141611bff565b6001600160a01b0381166111805760405162461bcd60e51b815260040161055d906020808252600490820152637a65726f60e01b604082015260600190565b60a2805473ffffffffffffffffffffffffffffffffffffffff19166001600160a01b0392909216919091179055565b600054610100900460ff16158080156111cf5750600054600160ff909116105b806111e95750303b1580156111e9575060005460ff166001145b61125b5760405162461bcd60e51b815260206004820152602e60248201527f496e697469616c697a61626c653a20636f6e747261637420697320616c72656160448201527f647920696e697469616c697a6564000000000000000000000000000000000000606482015260840161055d565b600080547fffffffffffffffffffffffffffffffffffffffffffffffffffffffffffffff00166001179055801561129c576000805461ff0019166101001790555b6112a4611eca565b6112ac611f3d565b60a36112b88a826126ae565b506099805473ffffffffffffffffffffffffffffffffffffffff199081166001600160a01b038b811691909117909255609e889055609a805482168a84161790554260985560a08054821688841617905560a280548216878416179055609b8054821686841617905560a180549091169184169190911790558015611377576000805461ff0019169055604051600181527f7f26b83ff96e1f2b6a682f133852f6798a09c465da95921460cefb38474024989060200160405180910390a15b505050505050505050565b61138a611bff565b6001600160a01b0381166113c95760405162461bcd60e51b815260040161055d906020808252600490820152637a65726f60e01b604082015260600190565b60a1805473ffffffffffffffffffffffffffffffffffffffff19166001600160a01b0392909216919091179055565b3233146114f35760a0546001600160a01b03166114495760405162461bcd60e51b815260206004820152600f60248201526e139bdd081dda1a5d195b1a5cdd1959608a1b604482015260640161055d565b60a054604051631846d2f560e31b81523360048201526001600160a01b039091169063c23697a890602401602060405180830381865afa158015611491573d6000803e3d6000fd5b505050506040513d601f19601f820116820180604052508101906114b5919061258d565b6114f35760405162461bcd60e51b815260206004820152600f60248201526e139bdd081dda1a5d195b1a5cdd1959608a1b604482015260640161055d565b6114fb61194e565b6115036119a7565b336000908152609c6020526040902080548311156115895760405162461bcd60e51b815260206004820152602d60248201527f576974686472617720616d6f756e74206578636565647320746865206465706f60448201527f736974656420616d6f756e742e00000000000000000000000000000000000000606482015260840161055d565b6097548154600091670de0b6b3a7640000916115a491611a83565b6115ae91906125c5565b905060006115cc61084f846001015484611a9890919063ffffffff16565b60a15484546040517f2e1a7d4d00000000000000000000000000000000000000000000000000000000815260048101919091529192506001600160a01b031690632e1a7d4d90602401600060405180830381600087803b15801561162f57600080fd5b505af1158015611643573d6000803e3d6000fd5b50505050611679670de0b6b3a764000061166860975488611a8390919063ffffffff16565b61167291906125c5565b8390611a98565b6001840155825461168a9086611b3e565b83556099546116a3906001600160a01b03168583611b4a565b609a546116ba906001600160a01b03168587611b4a565b6040518581526001600160a01b0385169033907f56c54ba9bd38d8fd62012e42c7ee564519b09763c426d331b3661b537ead19b29060200160405180910390a360405181815233907fc9695243a805adb74c91f28311176c65b417e842d5699893cef56d18bfa48cba9060200160405180910390a25050506107726001606555565b611744611bff565b60a361077282826126ae565b611758611bff565b60a455565b60a3805461176a90612626565b80601f016020809104026020016040519081016040528092919081815260200182805461179690612626565b80156117e35780601f106117b8576101008083540402835291602001916117e3565b820191906000526020600020905b8154815290600101906020018083116117c657829003601f168201915b505050505081565b6117f3611bff565b6001600160a01b03811661186f5760405162461bcd60e51b815260206004820152602660248201527f4f776e61626c653a206e6577206f776e657220697320746865207a65726f206160448201527f6464726573730000000000000000000000000000000000000000000000000000606482015260840161055d565b6108b781611e6b565b6001600160a01b0381166000908152609c60205260408120609754609f54839042116118a457426118a8565b609f545b9050609854811115611912576098546118c2908290611b3e565b905060006118db609d5483611a8390919063ffffffff16565b905061190e61190760a454611901670de0b6b3a764000085611a8390919063ffffffff16565b90611fb0565b8490611db8565b9250505b600183015483546119459161084f91670de0b6b3a7640000906119359087611a83565b61193f91906125c5565b90611a98565b95945050505050565b6002606554036119a05760405162461bcd60e51b815260206004820152601f60248201527f5265656e7472616e637947756172643a207265656e7472616e742063616c6c00604482015260640161055d565b6002606555565b609854421115610e855760a45415611a37576000609f5442116119ca57426119ce565b609f545b9050609854811115611a35576098546119e8908290611b3e565b90506000611a01609d5483611a8390919063ffffffff16565b9050611a30611a2760a454611901670de0b6b3a764000085611a8390919063ffffffff16565b60975490611db8565b609755505b505b42609881905560a45460975460408051938452602084019290925282820152517f1f2d1a9fde053af46b5db3dc92a8aa8696e56a677998fdd1311b45be341f78539181900360600190a1565b6000611a8f828461276e565b90505b92915050565b600080611aa58385612785565b905060008312158015611ab85750838113155b80611acd5750600083128015611acd57508381135b611a8f5760405162461bcd60e51b8152602060048201526024808201527f5369676e6564536166654d6174683a207375627472616374696f6e206f76657260448201527f666c6f7700000000000000000000000000000000000000000000000000000000606482015260840161055d565b6000611a8f82846125e7565b6040516001600160a01b038316602482015260448101829052611bf39084907fa9059cbb00000000000000000000000000000000000000000000000000000000906064015b60408051601f198184030181529190526020810180517bffffffffffffffffffffffffffffffffffffffffffffffffffffffff167fffffffff0000000000000000000000000000000000000000000000000000000090931692909217909152611fbc565b505050565b6001606555565b6033546001600160a01b03163314610e855760405162461bcd60e51b815260206004820181905260248201527f4f776e61626c653a2063616c6c6572206973206e6f7420746865206f776e6572604482015260640161055d565b600080821215611cab5760405162461bcd60e51b815260206004820152600b60248201527f496e7465676572203c2030000000000000000000000000000000000000000000604482015260640161055d565b5090565b6040516001600160a01b0380851660248301528316604482015260648101829052611d009085907f23b872dd0000000000000000000000000000000000000000000000000000000090608401611b8f565b50505050565b611d0e6119a7565b6000609f54118015611d215750609f5442105b15611d5b57609f54600090611d369042611b3e565b9050611d57611d5082609d54611a8390919063ffffffff16565b8390611db8565b9150505b609e54611d69908290611fb0565b609d55609e54611d7a904290611db8565b609f55611d856119a7565b7fde89cb17ac7f58f94792b3e91e086ed85403819c24ceea882491f960ccb1a278609d5460405161099091815260200190565b6000611a8f82846125fa565b600080611dd183856127ac565b905060008312158015611de45750838112155b80611df95750600083128015611df957508381125b611a8f5760405162461bcd60e51b815260206004820152602160248201527f5369676e6564536166654d6174683a206164646974696f6e206f766572666c6f60448201527f7700000000000000000000000000000000000000000000000000000000000000606482015260840161055d565b603380546001600160a01b0383811673ffffffffffffffffffffffffffffffffffffffff19831681179093556040519116919082907f8be0079c531659141344cd1fd0a4f28419497f9722a3daafe3b4186f6b6457e090600090a35050565b600054610100900460ff16611f355760405162461bcd60e51b815260206004820152602b60248201527f496e697469616c697a61626c653a20636f6e7472616374206973206e6f74206960448201526a6e697469616c697a696e6760a81b606482015260840161055d565b610e856120a4565b600054610100900460ff16611fa85760405162461bcd60e51b815260206004820152602b60248201527f496e697469616c697a61626c653a20636f6e7472616374206973206e6f74206960448201526a6e697469616c697a696e6760a81b606482015260840161055d565b610e85612118565b6000611a8f82846125c5565b6000612011826040518060400160405280602081526020017f5361666545524332303a206c6f772d6c6576656c2063616c6c206661696c6564815250856001600160a01b03166121839092919063ffffffff16565b9050805160001480612032575080806020019051810190612032919061258d565b611bf35760405162461bcd60e51b815260206004820152602a60248201527f5361666545524332303a204552433230206f7065726174696f6e20646964206e60448201527f6f74207375636365656400000000000000000000000000000000000000000000606482015260840161055d565b600054610100900460ff1661210f5760405162461bcd60e51b815260206004820152602b60248201527f496e697469616c697a61626c653a20636f6e7472616374206973206e6f74206960448201526a6e697469616c697a696e6760a81b606482015260840161055d565b610e8533611e6b565b600054610100900460ff16611bf85760405162461bcd60e51b815260206004820152602b60248201527f496e697469616c697a61626c653a20636f6e7472616374206973206e6f74206960448201526a6e697469616c697a696e6760a81b606482015260840161055d565b6060612192848460008561219a565b949350505050565b6060824710156122125760405162461bcd60e51b815260206004820152602660248201527f416464726573733a20696e73756666696369656e742062616c616e636520666f60448201527f722063616c6c0000000000000000000000000000000000000000000000000000606482015260840161055d565b600080866001600160a01b0316858760405161222e91906127d4565b60006040518083038185875af1925050503d806000811461226b576040519150601f19603f3d011682016040523d82523d6000602084013e612270565b606091505b50915091506122818783838761228c565b979650505050505050565b606083156122fb5782516000036122f4576001600160a01b0385163b6122f45760405162461bcd60e51b815260206004820152601d60248201527f416464726573733a2063616c6c20746f206e6f6e2d636f6e7472616374000000604482015260640161055d565b5081612192565b61219283838151156123105781518083602001fd5b8060405162461bcd60e51b815260040161055d919061255a565b6001600160a01b03811681146108b757600080fd5b6000806040838503121561235257600080fd5b8235915060208301356123648161232a565b809150509250929050565b60006020828403121561238157600080fd5b8135611a8f8161232a565b60006020828403121561239e57600080fd5b5035919050565b634e487b7160e01b600052604160045260246000fd5b600082601f8301126123cc57600080fd5b813567ffffffffffffffff808211156123e7576123e76123a5565b604051601f8301601f19908116603f0116810190828211818310171561240f5761240f6123a5565b8160405283815286602085880101111561242857600080fd5b836020870160208301376000602085830101528094505050505092915050565b600080600080600080600080610100898b03121561246557600080fd5b883567ffffffffffffffff81111561247c57600080fd5b6124888b828c016123bb565b98505060208901356124998161232a565b965060408901356124a98161232a565b95506060890135945060808901356124c08161232a565b935060a08901356124d08161232a565b925060c08901356124e08161232a565b915060e08901356124f08161232a565b809150509295985092959890939650565b60006020828403121561251357600080fd5b813567ffffffffffffffff81111561252a57600080fd5b612192848285016123bb565b60005b83811015612551578181015183820152602001612539565b50506000910152565b6020815260008251806020840152612579816040850160208701612536565b601f01601f19169190910160400192915050565b60006020828403121561259f57600080fd5b81518015158114611a8f57600080fd5b634e487b7160e01b600052601160045260246000fd5b6000826125e257634e487b7160e01b600052601260045260246000fd5b500490565b81810381811115611a9257611a926125af565b80820180821115611a9257611a926125af565b60006020828403121561261f57600080fd5b5051919050565b600181811c9082168061263a57607f821691505b60208210810361265a57634e487b7160e01b600052602260045260246000fd5b50919050565b601f821115611bf357600081815260208120601f850160051c810160208610156126875750805b601f850160051c820191505b818110156126a657828155600101612693565b505050505050565b815167ffffffffffffffff8111156126c8576126c86123a5565b6126dc816126d68454612626565b84612660565b602080601f83116001811461271157600084156126f95750858301515b600019600386901b1c1916600185901b1785556126a6565b600085815260208120601f198616915b8281101561274057888601518255948401946001909101908401612721565b508582101561275e5787850151600019600388901b60f8161c191681555b5050505050600190811b01905550565b8082028115828204841417611a9257611a926125af565b81810360008312801583831316838312821617156127a5576127a56125af565b5092915050565b80820182811260008312801582168215821617156127cc576127cc6125af565b505092915050565b600082516127e6818460208701612536565b919091019291505056fea2646970667358221220c24af0beec191c299d1525887c810f47969fe54bb7c62b64c68aee57dc4aabdf64736f6c63430008130033",
  "devdoc": {
    "events": {
      "Initialized(uint8)": {
        "details": "Triggered when the contract has been initialized or reinitialized."
      }
    },
    "kind": "dev",
    "methods": {
      "owner()": {
        "details": "Returns the address of the current owner."
      },
      "renounceOwnership()": {
        "details": "Leaves the contract without owner. It will not be possible to call `onlyOwner` functions. Can only be called by the current owner. NOTE: Renouncing ownership will leave the contract without an owner, thereby disabling any functionality that is only available to the owner."
      },
      "setRewardPerSecond(uint256)": {
        "params": {
          "_rewardPerSecond": "The amount of Reward to be distributed per second."
        }
      },
      "transferOwnership(address)": {
        "details": "Transfers ownership of the contract to a new account (`newOwner`). Can only be called by the current owner."
      }
    },
    "version": 1
  },
  "userdoc": {
    "kind": "user",
    "methods": {
      "pearl()": {
        "notice": "Address of the Pearl token which is reveived when claiming emissions."
      },
      "rewardToken()": {
        "notice": "Address of rewardToken contract."
      },
      "setRewardPerSecond(uint256)": {
        "notice": "Sets the reward per second to be distributed. Can only be called by the owner."
      },
      "underlying()": {
        "notice": "Address of the LP token for each MCV2 pool."
      },
      "userInfo(address)": {
        "notice": "Info of each user that stakes LP tokens."
      }
    },
    "version": 1
  },
  "storageLayout": {
    "storage": [
      {
        "astId": 138,
        "contract": "contracts/CaviarLPChef.sol:CaviarLPChef",
        "label": "_initialized",
        "offset": 0,
        "slot": "0",
        "type": "t_uint8"
      },
      {
        "astId": 141,
        "contract": "contracts/CaviarLPChef.sol:CaviarLPChef",
        "label": "_initializing",
        "offset": 1,
        "slot": "0",
        "type": "t_bool"
      },
      {
        "astId": 755,
        "contract": "contracts/CaviarLPChef.sol:CaviarLPChef",
        "label": "__gap",
        "offset": 0,
        "slot": "1",
        "type": "t_array(t_uint256)50_storage"
      },
      {
        "astId": 10,
        "contract": "contracts/CaviarLPChef.sol:CaviarLPChef",
        "label": "_owner",
        "offset": 0,
        "slot": "51",
        "type": "t_address"
      },
      {
        "astId": 130,
        "contract": "contracts/CaviarLPChef.sol:CaviarLPChef",
        "label": "__gap",
        "offset": 0,
        "slot": "52",
        "type": "t_array(t_uint256)49_storage"
      },
      {
        "astId": 314,
        "contract": "contracts/CaviarLPChef.sol:CaviarLPChef",
        "label": "_status",
        "offset": 0,
        "slot": "101",
        "type": "t_uint256"
      },
      {
        "astId": 383,
        "contract": "contracts/CaviarLPChef.sol:CaviarLPChef",
        "label": "__gap",
        "offset": 0,
        "slot": "102",
        "type": "t_array(t_uint256)49_storage"
      },
      {
        "astId": 1922,
        "contract": "contracts/CaviarLPChef.sol:CaviarLPChef",
        "label": "accRewardPerShare",
        "offset": 0,
        "slot": "151",
        "type": "t_uint256"
      },
      {
        "astId": 1924,
        "contract": "contracts/CaviarLPChef.sol:CaviarLPChef",
        "label": "lastRewardTime",
        "offset": 0,
        "slot": "152",
        "type": "t_uint256"
      },
      {
        "astId": 1928,
        "contract": "contracts/CaviarLPChef.sol:CaviarLPChef",
        "label": "rewardToken",
        "offset": 0,
        "slot": "153",
        "type": "t_contract(IERC20)834"
      },
      {
        "astId": 1932,
        "contract": "contracts/CaviarLPChef.sol:CaviarLPChef",
        "label": "underlying",
        "offset": 0,
        "slot": "154",
        "type": "t_contract(IERC20)834"
      },
      {
        "astId": 1936,
        "contract": "contracts/CaviarLPChef.sol:CaviarLPChef",
        "label": "pearl",
        "offset": 0,
        "slot": "155",
        "type": "t_contract(IERC20)834"
      },
      {
        "astId": 1942,
        "contract": "contracts/CaviarLPChef.sol:CaviarLPChef",
        "label": "userInfo",
        "offset": 0,
        "slot": "156",
        "type": "t_mapping(t_address,t_struct(UserInfo)1917_storage)"
      },
      {
        "astId": 1944,
        "contract": "contracts/CaviarLPChef.sol:CaviarLPChef",
        "label": "rewardPerSecond",
        "offset": 0,
        "slot": "157",
        "type": "t_uint256"
      },
      {
        "astId": 1946,
        "contract": "contracts/CaviarLPChef.sol:CaviarLPChef",
        "label": "distributionPeriod",
        "offset": 0,
        "slot": "158",
        "type": "t_uint256"
      },
      {
        "astId": 1948,
        "contract": "contracts/CaviarLPChef.sol:CaviarLPChef",
        "label": "lastDistributedTime",
        "offset": 0,
        "slot": "159",
        "type": "t_uint256"
      },
      {
        "astId": 1950,
        "contract": "contracts/CaviarLPChef.sol:CaviarLPChef",
        "label": "smartWalletChecker",
        "offset": 0,
        "slot": "160",
        "type": "t_address"
      },
      {
        "astId": 1952,
        "contract": "contracts/CaviarLPChef.sol:CaviarLPChef",
        "label": "gaugeForLP",
        "offset": 0,
        "slot": "161",
        "type": "t_address"
      },
      {
        "astId": 1954,
        "contract": "contracts/CaviarLPChef.sol:CaviarLPChef",
        "label": "caviarManager",
        "offset": 0,
        "slot": "162",
        "type": "t_address"
      },
      {
        "astId": 2002,
        "contract": "contracts/CaviarLPChef.sol:CaviarLPChef",
        "label": "__NAME__",
        "offset": 0,
        "slot": "163",
        "type": "t_string_storage"
      },
      {
        "astId": 2004,
        "contract": "contracts/CaviarLPChef.sol:CaviarLPChef",
        "label": "underlyingTotalSupply",
        "offset": 0,
        "slot": "164",
        "type": "t_uint256"
      }
    ],
    "types": {
      "t_address": {
        "encoding": "inplace",
        "label": "address",
        "numberOfBytes": "20"
      },
      "t_array(t_uint256)49_storage": {
        "base": "t_uint256",
        "encoding": "inplace",
        "label": "uint256[49]",
        "numberOfBytes": "1568"
      },
      "t_array(t_uint256)50_storage": {
        "base": "t_uint256",
        "encoding": "inplace",
        "label": "uint256[50]",
        "numberOfBytes": "1600"
      },
      "t_bool": {
        "encoding": "inplace",
        "label": "bool",
        "numberOfBytes": "1"
      },
      "t_contract(IERC20)834": {
        "encoding": "inplace",
        "label": "contract IERC20",
        "numberOfBytes": "20"
      },
      "t_int256": {
        "encoding": "inplace",
        "label": "int256",
        "numberOfBytes": "32"
      },
      "t_mapping(t_address,t_struct(UserInfo)1917_storage)": {
        "encoding": "mapping",
        "key": "t_address",
        "label": "mapping(address => struct CaviarLPChef.UserInfo)",
        "numberOfBytes": "32",
        "value": "t_struct(UserInfo)1917_storage"
      },
      "t_string_storage": {
        "encoding": "bytes",
        "label": "string",
        "numberOfBytes": "32"
      },
      "t_struct(UserInfo)1917_storage": {
        "encoding": "inplace",
        "label": "struct CaviarLPChef.UserInfo",
        "members": [
          {
            "astId": 1914,
            "contract": "contracts/CaviarLPChef.sol:CaviarLPChef",
            "label": "amount",
            "offset": 0,
            "slot": "0",
            "type": "t_uint256"
          },
          {
            "astId": 1916,
            "contract": "contracts/CaviarLPChef.sol:CaviarLPChef",
            "label": "rewardDebt",
            "offset": 0,
            "slot": "1",
            "type": "t_int256"
          }
        ],
        "numberOfBytes": "64"
      },
      "t_uint256": {
        "encoding": "inplace",
        "label": "uint256",
        "numberOfBytes": "32"
      },
      "t_uint8": {
        "encoding": "inplace",
        "label": "uint8",
        "numberOfBytes": "1"
      }
    }
  }
}