{
  "address": "0x0f6Be9f2275067111e69995C0447806b1228ac38",
  "abi": [
    {
      "inputs": [],
      "stateMutability": "nonpayable",
      "type": "constructor"
    },
    {
      "anonymous": false,
      "inputs": [
        {
          "indexed": true,
          "internalType": "address",
          "name": "sender",
          "type": "address"
        },
        {
          "indexed": false,
          "internalType": "uint256",
          "name": "amount",
          "type": "uint256"
        }
      ],
      "name": "Deposit",
      "type": "event"
    },
    {
      "anonymous": false,
      "inputs": [
        {
          "indexed": true,
          "internalType": "address",
          "name": "sender",
          "type": "address"
        },
        {
          "indexed": false,
          "internalType": "uint256",
          "name": "tokenId",
          "type": "uint256"
        },
        {
          "indexed": false,
          "internalType": "uint256",
          "name": "amount",
          "type": "uint256"
        }
      ],
      "name": "DepositNFT",
      "type": "event"
    },
    {
      "anonymous": false,
      "inputs": [],
      "name": "DisableVePearlDeposit",
      "type": "event"
    },
    {
      "anonymous": false,
      "inputs": [
        {
          "indexed": false,
          "internalType": "uint256",
          "name": "amount",
          "type": "uint256"
        }
      ],
      "name": "EmissionsClaimed",
      "type": "event"
    },
    {
      "anonymous": false,
      "inputs": [],
      "name": "EnableVePearlDeposit",
      "type": "event"
    },
    {
      "anonymous": false,
      "inputs": [
        {
          "indexed": false,
          "internalType": "uint256",
          "name": "amount",
          "type": "uint256"
        }
      ],
      "name": "IncreaseAmount",
      "type": "event"
    },
    {
      "anonymous": false,
      "inputs": [
        {
          "indexed": false,
          "internalType": "uint256",
          "name": "unlockTime",
          "type": "uint256"
        }
      ],
      "name": "InitialLock",
      "type": "event"
    },
    {
      "anonymous": false,
      "inputs": [
        {
          "indexed": false,
          "internalType": "uint8",
          "name": "version",
          "type": "uint8"
        }
      ],
      "name": "Initialized",
      "type": "event"
    },
    {
      "anonymous": false,
      "inputs": [
        {
          "indexed": true,
          "internalType": "address",
          "name": "keeper",
          "type": "address"
        }
      ],
      "name": "KeeperAdded",
      "type": "event"
    },
    {
      "anonymous": false,
      "inputs": [
        {
          "indexed": true,
          "internalType": "address",
          "name": "keeper",
          "type": "address"
        }
      ],
      "name": "KeeperRemoved",
      "type": "event"
    },
    {
      "anonymous": false,
      "inputs": [
        {
          "indexed": true,
          "internalType": "address",
          "name": "previousOwner",
          "type": "address"
        },
        {
          "indexed": true,
          "internalType": "address",
          "name": "newOwner",
          "type": "address"
        }
      ],
      "name": "OwnershipTransferred",
      "type": "event"
    },
    {
      "anonymous": false,
      "inputs": [
        {
          "indexed": false,
          "internalType": "uint256",
          "name": "amount",
          "type": "uint256"
        }
      ],
      "name": "Rebase",
      "type": "event"
    },
    {
      "anonymous": false,
      "inputs": [
        {
          "indexed": true,
          "internalType": "address",
          "name": "sender",
          "type": "address"
        },
        {
          "indexed": false,
          "internalType": "uint256",
          "name": "amount",
          "type": "uint256"
        },
        {
          "indexed": false,
          "internalType": "uint256",
          "name": "redeemed",
          "type": "uint256"
        }
      ],
      "name": "Redeem",
      "type": "event"
    },
    {
      "anonymous": false,
      "inputs": [
        {
          "indexed": false,
          "internalType": "uint256",
          "name": "timestamp",
          "type": "uint256"
        }
      ],
      "name": "SetBeginTimestamp",
      "type": "event"
    },
    {
      "anonymous": false,
      "inputs": [
        {
          "indexed": false,
          "internalType": "address",
          "name": "pearl",
          "type": "address"
        }
      ],
      "name": "SetPearl",
      "type": "event"
    },
    {
      "anonymous": false,
      "inputs": [
        {
          "indexed": false,
          "internalType": "address",
          "name": "pair",
          "type": "address"
        }
      ],
      "name": "SetPearlPair",
      "type": "event"
    },
    {
      "anonymous": false,
      "inputs": [
        {
          "indexed": false,
          "internalType": "bool",
          "name": "set",
          "type": "bool"
        },
        {
          "indexed": false,
          "internalType": "uint256",
          "name": "fee",
          "type": "uint256"
        }
      ],
      "name": "SetPromotionPeriod",
      "type": "event"
    },
    {
      "inputs": [],
      "name": "MAXTIME",
      "outputs": [
        {
          "internalType": "uint256",
          "name": "",
          "type": "uint256"
        }
      ],
      "stateMutability": "view",
      "type": "function"
    },
    {
      "inputs": [],
      "name": "MAX_VE_DEPOSIT_FEE",
      "outputs": [
        {
          "internalType": "uint256",
          "name": "",
          "type": "uint256"
        }
      ],
      "stateMutability": "view",
      "type": "function"
    },
    {
      "inputs": [],
      "name": "MIN_VE_DEPOSIT_FEE",
      "outputs": [
        {
          "internalType": "uint256",
          "name": "",
          "type": "uint256"
        }
      ],
      "stateMutability": "view",
      "type": "function"
    },
    {
      "inputs": [],
      "name": "MULTIPLIER",
      "outputs": [
        {
          "internalType": "uint256",
          "name": "",
          "type": "uint256"
        }
      ],
      "stateMutability": "view",
      "type": "function"
    },
    {
      "inputs": [],
      "name": "PROMO_VE_DEPOSIT_FEE",
      "outputs": [
        {
          "internalType": "uint256",
          "name": "",
          "type": "uint256"
        }
      ],
      "stateMutability": "view",
      "type": "function"
    },
    {
      "inputs": [],
      "name": "REDEEM_FEE",
      "outputs": [
        {
          "internalType": "uint256",
          "name": "",
          "type": "uint256"
        }
      ],
      "stateMutability": "view",
      "type": "function"
    },
    {
      "inputs": [],
      "name": "WEEK",
      "outputs": [
        {
          "internalType": "uint256",
          "name": "",
          "type": "uint256"
        }
      ],
      "stateMutability": "view",
      "type": "function"
    },
    {
      "inputs": [],
      "name": "__NAME__",
      "outputs": [
        {
          "internalType": "string",
          "name": "",
          "type": "string"
        }
      ],
      "stateMutability": "view",
      "type": "function"
    },
    {
      "inputs": [
        {
          "internalType": "address",
          "name": "_keeper",
          "type": "address"
        }
      ],
      "name": "addKeeper",
      "outputs": [],
      "stateMutability": "nonpayable",
      "type": "function"
    },
    {
      "inputs": [],
      "name": "beginTimestamp",
      "outputs": [
        {
          "internalType": "uint256",
          "name": "",
          "type": "uint256"
        }
      ],
      "stateMutability": "view",
      "type": "function"
    },
    {
      "inputs": [],
      "name": "caviar",
      "outputs": [
        {
          "internalType": "address",
          "name": "",
          "type": "address"
        }
      ],
      "stateMutability": "view",
      "type": "function"
    },
    {
      "inputs": [],
      "name": "caviarSupplyAtCurrentEpoch",
      "outputs": [
        {
          "internalType": "uint256",
          "name": "",
          "type": "uint256"
        }
      ],
      "stateMutability": "view",
      "type": "function"
    },
    {
      "inputs": [],
      "name": "claimLPRewards",
      "outputs": [
        {
          "internalType": "uint256",
          "name": "",
          "type": "uint256"
        }
      ],
      "stateMutability": "nonpayable",
      "type": "function"
    },
    {
      "inputs": [
        {
          "internalType": "uint256",
          "name": "_amount",
          "type": "uint256"
        }
      ],
      "name": "deposit",
      "outputs": [],
      "stateMutability": "nonpayable",
      "type": "function"
    },
    {
      "inputs": [],
      "name": "depositAll",
      "outputs": [],
      "stateMutability": "nonpayable",
      "type": "function"
    },
    {
      "inputs": [
        {
          "internalType": "uint256",
          "name": "_tokenId",
          "type": "uint256"
        }
      ],
      "name": "depositNFT",
      "outputs": [],
      "stateMutability": "nonpayable",
      "type": "function"
    },
    {
      "inputs": [],
      "name": "disableRedeem",
      "outputs": [],
      "stateMutability": "nonpayable",
      "type": "function"
    },
    {
      "inputs": [],
      "name": "disableVePearlDeposit",
      "outputs": [],
      "stateMutability": "nonpayable",
      "type": "function"
    },
    {
      "inputs": [],
      "name": "enableRedeem",
      "outputs": [],
      "stateMutability": "nonpayable",
      "type": "function"
    },
    {
      "inputs": [],
      "name": "enableVePearlDeposit",
      "outputs": [],
      "stateMutability": "nonpayable",
      "type": "function"
    },
    {
      "inputs": [],
      "name": "feeManager",
      "outputs": [
        {
          "internalType": "address",
          "name": "",
          "type": "address"
        }
      ],
      "stateMutability": "view",
      "type": "function"
    },
    {
      "inputs": [],
      "name": "getCurrentDepositFee",
      "outputs": [
        {
          "internalType": "uint256",
          "name": "",
          "type": "uint256"
        }
      ],
      "stateMutability": "view",
      "type": "function"
    },
    {
      "inputs": [],
      "name": "getCurrentEpoch",
      "outputs": [
        {
          "internalType": "uint256",
          "name": "_epoch",
          "type": "uint256"
        }
      ],
      "stateMutability": "view",
      "type": "function"
    },
    {
      "inputs": [
        {
          "internalType": "string",
          "name": "_name",
          "type": "string"
        },
        {
          "internalType": "address",
          "name": "_strategy",
          "type": "address"
        },
        {
          "internalType": "address",
          "name": "_caviar",
          "type": "address"
        },
        {
          "internalType": "address",
          "name": "_pearl",
          "type": "address"
        },
        {
          "internalType": "address",
          "name": "_vePearl",
          "type": "address"
        },
        {
          "internalType": "address",
          "name": "_pearlPair",
          "type": "address"
        },
        {
          "internalType": "address",
          "name": "_smartWalletWhitelist",
          "type": "address"
        },
        {
          "internalType": "address",
          "name": "_feeManager",
          "type": "address"
        },
        {
          "internalType": "uint256",
          "name": "_lockingYear",
          "type": "uint256"
        }
      ],
      "name": "initialize",
      "outputs": [],
      "stateMutability": "nonpayable",
      "type": "function"
    },
    {
      "inputs": [
        {
          "internalType": "address",
          "name": "",
          "type": "address"
        }
      ],
      "name": "isKeeper",
      "outputs": [
        {
          "internalType": "bool",
          "name": "",
          "type": "bool"
        }
      ],
      "stateMutability": "view",
      "type": "function"
    },
    {
      "inputs": [],
      "name": "isPromotionPeriod",
      "outputs": [
        {
          "internalType": "bool",
          "name": "",
          "type": "bool"
        }
      ],
      "stateMutability": "view",
      "type": "function"
    },
    {
      "inputs": [
        {
          "internalType": "uint256",
          "name": "",
          "type": "uint256"
        }
      ],
      "name": "mintedFromNftAt",
      "outputs": [
        {
          "internalType": "uint256",
          "name": "",
          "type": "uint256"
        }
      ],
      "stateMutability": "view",
      "type": "function"
    },
    {
      "inputs": [],
      "name": "owner",
      "outputs": [
        {
          "internalType": "address",
          "name": "",
          "type": "address"
        }
      ],
      "stateMutability": "view",
      "type": "function"
    },
    {
      "inputs": [],
      "name": "pearl",
      "outputs": [
        {
          "internalType": "address",
          "name": "",
          "type": "address"
        }
      ],
      "stateMutability": "view",
      "type": "function"
    },
    {
      "inputs": [],
      "name": "pearlPair",
      "outputs": [
        {
          "internalType": "address",
          "name": "",
          "type": "address"
        }
      ],
      "stateMutability": "view",
      "type": "function"
    },
    {
      "inputs": [],
      "name": "rebase",
      "outputs": [
        {
          "internalType": "uint256",
          "name": "",
          "type": "uint256"
        }
      ],
      "stateMutability": "nonpayable",
      "type": "function"
    },
    {
      "inputs": [
        {
          "internalType": "uint256",
          "name": "_amount",
          "type": "uint256"
        }
      ],
      "name": "redeem",
      "outputs": [],
      "stateMutability": "nonpayable",
      "type": "function"
    },
    {
      "inputs": [],
      "name": "redeemEnabled",
      "outputs": [
        {
          "internalType": "bool",
          "name": "",
          "type": "bool"
        }
      ],
      "stateMutability": "view",
      "type": "function"
    },
    {
      "inputs": [
        {
          "internalType": "address",
          "name": "_keeper",
          "type": "address"
        }
      ],
      "name": "removeKeeper",
      "outputs": [],
      "stateMutability": "nonpayable",
      "type": "function"
    },
    {
      "inputs": [],
      "name": "renounceOwnership",
      "outputs": [],
      "stateMutability": "nonpayable",
      "type": "function"
    },
    {
      "inputs": [
        {
          "internalType": "uint256",
          "name": "_timestamp",
          "type": "uint256"
        }
      ],
      "name": "setBeginTimestamp",
      "outputs": [],
      "stateMutability": "nonpayable",
      "type": "function"
    },
    {
      "inputs": [
        {
          "internalType": "address",
          "name": "_pearl",
          "type": "address"
        }
      ],
      "name": "setPearl",
      "outputs": [],
      "stateMutability": "nonpayable",
      "type": "function"
    },
    {
      "inputs": [
        {
          "internalType": "address",
          "name": "_pair",
          "type": "address"
        }
      ],
      "name": "setPearlPair",
      "outputs": [],
      "stateMutability": "nonpayable",
      "type": "function"
    },
    {
      "inputs": [
        {
          "internalType": "bool",
          "name": "_isPromotionPeriod",
          "type": "bool"
        },
        {
          "internalType": "uint256",
          "name": "_depositFee",
          "type": "uint256"
        }
      ],
      "name": "setPromotionPeriod",
      "outputs": [],
      "stateMutability": "nonpayable",
      "type": "function"
    },
    {
      "inputs": [
        {
          "internalType": "address",
          "name": "_vePearl",
          "type": "address"
        }
      ],
      "name": "setVEPearl",
      "outputs": [],
      "stateMutability": "nonpayable",
      "type": "function"
    },
    {
      "inputs": [],
      "name": "smartWalletWhitelist",
      "outputs": [
        {
          "internalType": "address",
          "name": "",
          "type": "address"
        }
      ],
      "stateMutability": "view",
      "type": "function"
    },
    {
      "inputs": [],
      "name": "strategy",
      "outputs": [
        {
          "internalType": "address",
          "name": "",
          "type": "address"
        }
      ],
      "stateMutability": "view",
      "type": "function"
    },
    {
      "inputs": [
        {
          "internalType": "address",
          "name": "newOwner",
          "type": "address"
        }
      ],
      "name": "transferOwnership",
      "outputs": [],
      "stateMutability": "nonpayable",
      "type": "function"
    },
    {
      "inputs": [],
      "name": "veDepositEnabled",
      "outputs": [
        {
          "internalType": "bool",
          "name": "",
          "type": "bool"
        }
      ],
      "stateMutability": "view",
      "type": "function"
    },
    {
      "inputs": [],
      "name": "vePearl",
      "outputs": [
        {
          "internalType": "address",
          "name": "",
          "type": "address"
        }
      ],
      "stateMutability": "view",
      "type": "function"
    },
    {
      "inputs": [],
      "name": "vePearlLastBalance",
      "outputs": [
        {
          "internalType": "uint256",
          "name": "",
          "type": "uint256"
        }
      ],
      "stateMutability": "view",
      "type": "function"
    }
  ],
  "transactionHash": "0x917c515760ce6218a5f906f9c270d74a6a98e885a6148f4befb4696221deaa20",
  "args": [],
  "numDeployments": 1,
  "solcInputHash": "162510a527550652c5043da72444532a",
  "bytecode": "0x608060405234801561001057600080fd5b506135bf806100206000396000f3fe608060405234801561001057600080fd5b506004361061030a5760003560e01c8063819674e31161019c578063d2f82536116100ee578063ee00ef3a11610097578063f4359ce511610071578063f4359ce5146105e3578063f46c37e8146105ec578063ff781641146105f557600080fd5b8063ee00ef3a146105b2578063f1819bb5146105bb578063f2fde38b146105d057600080fd5b8063de5f6268116100c8578063de5f626814610584578063e841b6261461058c578063e91a7ca61461059f57600080fd5b8063d2f8253614610551578063db006a751461055e578063dc19c4d81461057157600080fd5b8063af14052c11610150578063b6b55f251161012a578063b6b55f2514610523578063b97dd9e214610536578063d0fb02031461053e57600080fd5b8063af14052c1461050a578063b20150df14610512578063b59ca7991461051b57600080fd5b80638da5cb5b116101815780638da5cb5b146104c657806399a10fa2146104d7578063a8c62e76146104f757600080fd5b8063819674e31461049f57806389991eff146104b357600080fd5b80633845fbf311610260578063672a0fb8116102095780637001cbe1116101e35780637001cbe11461047c578063715018a61461048f57806380ef238d1461049757600080fd5b8063672a0fb81461043d57806369af495b146104465780636ba42aaa1461045957600080fd5b806352f0699c1161023a57806352f0699c1461040e578063569482d71461041757806367244d371461042a57600080fd5b80633845fbf3146103ea5780633cad2a0a146103f35780634032b72b146103fb57600080fd5b806314ae9f2e116102c2578063268155bd1161029c578063268155bd146103bb5780632e94cd99146103ce578063345b5980146103e157600080fd5b806314ae9f2e146103595780631eab5bec1461036c578063217c1d681461039057600080fd5b8063061873e8116102f3578063061873e814610333578063081744511461033d578063138731011461034657600080fd5b8063059f8b161461030f57806305c09c8c1461032b575b600080fd5b61031860a45481565b6040519081526020015b60405180910390f35b6103186105fd565b61033b6106cd565b005b610318609c5481565b61033b610354366004613066565b610750565b61033b6103673660046130b7565b61083c565b60a25461038090600160a01b900460ff1681565b6040519015158152602001610322565b609f546103a3906001600160a01b031681565b6040516001600160a01b039091168152602001610322565b61033b6103c93660046130b7565b6108ca565b61033b6103dc36600461311b565b610973565b610318609b5481565b61031860a75481565b610318610bc5565b61033b6104093660046130b7565b610ecb565b61031860a35481565b60a2546103a3906001600160a01b031681565b60a0546103a3906001600160a01b031681565b61031860a65481565b61033b6104543660046130b7565b610f58565b6103806104673660046130b7565b60a96020526000908152604090205460ff1681565b61033b61048a3660046130b7565b610ffa565b61033b61109c565b61033b6110b0565b60a25461038090600160a81b900460ff1681565b61033b6104c136600461322f565b611191565b6033546001600160a01b03166103a3565b6103186104e536600461322f565b60a86020526000908152604090205481565b609e546103a3906001600160a01b031681565b6103186111ce565b61031860ab5481565b61033b6114de565b61033b61053136600461322f565b611559565b610318611672565b609d546103a3906001600160a01b031681565b60aa546103809060ff1681565b61033b61056c36600461322f565b61168f565b6098546103a3906001600160a01b031681565b61033b61195e565b60a1546103a3906001600160a01b031681565b61033b6105ad36600461322f565b611afd565b61031860995481565b6105c3611f25565b604051610322919061326c565b61033b6105de3660046130b7565b611fb3565b610318609a5481565b61031860a55481565b61033b612040565b60a254600090600160a81b900460ff1615610619575060a35490565b60a1546001600160a01b03166106305750609b5490565b60008061063b61211f565b90925090506000821561066a5761066782610661609b548661242690919063ffffffff16565b9061243b565b90505b610672612447565b909350915082156106a857600061069883610661609b548761242690919063ffffffff16565b9050818111156106a6578091505b505b609b548110156106b75750609b545b609c548111156106c65750609c545b9392505050565b6033546001600160a01b03163314806106f05750609e546001600160a01b031633145b6107415760405162461bcd60e51b815260206004820152600b60248201527f41757468206661696c656400000000000000000000000000000000000000000060448201526064015b60405180910390fd5b60aa805460ff19166001179055565b6107586125e5565b60a25460ff600160a81b9091041615158215146107b75760405162461bcd60e51b815260206004820152600b60248201527f416c7265616479207365740000000000000000000000000000000000000000006044820152606401610738565b60a280547fffffffffffffffffffff00ffffffffffffffffffffffffffffffffffffffffff16600160a81b841515908102919091179091556001036107fc5760a38190555b604080518315158152602081018390527f575fcb4f41780c0536203c1ad9067aa9b04352d2ff1e5e1ee818a5aa9dade1ce91015b60405180910390a15050565b6108446125e5565b6001600160a01b03811661085757600080fd5b6001600160a01b038116600090815260a9602052604090205460ff16151560011461088157600080fd5b6001600160a01b038116600081815260a96020526040808220805460ff19169055517fa7a775c2c8141f7985c111748ec31c11e5e44b83528e105c8d1d4e8e6b81cf809190a250565b6108d26125e5565b6001600160a01b0381166109115760405162461bcd60e51b815260206004820152600660248201526506164647220360d41b6044820152606401610738565b60a1805473ffffffffffffffffffffffffffffffffffffffff19166001600160a01b0383169081179091556040519081527f8229372d912c6ec024c1ece7fb23066cc7f8d4e4ea4e1d5c6a2f5dd4f5bc97c6906020015b60405180910390a150565b600054610100900460ff16158080156109935750600054600160ff909116105b806109ad5750303b1580156109ad575060005460ff166001145b610a1f5760405162461bcd60e51b815260206004820152602e60248201527f496e697469616c697a61626c653a20636f6e747261637420697320616c72656160448201527f647920696e697469616c697a65640000000000000000000000000000000000006064820152608401610738565b6000805460ff191660011790558015610a42576000805461ff0019166101001790555b610a4a61263f565b610a526126b2565b6097610a5e8b82613327565b50609d805473ffffffffffffffffffffffffffffffffffffffff199081166001600160a01b0386811691909117909255609e805482168c8416179055609f805482168b841617905560a08054821689841617905560a18054909116918716919091179055610ace8261016c6133fd565b610adb90620151806133fd565b60995562093a80609a55609880546001600160a01b03808a1673ffffffffffffffffffffffffffffffffffffffff199092169190911790915560a28054607d609b556102bc609c556103e860a455602360a5559186167fffffffffffffffffffff0000000000000000000000000000000000000000000090921691909117600160a01b17905560aa805460ff19166001179055600060ab558015610bb9576000805461ff0019169055604051600181527f7f26b83ff96e1f2b6a682f133852f6798a09c465da95921460cefb38474024989060200160405180910390a15b50505050505050505050565b33600090815260a9602052604081205460ff16151560011480610bf257506033546001600160a01b031633145b610c3e5760405162461bcd60e51b815260206004820152600a60248201527f6e6f74206b6565706572000000000000000000000000000000000000000000006044820152606401610738565b609d54604080517f66c91c4300000000000000000000000000000000000000000000000000000000815290516000926001600160a01b0316916366c91c439160048083019260209291908290030181865afa158015610ca1573d6000803e3d6000fd5b505050506040513d601f19601f82011682018060405250810190610cc59190613414565b6001600160a01b031663a591a6f46040518163ffffffff1660e01b81526004016020604051808303816000875af1158015610d04573d6000803e3d6000fd5b505050506040513d601f19601f82011682018060405250810190610d289190613431565b90508015610ec657610d3981612725565b609f54609d546040516340c10f1960e01b81526001600160a01b039182166004820152602481018490529116906340c10f1990604401600060405180830381600087803b158015610d8957600080fd5b505af1158015610d9d573d6000803e3d6000fd5b5050609d546040517f76ae6030000000000000000000000000000000000000000000000000000000008152600481018590526001600160a01b0390911692506376ae60309150602401600060405180830381600087803b158015610e0057600080fd5b505af1158015610e14573d6000803e3d6000fd5b50505050609f60009054906101000a90046001600160a01b03166001600160a01b03166318160ddd6040518163ffffffff1660e01b8152600401602060405180830381865afa158015610e6b573d6000803e3d6000fd5b505050506040513d601f19601f82011682018060405250810190610e8f9190613431565b60a7556040518181527fb2551dbcbbc5e10b061417241206244b6b437957d6dd69d9e46aed114047b0959060200160405180910390a15b905090565b610ed36125e5565b6001600160a01b038116610ee657600080fd5b6001600160a01b038116600090815260a9602052604090205460ff1615610f0c57600080fd5b6001600160a01b038116600081815260a96020526040808220805460ff19166001179055517f1584773458d98c71b34a270ee1100b3a42889bf91e3b7a858563b684c24d838e9190a250565b610f606125e5565b6001600160a01b038116610f9f5760405162461bcd60e51b815260206004820152600660248201526506164647220360d41b6044820152606401610738565b6098805473ffffffffffffffffffffffffffffffffffffffff19166001600160a01b0383169081179091556040519081527fc6cb03f4249a54f07e64b24cac915b50cddcba8604ab7f158325661fe2d57e4690602001610968565b6110026125e5565b6001600160a01b0381166110415760405162461bcd60e51b815260206004820152600660248201526506164647220360d41b6044820152606401610738565b60a0805473ffffffffffffffffffffffffffffffffffffffff19166001600160a01b0383169081179091556040519081527fc6cb03f4249a54f07e64b24cac915b50cddcba8604ab7f158325661fe2d57e4690602001610968565b6110a46125e5565b6110ae600061289d565b565b6110b86125e5565b60a254600160a01b900460ff16156111385760405162461bcd60e51b815260206004820152602260248201527f5665506561726c204465706f69737420697320616c726561647920656e61626c60448201527f65640000000000000000000000000000000000000000000000000000000000006064820152608401610738565b60a280547fffffffffffffffffffffff00ffffffffffffffffffffffffffffffffffffffff16600160a01b1790556040517f0ec124fd9588c6e50e2550ac6d2659419c953c731ea3ae8328b4e2f5e20619d190600090a1565b6111996125e5565b60a68190556040518181527fa5cb0fda77df2583a75497c8198d3c202b8f59de6b409606b22bc98e24a87fbc90602001610968565b33600090815260a9602052604081205460ff161515600114806111fb57506033546001600160a01b031633145b6112475760405162461bcd60e51b815260206004820152600a60248201527f6e6f74206b6565706572000000000000000000000000000000000000000000006044820152606401610738565b60ab54609e54604080517fb4cd143a00000000000000000000000000000000000000000000000000000000815290516001600160a01b039092169163b4cd143a9160048082019260009290919082900301818387803b1580156112a957600080fd5b505af11580156112bd573d6000803e3d6000fd5b50505050609e60009054906101000a90046001600160a01b03166001600160a01b031663eca5f1586040518163ffffffff1660e01b8152600401602060405180830381865afa158015611314573d6000803e3d6000fd5b505050506040513d601f19601f820116820180604052508101906113389190613431565b60ab81905560009061134a90836128fc565b609f54609d546040516340c10f1960e01b81526001600160a01b0391821660048201526024810184905292935016906340c10f1990604401600060405180830381600087803b15801561139c57600080fd5b505af11580156113b0573d6000803e3d6000fd5b5050609d546040517f0fa94442000000000000000000000000000000000000000000000000000000008152600481018590526001600160a01b039091169250630fa944429150602401600060405180830381600087803b15801561141357600080fd5b505af1158015611427573d6000803e3d6000fd5b50505050609f60009054906101000a90046001600160a01b03166001600160a01b03166318160ddd6040518163ffffffff1660e01b8152600401602060405180830381865afa15801561147e573d6000803e3d6000fd5b505050506040513d601f19601f820116820180604052508101906114a29190613431565b60a7556040518181527fafae32ce2847c13a56ab802c034c27d3c19f1d61be48c424c5df134145cd44d09060200160405180910390a191505090565b6033546001600160a01b03163314806115015750609e546001600160a01b031633145b61154d5760405162461bcd60e51b815260206004820152600b60248201527f41757468206661696c65640000000000000000000000000000000000000000006044820152606401610738565b60aa805460ff19169055565b611561612908565b32331461165c5760a2546001600160a01b03166115b25760405162461bcd60e51b815260206004820152600f60248201526e139bdd081dda1a5d195b1a5cdd1959608a1b6044820152606401610738565b60a254604051631846d2f560e31b81523360048201526001600160a01b039091169063c23697a890602401602060405180830381865afa1580156115fa573d6000803e3d6000fd5b505050506040513d601f19601f8201168201806040525081019061161e919061344a565b61165c5760405162461bcd60e51b815260206004820152600f60248201526e139bdd081dda1a5d195b1a5cdd1959608a1b6044820152606401610738565b61166581612961565b61166f6001606555565b50565b6000609a5460a654426116859190613467565b610ec6919061347a565b611697612908565b3233146117925760a2546001600160a01b03166116e85760405162461bcd60e51b815260206004820152600f60248201526e139bdd081dda1a5d195b1a5cdd1959608a1b6044820152606401610738565b60a254604051631846d2f560e31b81523360048201526001600160a01b039091169063c23697a890602401602060405180830381865afa158015611730573d6000803e3d6000fd5b505050506040513d601f19601f82011682018060405250810190611754919061344a565b6117925760405162461bcd60e51b815260206004820152600f60248201526e139bdd081dda1a5d195b1a5cdd1959608a1b6044820152606401610738565b60aa5460ff166117e45760405162461bcd60e51b815260206004820152600f60248201527f52656465656d2064697361626c656400000000000000000000000000000000006044820152606401610738565b600061180660a45461066160a55460a4546117ff9190613467565b8590612426565b609e546040517f66123fe5000000000000000000000000000000000000000000000000000000008152600481018390523360248201529192506001600160a01b0316906366123fe590604401600060405180830381600087803b15801561186c57600080fd5b505af1158015611880573d6000803e3d6000fd5b505050508060ab60008282546118969190613467565b9091555050609f546040517f9dc29fac000000000000000000000000000000000000000000000000000000008152336004820152602481018490526001600160a01b0390911690639dc29fac90604401600060405180830381600087803b15801561190057600080fd5b505af1158015611914573d6000803e3d6000fd5b505060408051858152602081018590523393507fe5b754fb1abb7f01b499791d0b820ae3b6af3424ac1c59768edb53f4ec31a92992500160405180910390a25061166f6001606555565b611966612908565b323314611a615760a2546001600160a01b03166119b75760405162461bcd60e51b815260206004820152600f60248201526e139bdd081dda1a5d195b1a5cdd1959608a1b6044820152606401610738565b60a254604051631846d2f560e31b81523360048201526001600160a01b039091169063c23697a890602401602060405180830381865afa1580156119ff573d6000803e3d6000fd5b505050506040513d601f19601f82011682018060405250810190611a23919061344a565b611a615760405162461bcd60e51b815260206004820152600f60248201526e139bdd081dda1a5d195b1a5cdd1959608a1b6044820152606401610738565b6098546040517f70a082310000000000000000000000000000000000000000000000000000000081523360048201526000916001600160a01b0316906370a0823190602401602060405180830381865afa158015611ac3573d6000803e3d6000fd5b505050506040513d601f19601f82011682018060405250810190611ae79190613431565b9050611af281612961565b506110ae6001606555565b611b05612908565b323314611c005760a2546001600160a01b0316611b565760405162461bcd60e51b815260206004820152600f60248201526e139bdd081dda1a5d195b1a5cdd1959608a1b6044820152606401610738565b60a254604051631846d2f560e31b81523360048201526001600160a01b039091169063c23697a890602401602060405180830381865afa158015611b9e573d6000803e3d6000fd5b505050506040513d601f19601f82011682018060405250810190611bc2919061344a565b611c005760405162461bcd60e51b815260206004820152600f60248201526e139bdd081dda1a5d195b1a5cdd1959608a1b6044820152606401610738565b60a254600160a01b900460ff16611c595760405162461bcd60e51b815260206004820152601a60248201527f4e4654204465706f736974206973206e6f7420656e61626c65640000000000006044820152606401610738565b60a254600090600160a81b900460ff1615611c77575060a354611c82565b611c7f6105fd565b90505b60a0546040517fb45a3c0e000000000000000000000000000000000000000000000000000000008152600481018490526000916001600160a01b03169063b45a3c0e906024016040805180830381865afa158015611ce4573d6000803e3d6000fd5b505050506040513d601f19601f82011682018060405250810190611d08919061349c565b5090506000611d1682612a75565b90506000611d3160a4546106618660a4546117ff9190613467565b60a054609e546040517f23b872dd0000000000000000000000000000000000000000000000000000000081523360048201526001600160a01b0391821660248201526044810189905292935016906323b872dd90606401600060405180830381600087803b158015611da257600080fd5b505af1158015611db6573d6000803e3d6000fd5b5050609e546040517f24a47aeb000000000000000000000000000000000000000000000000000000008152600481018990526001600160a01b0390911692506324a47aeb9150602401600060405180830381600087803b158015611e1957600080fd5b505af1158015611e2d573d6000803e3d6000fd5b505050508160ab6000828254611e4391906134d0565b9091555081905060a86000611e56611672565b81526020019081526020016000206000828254611e7391906134d0565b9091555050609f546040516340c10f1960e01b8152336004820152602481018390526001600160a01b03909116906340c10f1990604401600060405180830381600087803b158015611ec457600080fd5b505af1158015611ed8573d6000803e3d6000fd5b505060408051888152602081018590523393507f2c6e00d05c9537687e3346c6bb423b06c873979206b8d425ddbb4f9b436e058292500160405180910390a25050505061166f6001606555565b60978054611f329061329f565b80601f0160208091040260200160405190810160405280929190818152602001828054611f5e9061329f565b8015611fab5780601f10611f8057610100808354040283529160200191611fab565b820191906000526020600020905b815481529060010190602001808311611f8e57829003601f168201915b505050505081565b611fbb6125e5565b6001600160a01b0381166120375760405162461bcd60e51b815260206004820152602660248201527f4f776e61626c653a206e6577206f776e657220697320746865207a65726f206160448201527f64647265737300000000000000000000000000000000000000000000000000006064820152608401610738565b61166f8161289d565b6120486125e5565b60a254600160a01b900460ff1615156001146120cc5760405162461bcd60e51b815260206004820152602360248201527f5665506561726c204465706f69737420697320616c726561647920646973616260448201527f6c656400000000000000000000000000000000000000000000000000000000006064820152608401610738565b60a280547fffffffffffffffffffffff00ffffffffffffffffffffffffffffffffffffffff1690556040517fade2d598b8835dbb08a4168080043317e655d128eab9a2e7b7d8a21924665c8c90600090a1565b600080600060a160009054906101000a90046001600160a01b03166001600160a01b0316638a7b8cf26040518163ffffffff1660e01b8152600401606060405180830381865afa158015612177573d6000803e3d6000fd5b505050506040513d601f19601f8201168201806040525081019061219b91906134e3565b905060008060a160009054906101000a90046001600160a01b03166001600160a01b0316631df8c7176040518163ffffffff1660e01b8152600401606060405180830381865afa1580156121f3573d6000803e3d6000fd5b505050506040513d601f19601f82011682018060405250810190612217919061353f565b5084519193509150420361232e5760a154604080517febeb31db00000000000000000000000000000000000000000000000000000000815290516000926001600160a01b03169163ebeb31db9160048083019260209291908290030181865afa158015612288573d6000803e3d6000fd5b505050506040513d601f19601f820116820180604052508101906122ac9190613431565b60a1549091506001600160a01b031663252c09d76122cb600284613467565b6040518263ffffffff1660e01b81526004016122e991815260200190565b606060405180830381865afa158015612306573d6000803e3d6000fd5b505050506040513d601f19601f8201168201806040525081019061232a91906134e3565b9350505b825160009061233d9042613467565b90506000818560200151856123529190613467565b61235c919061347a565b90506000828660400151856123719190613467565b61237b919061347a565b905060a160009054906101000a90046001600160a01b03166001600160a01b0316630dfe16816040518163ffffffff1660e01b8152600401602060405180830381865afa1580156123d0573d6000803e3d6000fd5b505050506040513d601f19601f820116820180604052508101906123f49190613414565b609f546001600160a01b03918216911603612415579096509450858561241c565b9650945084865b5050505050509091565b600061243282846133fd565b90505b92915050565b6000612432828461347a565b600080600060a160009054906101000a90046001600160a01b03166001600160a01b031663443cb4bc6040518163ffffffff1660e01b8152600401602060405180830381865afa15801561249f573d6000803e3d6000fd5b505050506040513d601f19601f820116820180604052508101906124c39190613431565b9050600060a160009054906101000a90046001600160a01b03166001600160a01b0316635a76f25e6040518163ffffffff1660e01b8152600401602060405180830381865afa15801561251a573d6000803e3d6000fd5b505050506040513d601f19601f8201168201806040525081019061253e9190613431565b905060a160009054906101000a90046001600160a01b03166001600160a01b0316630dfe16816040518163ffffffff1660e01b8152600401602060405180830381865afa158015612593573d6000803e3d6000fd5b505050506040513d601f19601f820116820180604052508101906125b79190613414565b609f546001600160a01b039182169116036125d857909250905081816125df565b9250905080825b50509091565b6033546001600160a01b031633146110ae5760405162461bcd60e51b815260206004820181905260248201527f4f776e61626c653a2063616c6c6572206973206e6f7420746865206f776e65726044820152606401610738565b600054610100900460ff166126aa5760405162461bcd60e51b815260206004820152602b60248201527f496e697469616c697a61626c653a20636f6e7472616374206973206e6f74206960448201526a6e697469616c697a696e6760a81b6064820152608401610738565b6110ae612a9c565b600054610100900460ff1661271d5760405162461bcd60e51b815260206004820152602b60248201527f496e697469616c697a61626c653a20636f6e7472616374206973206e6f74206960448201526a6e697469616c697a696e6760a81b6064820152608401610738565b6110ae612b10565b609e54609854612742916001600160a01b03918216911683612b7b565b609e54604080517feca5f15800000000000000000000000000000000000000000000000000000000815290516000926001600160a01b03169163eca5f1589160048083019260209291908290030181865afa1580156127a5573d6000803e3d6000fd5b505050506040513d601f19601f820116820180604052508101906127c99190613431565b9050801561286557609e546040517f15456eba000000000000000000000000000000000000000000000000000000008152600481018490526001600160a01b03909116906315456eba90602401600060405180830381600087803b15801561283057600080fd5b505af1158015612844573d6000803e3d6000fd5b505050508160ab600082825461285a91906134d0565b9091555061286d9050565b61286d612c29565b6040518281527fb1bcb34d261331804be4d3be145a234b1672463e7ac788c3d401059fcfb0510890602001610830565b603380546001600160a01b0383811673ffffffffffffffffffffffffffffffffffffffff19831681179093556040519116919082907f8be0079c531659141344cd1fd0a4f28419497f9722a3daafe3b4186f6b6457e090600090a35050565b60006124328284613467565b60026065540361295a5760405162461bcd60e51b815260206004820152601f60248201527f5265656e7472616e637947756172643a207265656e7472616e742063616c6c006044820152606401610738565b6002606555565b806000036129b15760405162461bcd60e51b815260206004820152600360248201527f213e3000000000000000000000000000000000000000000000000000000000006044820152606401610738565b6098546129c9906001600160a01b0316333084612d72565b6129d281612725565b609f546040516340c10f1960e01b8152336004820152602481018390526001600160a01b03909116906340c10f1990604401600060405180830381600087803b158015612a1e57600080fd5b505af1158015612a32573d6000803e3d6000fd5b50506040518381523392507fe1fffcc4923d04b559f4d29a8bfc6cda04eb5b0d3c460751c2402c5c5cc9109c915060200160405180910390a250565b6001606555565b6000600f82900b81811215612435576f7fffffffffffffffffffffffffffffff1692915050565b600054610100900460ff16612b075760405162461bcd60e51b815260206004820152602b60248201527f496e697469616c697a61626c653a20636f6e7472616374206973206e6f74206960448201526a6e697469616c697a696e6760a81b6064820152608401610738565b6110ae3361289d565b600054610100900460ff16612a6e5760405162461bcd60e51b815260206004820152602b60248201527f496e697469616c697a61626c653a20636f6e7472616374206973206e6f74206960448201526a6e697469616c697a696e6760a81b6064820152608401610738565b6040516001600160a01b038316602482015260448101829052612c249084907fa9059cbb00000000000000000000000000000000000000000000000000000000906064015b60408051601f198184030181529190526020810180517bffffffffffffffffffffffffffffffffffffffffffffffffffffffff167fffffffff0000000000000000000000000000000000000000000000000000000090931692909217909152612dc9565b505050565b609854609e546040517f70a082310000000000000000000000000000000000000000000000000000000081526001600160a01b03918216600482015260009291909116906370a0823190602401602060405180830381865afa158015612c93573d6000803e3d6000fd5b505050506040513d601f19601f82011682018060405250810190612cb79190613431565b609e546099546040517fb52c05fe0000000000000000000000000000000000000000000000000000000081526004810184905260248101919091529192506001600160a01b03169063b52c05fe90604401600060405180830381600087803b158015612d2257600080fd5b505af1158015612d36573d6000803e3d6000fd5b50505060ab829055506099546040519081527f23e239e8dfd669d9b934a258bd513c902ad65f61898e62a73efca959ba8a330490602001610968565b6040516001600160a01b0380851660248301528316604482015260648101829052612dc39085907f23b872dd0000000000000000000000000000000000000000000000000000000090608401612bc0565b50505050565b6000612e1e826040518060400160405280602081526020017f5361666545524332303a206c6f772d6c6576656c2063616c6c206661696c6564815250856001600160a01b0316612eb19092919063ffffffff16565b9050805160001480612e3f575080806020019051810190612e3f919061344a565b612c245760405162461bcd60e51b815260206004820152602a60248201527f5361666545524332303a204552433230206f7065726174696f6e20646964206e60448201527f6f742073756363656564000000000000000000000000000000000000000000006064820152608401610738565b6060612ec08484600085612ec8565b949350505050565b606082471015612f405760405162461bcd60e51b815260206004820152602660248201527f416464726573733a20696e73756666696369656e742062616c616e636520666f60448201527f722063616c6c00000000000000000000000000000000000000000000000000006064820152608401610738565b600080866001600160a01b03168587604051612f5c919061356d565b60006040518083038185875af1925050503d8060008114612f99576040519150601f19603f3d011682016040523d82523d6000602084013e612f9e565b606091505b5091509150612faf87838387612fba565b979650505050505050565b60608315613029578251600003613022576001600160a01b0385163b6130225760405162461bcd60e51b815260206004820152601d60248201527f416464726573733a2063616c6c20746f206e6f6e2d636f6e74726163740000006044820152606401610738565b5081612ec0565b612ec0838381511561303e5781518083602001fd5b8060405162461bcd60e51b8152600401610738919061326c565b801515811461166f57600080fd5b6000806040838503121561307957600080fd5b823561308481613058565b946020939093013593505050565b6001600160a01b038116811461166f57600080fd5b80356130b281613092565b919050565b6000602082840312156130c957600080fd5b81356106c681613092565b634e487b7160e01b600052604160045260246000fd5b604051601f8201601f1916810167ffffffffffffffff81118282101715613113576131136130d4565b604052919050565b60008060008060008060008060006101208a8c03121561313a57600080fd5b893567ffffffffffffffff8082111561315257600080fd5b818c0191508c601f83011261316657600080fd5b813560208282111561317a5761317a6130d4565b61318c81601f19601f850116016130ea565b92508183528e818386010111156131a257600080fd5b81818501828501376000818385010152829c506131c0818f016130a7565b9b50505050506131d260408b016130a7565b96506131e060608b016130a7565b95506131ee60808b016130a7565b94506131fc60a08b016130a7565b935061320a60c08b016130a7565b925061321860e08b016130a7565b91506101008a013590509295985092959850929598565b60006020828403121561324157600080fd5b5035919050565b60005b8381101561326357818101518382015260200161324b565b50506000910152565b602081526000825180602084015261328b816040850160208701613248565b601f01601f19169190910160400192915050565b600181811c908216806132b357607f821691505b6020821081036132d357634e487b7160e01b600052602260045260246000fd5b50919050565b601f821115612c2457600081815260208120601f850160051c810160208610156133005750805b601f850160051c820191505b8181101561331f5782815560010161330c565b505050505050565b815167ffffffffffffffff811115613341576133416130d4565b6133558161334f845461329f565b846132d9565b602080601f83116001811461338a57600084156133725750858301515b600019600386901b1c1916600185901b17855561331f565b600085815260208120601f198616915b828110156133b95788860151825594840194600190910190840161339a565b50858210156133d75787850151600019600388901b60f8161c191681555b5050505050600190811b01905550565b634e487b7160e01b600052601160045260246000fd5b8082028115828204841417612435576124356133e7565b60006020828403121561342657600080fd5b81516106c681613092565b60006020828403121561344357600080fd5b5051919050565b60006020828403121561345c57600080fd5b81516106c681613058565b81810381811115612435576124356133e7565b60008261349757634e487b7160e01b600052601260045260246000fd5b500490565b600080604083850312156134af57600080fd5b825180600f0b81146134c057600080fd5b6020939093015192949293505050565b80820180821115612435576124356133e7565b6000606082840312156134f557600080fd5b6040516060810181811067ffffffffffffffff82111715613518576135186130d4565b80604052508251815260208301516020820152604083015160408201528091505092915050565b60008060006060848603121561355457600080fd5b8351925060208401519150604084015190509250925092565b6000825161357f818460208701613248565b919091019291505056fea26469706673582212202aae05c6f65ad88524e0eeeeb35867168f54b07fd31a1be87918387cf923e09d64736f6c63430008130033",
  "devdoc": {
    "events": {
      "Initialized(uint8)": {
        "details": "Triggered when the contract has been initialized or reinitialized."
      }
    },
    "kind": "dev",
    "methods": {
      "owner()": {
        "details": "Returns the address of the current owner."
      },
      "renounceOwnership()": {
        "details": "Leaves the contract without owner. It will not be possible to call `onlyOwner` functions. Can only be called by the current owner. NOTE: Renouncing ownership will leave the contract without an owner, thereby disabling any functionality that is only available to the owner."
      },
      "transferOwnership(address)": {
        "details": "Transfers ownership of the contract to a new account (`newOwner`). Can only be called by the current owner."
      }
    },
    "version": 1
  },
  "userdoc": {
    "kind": "user",
    "methods": {},
    "version": 1
  },
  "storageLayout": {
    "storage": [
      {
        "astId": 138,
        "contract": "contracts/CaviarManager.sol:CaviarManager",
        "label": "_initialized",
        "offset": 0,
        "slot": "0",
        "type": "t_uint8"
      },
      {
        "astId": 141,
        "contract": "contracts/CaviarManager.sol:CaviarManager",
        "label": "_initializing",
        "offset": 1,
        "slot": "0",
        "type": "t_bool"
      },
      {
        "astId": 1882,
        "contract": "contracts/CaviarManager.sol:CaviarManager",
        "label": "__gap",
        "offset": 0,
        "slot": "1",
        "type": "t_array(t_uint256)50_storage"
      },
      {
        "astId": 10,
        "contract": "contracts/CaviarManager.sol:CaviarManager",
        "label": "_owner",
        "offset": 0,
        "slot": "51",
        "type": "t_address"
      },
      {
        "astId": 130,
        "contract": "contracts/CaviarManager.sol:CaviarManager",
        "label": "__gap",
        "offset": 0,
        "slot": "52",
        "type": "t_array(t_uint256)49_storage"
      },
      {
        "astId": 314,
        "contract": "contracts/CaviarManager.sol:CaviarManager",
        "label": "_status",
        "offset": 0,
        "slot": "101",
        "type": "t_uint256"
      },
      {
        "astId": 383,
        "contract": "contracts/CaviarManager.sol:CaviarManager",
        "label": "__gap",
        "offset": 0,
        "slot": "102",
        "type": "t_array(t_uint256)49_storage"
      },
      {
        "astId": 10600,
        "contract": "contracts/CaviarManager.sol:CaviarManager",
        "label": "__NAME__",
        "offset": 0,
        "slot": "151",
        "type": "t_string_storage"
      },
      {
        "astId": 10602,
        "contract": "contracts/CaviarManager.sol:CaviarManager",
        "label": "pearl",
        "offset": 0,
        "slot": "152",
        "type": "t_address"
      },
      {
        "astId": 10604,
        "contract": "contracts/CaviarManager.sol:CaviarManager",
        "label": "MAXTIME",
        "offset": 0,
        "slot": "153",
        "type": "t_uint256"
      },
      {
        "astId": 10606,
        "contract": "contracts/CaviarManager.sol:CaviarManager",
        "label": "WEEK",
        "offset": 0,
        "slot": "154",
        "type": "t_uint256"
      },
      {
        "astId": 10608,
        "contract": "contracts/CaviarManager.sol:CaviarManager",
        "label": "MIN_VE_DEPOSIT_FEE",
        "offset": 0,
        "slot": "155",
        "type": "t_uint256"
      },
      {
        "astId": 10610,
        "contract": "contracts/CaviarManager.sol:CaviarManager",
        "label": "MAX_VE_DEPOSIT_FEE",
        "offset": 0,
        "slot": "156",
        "type": "t_uint256"
      },
      {
        "astId": 10612,
        "contract": "contracts/CaviarManager.sol:CaviarManager",
        "label": "feeManager",
        "offset": 0,
        "slot": "157",
        "type": "t_address"
      },
      {
        "astId": 10614,
        "contract": "contracts/CaviarManager.sol:CaviarManager",
        "label": "strategy",
        "offset": 0,
        "slot": "158",
        "type": "t_address"
      },
      {
        "astId": 10616,
        "contract": "contracts/CaviarManager.sol:CaviarManager",
        "label": "caviar",
        "offset": 0,
        "slot": "159",
        "type": "t_address"
      },
      {
        "astId": 10618,
        "contract": "contracts/CaviarManager.sol:CaviarManager",
        "label": "vePearl",
        "offset": 0,
        "slot": "160",
        "type": "t_address"
      },
      {
        "astId": 10620,
        "contract": "contracts/CaviarManager.sol:CaviarManager",
        "label": "pearlPair",
        "offset": 0,
        "slot": "161",
        "type": "t_address"
      },
      {
        "astId": 10622,
        "contract": "contracts/CaviarManager.sol:CaviarManager",
        "label": "smartWalletWhitelist",
        "offset": 0,
        "slot": "162",
        "type": "t_address"
      },
      {
        "astId": 10624,
        "contract": "contracts/CaviarManager.sol:CaviarManager",
        "label": "veDepositEnabled",
        "offset": 20,
        "slot": "162",
        "type": "t_bool"
      },
      {
        "astId": 10626,
        "contract": "contracts/CaviarManager.sol:CaviarManager",
        "label": "isPromotionPeriod",
        "offset": 21,
        "slot": "162",
        "type": "t_bool"
      },
      {
        "astId": 10628,
        "contract": "contracts/CaviarManager.sol:CaviarManager",
        "label": "PROMO_VE_DEPOSIT_FEE",
        "offset": 0,
        "slot": "163",
        "type": "t_uint256"
      },
      {
        "astId": 10630,
        "contract": "contracts/CaviarManager.sol:CaviarManager",
        "label": "MULTIPLIER",
        "offset": 0,
        "slot": "164",
        "type": "t_uint256"
      },
      {
        "astId": 10632,
        "contract": "contracts/CaviarManager.sol:CaviarManager",
        "label": "REDEEM_FEE",
        "offset": 0,
        "slot": "165",
        "type": "t_uint256"
      },
      {
        "astId": 10634,
        "contract": "contracts/CaviarManager.sol:CaviarManager",
        "label": "beginTimestamp",
        "offset": 0,
        "slot": "166",
        "type": "t_uint256"
      },
      {
        "astId": 10636,
        "contract": "contracts/CaviarManager.sol:CaviarManager",
        "label": "caviarSupplyAtCurrentEpoch",
        "offset": 0,
        "slot": "167",
        "type": "t_uint256"
      },
      {
        "astId": 10640,
        "contract": "contracts/CaviarManager.sol:CaviarManager",
        "label": "mintedFromNftAt",
        "offset": 0,
        "slot": "168",
        "type": "t_mapping(t_uint256,t_uint256)"
      },
      {
        "astId": 10644,
        "contract": "contracts/CaviarManager.sol:CaviarManager",
        "label": "isKeeper",
        "offset": 0,
        "slot": "169",
        "type": "t_mapping(t_address,t_bool)"
      },
      {
        "astId": 10646,
        "contract": "contracts/CaviarManager.sol:CaviarManager",
        "label": "redeemEnabled",
        "offset": 0,
        "slot": "170",
        "type": "t_bool"
      },
      {
        "astId": 10648,
        "contract": "contracts/CaviarManager.sol:CaviarManager",
        "label": "vePearlLastBalance",
        "offset": 0,
        "slot": "171",
        "type": "t_uint256"
      }
    ],
    "types": {
      "t_address": {
        "encoding": "inplace",
        "label": "address",
        "numberOfBytes": "20"
      },
      "t_array(t_uint256)49_storage": {
        "base": "t_uint256",
        "encoding": "inplace",
        "label": "uint256[49]",
        "numberOfBytes": "1568"
      },
      "t_array(t_uint256)50_storage": {
        "base": "t_uint256",
        "encoding": "inplace",
        "label": "uint256[50]",
        "numberOfBytes": "1600"
      },
      "t_bool": {
        "encoding": "inplace",
        "label": "bool",
        "numberOfBytes": "1"
      },
      "t_mapping(t_address,t_bool)": {
        "encoding": "mapping",
        "key": "t_address",
        "label": "mapping(address => bool)",
        "numberOfBytes": "32",
        "value": "t_bool"
      },
      "t_mapping(t_uint256,t_uint256)": {
        "encoding": "mapping",
        "key": "t_uint256",
        "label": "mapping(uint256 => uint256)",
        "numberOfBytes": "32",
        "value": "t_uint256"
      },
      "t_string_storage": {
        "encoding": "bytes",
        "label": "string",
        "numberOfBytes": "32"
      },
      "t_uint256": {
        "encoding": "inplace",
        "label": "uint256",
        "numberOfBytes": "32"
      },
      "t_uint8": {
        "encoding": "inplace",
        "label": "uint8",
        "numberOfBytes": "1"
      }
    }
  }
}