{
  "address": "0xDFBA5aEc55d06425d31B07ec0Ea32D12b7EcB83B",
  "abi": [
    {
      "inputs": [
        {
          "internalType": "address",
          "name": "_admin",
          "type": "address"
        }
      ],
      "stateMutability": "nonpayable",
      "type": "constructor"
    },
    {
      "anonymous": false,
      "inputs": [
        {
          "indexed": false,
          "internalType": "address",
          "name": "",
          "type": "address"
        }
      ],
      "name": "ApproveWallet",
      "type": "event"
    },
    {
      "anonymous": false,
      "inputs": [
        {
          "indexed": false,
          "internalType": "address",
          "name": "",
          "type": "address"
        }
      ],
      "name": "RevokeWallet",
      "type": "event"
    },
    {
      "inputs": [],
      "name": "admin",
      "outputs": [
        {
          "internalType": "address",
          "name": "",
          "type": "address"
        }
      ],
      "stateMutability": "view",
      "type": "function"
    },
    {
      "inputs": [],
      "name": "applySetChecker",
      "outputs": [],
      "stateMutability": "nonpayable",
      "type": "function"
    },
    {
      "inputs": [
        {
          "internalType": "address",
          "name": "_wallet",
          "type": "address"
        }
      ],
      "name": "approveWallet",
      "outputs": [],
      "stateMutability": "nonpayable",
      "type": "function"
    },
    {
      "inputs": [
        {
          "internalType": "address",
          "name": "_admin",
          "type": "address"
        }
      ],
      "name": "changeAdmin",
      "outputs": [],
      "stateMutability": "nonpayable",
      "type": "function"
    },
    {
      "inputs": [
        {
          "internalType": "address",
          "name": "_wallet",
          "type": "address"
        }
      ],
      "name": "check",
      "outputs": [
        {
          "internalType": "bool",
          "name": "",
          "type": "bool"
        }
      ],
      "stateMutability": "view",
      "type": "function"
    },
    {
      "inputs": [],
      "name": "checker",
      "outputs": [
        {
          "internalType": "address",
          "name": "",
          "type": "address"
        }
      ],
      "stateMutability": "view",
      "type": "function"
    },
    {
      "inputs": [
        {
          "internalType": "address",
          "name": "_checker",
          "type": "address"
        }
      ],
      "name": "commitSetChecker",
      "outputs": [],
      "stateMutability": "nonpayable",
      "type": "function"
    },
    {
      "inputs": [],
      "name": "future_checker",
      "outputs": [
        {
          "internalType": "address",
          "name": "",
          "type": "address"
        }
      ],
      "stateMutability": "view",
      "type": "function"
    },
    {
      "inputs": [
        {
          "internalType": "address",
          "name": "_wallet",
          "type": "address"
        }
      ],
      "name": "revokeWallet",
      "outputs": [],
      "stateMutability": "nonpayable",
      "type": "function"
    },
    {
      "inputs": [
        {
          "internalType": "address",
          "name": "",
          "type": "address"
        }
      ],
      "name": "wallets",
      "outputs": [
        {
          "internalType": "bool",
          "name": "",
          "type": "bool"
        }
      ],
      "stateMutability": "view",
      "type": "function"
    }
  ],
  "transactionHash": "0xe3c6ae32848341d7f50e6bddbdc49c6a45fc55a01640f98f1c2dff223d0b42f0",
  "args": [
    "0x897d873CafeF9a1F0163760Ea3D19A06B96ae8E9"
  ],
  "numDeployments": 1,
  "solcInputHash": "162510a527550652c5043da72444532a",
  "bytecode": "0x608060405234801561001057600080fd5b5060405161062438038061062483398101604081905261002f91610054565b600180546001600160a01b0319166001600160a01b0392909216919091179055610084565b60006020828403121561006657600080fd5b81516001600160a01b038116811461007d57600080fd5b9392505050565b610591806100936000396000f3fe608060405234801561001057600080fd5b50600436106100be5760003560e01c80638fcdecc811610076578063c23697a81161005b578063c23697a81461017c578063cf5303cf1461018f578063f851a440146101a257600080fd5b80638fcdecc81461013e578063943f35a41461016957600080fd5b8063808a9d40116100a7578063808a9d40146100e057806389b08f11146100f35780638f2839701461012b57600080fd5b80630fcb0ae5146100c357806326b42b1a146100d8575b600080fd5b6100d66100d1366004610510565b6101b5565b005b6100d6610256565b6100d66100ee366004610510565b6102ca565b610116610101366004610510565b60006020819052908152604090205460ff1681565b60405190151581526020015b60405180910390f35b6100d6610139366004610510565b61035c565b600354610151906001600160a01b031681565b6040516001600160a01b039091168152602001610122565b6100d6610177366004610510565b6103ce565b61011661018a366004610510565b610440565b600254610151906001600160a01b031681565b600154610151906001600160a01b031681565b6001546001600160a01b031633146101fd5760405162461bcd60e51b815260206004820152600660248201526510b0b236b4b760d11b60448201526064015b60405180910390fd5b6001600160a01b03811660008181526020818152604091829020805460ff1916600117905590519182527fc1e7aae3f3125e58cfc69ab2a872a655dbb9427614aa85b29bb5abeaca4d6a9291015b60405180910390a150565b6001546001600160a01b031633146102995760405162461bcd60e51b815260206004820152600660248201526510b0b236b4b760d11b60448201526064016101f4565b6003546002805473ffffffffffffffffffffffffffffffffffffffff19166001600160a01b03909216919091179055565b6001546001600160a01b0316331461030d5760405162461bcd60e51b815260206004820152600660248201526510b0b236b4b760d11b60448201526064016101f4565b6001600160a01b03811660008181526020818152604091829020805460ff1916905590519182527f1b676c3cc753786cb95aff57280fd7406f1da74e2a8b9755fdd395aded3e16dd910161024b565b6001546001600160a01b0316331461039f5760405162461bcd60e51b815260206004820152600660248201526510b0b236b4b760d11b60448201526064016101f4565b6001805473ffffffffffffffffffffffffffffffffffffffff19166001600160a01b0392909216919091179055565b6001546001600160a01b031633146104115760405162461bcd60e51b815260206004820152600660248201526510b0b236b4b760d11b60448201526064016101f4565b6003805473ffffffffffffffffffffffffffffffffffffffff19166001600160a01b0392909216919091179055565b6001600160a01b03811660009081526020819052604081205460ff1680156104685792915050565b6002546001600160a01b031615610507576002546040517fc23697a80000000000000000000000000000000000000000000000000000000081526001600160a01b0385811660048301529091169063c23697a890602401602060405180830381865afa1580156104dc573d6000803e3d6000fd5b505050506040513d601f19601f820116820180604052508101906105009190610539565b9392505050565b50600092915050565b60006020828403121561052257600080fd5b81356001600160a01b038116811461050057600080fd5b60006020828403121561054b57600080fd5b8151801515811461050057600080fdfea264697066735822122008bdc59499e882242286e64c80ba545e7bba02a8600772a4a11698d9152f2a5464736f6c63430008130033",
  "devdoc": {
    "kind": "dev",
    "methods": {},
    "version": 1
  },
  "userdoc": {
    "kind": "user",
    "methods": {},
    "version": 1
  },
  "storageLayout": {
    "storage": [
      {
        "astId": 13868,
        "contract": "contracts/SmartWalletWhitelist.sol:SmartWalletWhitelist",
        "label": "wallets",
        "offset": 0,
        "slot": "0",
        "type": "t_mapping(t_address,t_bool)"
      },
      {
        "astId": 13870,
        "contract": "contracts/SmartWalletWhitelist.sol:SmartWalletWhitelist",
        "label": "admin",
        "offset": 0,
        "slot": "1",
        "type": "t_address"
      },
      {
        "astId": 13872,
        "contract": "contracts/SmartWalletWhitelist.sol:SmartWalletWhitelist",
        "label": "checker",
        "offset": 0,
        "slot": "2",
        "type": "t_address"
      },
      {
        "astId": 13874,
        "contract": "contracts/SmartWalletWhitelist.sol:SmartWalletWhitelist",
        "label": "future_checker",
        "offset": 0,
        "slot": "3",
        "type": "t_address"
      }
    ],
    "types": {
      "t_address": {
        "encoding": "inplace",
        "label": "address",
        "numberOfBytes": "20"
      },
      "t_bool": {
        "encoding": "inplace",
        "label": "bool",
        "numberOfBytes": "1"
      },
      "t_mapping(t_address,t_bool)": {
        "encoding": "mapping",
        "key": "t_address",
        "label": "mapping(address => bool)",
        "numberOfBytes": "32",
        "value": "t_bool"
      }
    }
  }
}